{
  "address": "0x8A791620dd6260079BF849Dc5567aDC3F2FdC318",
  "abi": [
    {
      "inputs": [],
      "stateMutability": "nonpayable",
      "type": "constructor"
    },
    {
      "anonymous": false,
      "inputs": [
        {
          "indexed": true,
          "internalType": "address",
          "name": "withdrawer",
          "type": "address"
        },
        {
          "indexed": true,
          "internalType": "address",
          "name": "erc20DenominationUsed",
          "type": "address"
        },
        {
          "indexed": false,
          "internalType": "uint256",
          "name": "amount",
          "type": "uint256"
        }
      ],
      "name": "BalanceWithdrawed",
      "type": "event"
    },
    {
      "anonymous": false,
      "inputs": [
        {
          "indexed": true,
          "internalType": "address",
          "name": "previousOwner",
          "type": "address"
        },
        {
          "indexed": true,
          "internalType": "address",
          "name": "newOwner",
          "type": "address"
        }
      ],
      "name": "OwnershipTransferred",
      "type": "event"
    },
    {
      "inputs": [],
      "name": "commissionRate",
      "outputs": [
        {
          "internalType": "uint8",
          "name": "",
          "type": "uint8"
        }
      ],
      "stateMutability": "view",
      "type": "function"
    },
    {
      "inputs": [
        {
          "internalType": "address",
          "name": "_erc20DenominationUsed",
          "type": "address"
        },
        {
          "internalType": "address",
          "name": "_to",
          "type": "address"
        },
        {
          "internalType": "uint256",
          "name": "_amount",
          "type": "uint256"
        }
      ],
      "name": "liquidateCollateral",
      "outputs": [
        {
          "internalType": "bool",
          "name": "",
          "type": "bool"
        }
      ],
      "stateMutability": "nonpayable",
      "type": "function"
    },
    {
      "inputs": [
        {
          "internalType": "address",
          "name": "",
          "type": "address"
        },
        {
          "internalType": "address",
          "name": "",
          "type": "address"
        },
        {
          "internalType": "uint256",
          "name": "",
          "type": "uint256"
        },
        {
          "internalType": "bytes",
          "name": "",
          "type": "bytes"
        }
      ],
      "name": "onERC721Received",
      "outputs": [
        {
          "internalType": "bytes4",
          "name": "",
          "type": "bytes4"
        }
      ],
      "stateMutability": "pure",
      "type": "function"
    },
    {
      "inputs": [],
      "name": "owner",
      "outputs": [
        {
          "internalType": "address",
          "name": "",
          "type": "address"
        }
      ],
      "stateMutability": "view",
      "type": "function"
    },
    {
      "inputs": [
        {
          "internalType": "address",
          "name": "",
          "type": "address"
        },
        {
          "internalType": "address",
          "name": "",
          "type": "address"
        }
      ],
      "name": "ownerBalance",
      "outputs": [
        {
          "internalType": "uint256",
          "name": "",
          "type": "uint256"
        }
      ],
      "stateMutability": "view",
      "type": "function"
    },
    {
      "inputs": [
        {
          "internalType": "address",
          "name": "_erc20DenominationUsed",
          "type": "address"
        },
        {
          "internalType": "address",
          "name": "_to",
          "type": "address"
        },
        {
          "internalType": "uint256",
          "name": "_collateralAmount",
          "type": "uint256"
        },
        {
          "internalType": "address",
          "name": "_ownerPaid",
          "type": "address"
        },
        {
          "internalType": "uint256",
          "name": "_paidAmount",
          "type": "uint256"
        }
      ],
      "name": "payAndReturnCollateral",
      "outputs": [],
      "stateMutability": "nonpayable",
      "type": "function"
    },
    {
      "inputs": [
        {
          "internalType": "address",
          "name": "",
          "type": "address"
        }
      ],
      "name": "personnalBalance",
      "outputs": [
        {
          "internalType": "uint256",
          "name": "",
          "type": "uint256"
        }
      ],
      "stateMutability": "view",
      "type": "function"
    },
    {
      "inputs": [],
      "name": "renounceOwnership",
      "outputs": [],
      "stateMutability": "nonpayable",
      "type": "function"
    },
    {
      "inputs": [],
      "name": "rentalManager",
      "outputs": [
        {
          "internalType": "address",
          "name": "",
          "type": "address"
        }
      ],
      "stateMutability": "view",
      "type": "function"
    },
    {
      "inputs": [
        {
          "internalType": "address",
          "name": "_assetContract",
          "type": "address"
        },
        {
          "internalType": "uint256",
          "name": "_tokenId",
          "type": "uint256"
        }
      ],
      "name": "retreiveNFT",
      "outputs": [],
      "stateMutability": "nonpayable",
      "type": "function"
    },
    {
      "inputs": [
        {
          "internalType": "address",
          "name": "_erc20DenominationUsed",
          "type": "address"
        },
        {
          "internalType": "address",
          "name": "_from",
          "type": "address"
        },
        {
          "internalType": "address",
          "name": "_to",
          "type": "address"
        },
        {
          "internalType": "uint256",
          "name": "_amount",
          "type": "uint256"
        }
      ],
      "name": "safeTransferCollateralFrom",
      "outputs": [],
      "stateMutability": "nonpayable",
      "type": "function"
    },
    {
      "inputs": [
        {
          "internalType": "address",
          "name": "_renter",
          "type": "address"
        },
        {
          "internalType": "address",
          "name": "_originalOwner",
          "type": "address"
        },
        {
          "internalType": "address",
          "name": "_assetContract",
          "type": "address"
        },
        {
          "internalType": "uint256",
          "name": "_tokenId",
          "type": "uint256"
        }
      ],
      "name": "safeTransferToRenter",
      "outputs": [],
      "stateMutability": "nonpayable",
      "type": "function"
    },
    {
      "inputs": [
        {
          "internalType": "uint8",
          "name": "_newCommissionRate",
          "type": "uint8"
        }
      ],
      "name": "setCommissionRate",
      "outputs": [],
      "stateMutability": "nonpayable",
      "type": "function"
    },
    {
      "inputs": [
        {
          "internalType": "address",
          "name": "_rentalManager",
          "type": "address"
        }
      ],
      "name": "setRentalManager",
      "outputs": [],
      "stateMutability": "nonpayable",
      "type": "function"
    },
    {
      "inputs": [
        {
          "internalType": "address",
          "name": "assetContract",
          "type": "address"
        },
        {
          "internalType": "address",
          "name": "from",
          "type": "address"
        },
        {
          "internalType": "address",
          "name": "to",
          "type": "address"
        },
        {
          "internalType": "uint256",
          "name": "tokenId",
          "type": "uint256"
        }
      ],
      "name": "transferNFTFrom",
      "outputs": [],
      "stateMutability": "nonpayable",
      "type": "function"
    },
    {
      "inputs": [
        {
          "internalType": "address",
          "name": "newOwner",
          "type": "address"
        }
      ],
      "name": "transferOwnership",
      "outputs": [],
      "stateMutability": "nonpayable",
      "type": "function"
    },
    {
      "inputs": [
        {
          "internalType": "address",
          "name": "_erc20DenominationUsed",
          "type": "address"
        }
      ],
      "name": "withdrawBalance",
      "outputs": [],
      "stateMutability": "nonpayable",
      "type": "function"
    },
    {
      "inputs": [
        {
          "internalType": "address",
          "name": "_erc20DenominationUsed",
          "type": "address"
        }
      ],
      "name": "withdrawProtocoleBalance",
      "outputs": [],
      "stateMutability": "nonpayable",
      "type": "function"
    }
  ],
  "transactionHash": "0x99b2528790a2971ce210870f03762f92d87d4eeef9c5e9f5fd7c86c6583d6e7f",
  "args": [],
  "numDeployments": 1,
  "solcInputHash": "fbce8e838ef917cc3d1eada4fe1cb18c",
  "bytecode": "0x60806040526005600060146101000a81548160ff021916908360ff16021790555034801561002c57600080fd5b5061004961003e61004e60201b60201c565b61005660201b60201c565b61011a565b600033905090565b60008060009054906101000a900473ffffffffffffffffffffffffffffffffffffffff169050816000806101000a81548173ffffffffffffffffffffffffffffffffffffffff021916908373ffffffffffffffffffffffffffffffffffffffff1602179055508173ffffffffffffffffffffffffffffffffffffffff168173ffffffffffffffffffffffffffffffffffffffff167f8be0079c531659141344cd1fd0a4f28419497f9722a3daafe3b4186f6b6457e060405160405180910390a35050565b612328806200012a6000396000f3fe608060405234801561001057600080fd5b50600436106101155760003560e01c8063756af45f116100a2578063c278cff611610071578063c278cff6146102c8578063ce24f55e146102e6578063d878047814610302578063e7236a931461031e578063f2fde38b1461033a57610115565b8063756af45f146102565780637d05dfd81461027257806388f3b5f01461028e5780638da5cb5b146102aa57610115565b80632dc3e5c4116100e95780632dc3e5c4146101c657806342922683146101e2578063577b540b146102125780635ea1d6f81461022e578063715018a61461024c57610115565b80629537241461011a57806312dee4891461014a57806313ec671814610166578063150b7a0214610196575b600080fd5b610134600480360381019061012f919061170a565b610356565b6040516101419190611778565b60405180910390f35b610164600480360381019061015f91906117cc565b61047e565b005b610180600480360381019061017b91906117f9565b6104a4565b60405161018d9190611835565b60405180910390f35b6101b060048036038101906101ab91906118b5565b6104bc565b6040516101bd9190611978565b60405180910390f35b6101e060048036038101906101db9190611993565b6104d1565b005b6101fc60048036038101906101f791906119fa565b610594565b6040516102099190611835565b60405180910390f35b61022c600480360381019061022791906117f9565b6105b9565b005b610236610605565b6040516102439190611a49565b60405180910390f35b610254610618565b005b610270600480360381019061026b91906117f9565b61062c565b005b61028c60048036038101906102879190611993565b610929565b005b6102a860048036038101906102a39190611a64565b610a2e565b005b6102b2610b7f565b6040516102bf9190611ab3565b60405180910390f35b6102d0610ba8565b6040516102dd9190611ab3565b60405180910390f35b61030060048036038101906102fb9190611ace565b610bce565b005b61031c600480360381019061031791906117f9565b610dbe565b005b61033860048036038101906103339190611993565b610f65565b005b610354600480360381019061034f91906117f9565b6110f9565b005b6000600460009054906101000a900473ffffffffffffffffffffffffffffffffffffffff1673ffffffffffffffffffffffffffffffffffffffff163373ffffffffffffffffffffffffffffffffffffffff16146103e8576040517f08c379a00000000000000000000000000000000000000000000000000000000081526004016103df90611bcc565b60405180910390fd5b8373ffffffffffffffffffffffffffffffffffffffff1663a9059cbb84846040518363ffffffff1660e01b8152600401610423929190611bec565b602060405180830381600087803b15801561043d57600080fd5b505af1158015610451573d6000803e3d6000fd5b505050506040513d601f19601f820116820180604052508101906104759190611c41565b90509392505050565b61048661117d565b80600060146101000a81548160ff021916908360ff16021790555050565b60016020528060005260406000206000915090505481565b600063150b7a0260e01b905095945050505050565b600460009054906101000a900473ffffffffffffffffffffffffffffffffffffffff1673ffffffffffffffffffffffffffffffffffffffff163373ffffffffffffffffffffffffffffffffffffffff1614610561576040517f08c379a000000000000000000000000000000000000000000000000000000000815260040161055890611bcc565b60405180910390fd5b61058e8383838773ffffffffffffffffffffffffffffffffffffffff166111fb909392919063ffffffff16565b50505050565b6002602052816000526040600020602052806000526040600020600091509150505481565b6105c161117d565b80600460006101000a81548173ffffffffffffffffffffffffffffffffffffffff021916908373ffffffffffffffffffffffffffffffffffffffff16021790555050565b600060149054906101000a900460ff1681565b61062061117d565b61062a6000611284565b565b6000600260003373ffffffffffffffffffffffffffffffffffffffff1673ffffffffffffffffffffffffffffffffffffffff16815260200190815260200160002060008373ffffffffffffffffffffffffffffffffffffffff1673ffffffffffffffffffffffffffffffffffffffff16815260200190815260200160002054116106eb576040517f08c379a00000000000000000000000000000000000000000000000000000000081526004016106e290611cba565b60405180910390fd5b6000600260003373ffffffffffffffffffffffffffffffffffffffff1673ffffffffffffffffffffffffffffffffffffffff16815260200190815260200160002060008373ffffffffffffffffffffffffffffffffffffffff1673ffffffffffffffffffffffffffffffffffffffff1681526020019081526020016000205490506000600260003373ffffffffffffffffffffffffffffffffffffffff1673ffffffffffffffffffffffffffffffffffffffff16815260200190815260200160002060008473ffffffffffffffffffffffffffffffffffffffff1673ffffffffffffffffffffffffffffffffffffffff1681526020019081526020016000208190555060008273ffffffffffffffffffffffffffffffffffffffff1663a9059cbb33846040518363ffffffff1660e01b815260040161082b929190611bec565b602060405180830381600087803b15801561084557600080fd5b505af1158015610859573d6000803e3d6000fd5b505050506040513d601f19601f8201168201806040525081019061087d9190611c41565b9050806108bf576040517f08c379a00000000000000000000000000000000000000000000000000000000081526004016108b690611d26565b60405180910390fd5b8273ffffffffffffffffffffffffffffffffffffffff163373ffffffffffffffffffffffffffffffffffffffff167fa1a97121a4ae27503b2cca2694cdf46541e6baa0a6d40fdd63937e68fc3d53d48460405161091c9190611835565b60405180910390a3505050565b600460009054906101000a900473ffffffffffffffffffffffffffffffffffffffff1673ffffffffffffffffffffffffffffffffffffffff163373ffffffffffffffffffffffffffffffffffffffff16146109b9576040517f08c379a00000000000000000000000000000000000000000000000000000000081526004016109b090611bcc565b60405180910390fd5b8373ffffffffffffffffffffffffffffffffffffffff166342842e0e8484846040518463ffffffff1660e01b81526004016109f693929190611d46565b600060405180830381600087803b158015610a1057600080fd5b505af1158015610a24573d6000803e3d6000fd5b5050505050505050565b600360008373ffffffffffffffffffffffffffffffffffffffff1673ffffffffffffffffffffffffffffffffffffffff168152602001908152602001600020600082815260200190815260200160002060009054906101000a900473ffffffffffffffffffffffffffffffffffffffff1673ffffffffffffffffffffffffffffffffffffffff163373ffffffffffffffffffffffffffffffffffffffff1614610b0c576040517f08c379a0000000000000000000000000000000000000000000000000000000008152600401610b0390611dc9565b60405180910390fd5b8173ffffffffffffffffffffffffffffffffffffffff166342842e0e3033846040518463ffffffff1660e01b8152600401610b4993929190611d46565b600060405180830381600087803b158015610b6357600080fd5b505af1158015610b77573d6000803e3d6000fd5b505050505050565b60008060009054906101000a900473ffffffffffffffffffffffffffffffffffffffff16905090565b600460009054906101000a900473ffffffffffffffffffffffffffffffffffffffff1681565b600460009054906101000a900473ffffffffffffffffffffffffffffffffffffffff1673ffffffffffffffffffffffffffffffffffffffff163373ffffffffffffffffffffffffffffffffffffffff1614610c5e576040517f08c379a0000000000000000000000000000000000000000000000000000000008152600401610c5590611bcc565b60405180910390fd5b80600260008473ffffffffffffffffffffffffffffffffffffffff1673ffffffffffffffffffffffffffffffffffffffff16815260200190815260200160002060008773ffffffffffffffffffffffffffffffffffffffff1673ffffffffffffffffffffffffffffffffffffffff1681526020019081526020016000206000828254610cea9190611e18565b9250508190555060006064600060149054906101000a900460ff1660ff1683610d139190611e6e565b610d1d9190611ef7565b905080600160008873ffffffffffffffffffffffffffffffffffffffff1673ffffffffffffffffffffffffffffffffffffffff1681526020019081526020016000206000828254610d6e9190611e18565b92505081905550610db685828487610d869190611f28565b610d909190611f28565b8873ffffffffffffffffffffffffffffffffffffffff166113489092919063ffffffff16565b505050505050565b610dc661117d565b6000600160008373ffffffffffffffffffffffffffffffffffffffff1673ffffffffffffffffffffffffffffffffffffffff1681526020019081526020016000205411610e48576040517f08c379a0000000000000000000000000000000000000000000000000000000008152600401610e3f90611cba565b60405180910390fd5b6000600160008373ffffffffffffffffffffffffffffffffffffffff1673ffffffffffffffffffffffffffffffffffffffff1681526020019081526020016000205490506000600160008473ffffffffffffffffffffffffffffffffffffffff1673ffffffffffffffffffffffffffffffffffffffff16815260200190815260200160002081905550610efc33828473ffffffffffffffffffffffffffffffffffffffff166113489092919063ffffffff16565b8173ffffffffffffffffffffffffffffffffffffffff163373ffffffffffffffffffffffffffffffffffffffff167fa1a97121a4ae27503b2cca2694cdf46541e6baa0a6d40fdd63937e68fc3d53d483604051610f599190611835565b60405180910390a35050565b600460009054906101000a900473ffffffffffffffffffffffffffffffffffffffff1673ffffffffffffffffffffffffffffffffffffffff163373ffffffffffffffffffffffffffffffffffffffff1614610ff5576040517f08c379a0000000000000000000000000000000000000000000000000000000008152600401610fec90611bcc565b60405180910390fd5b82600360008473ffffffffffffffffffffffffffffffffffffffff1673ffffffffffffffffffffffffffffffffffffffff168152602001908152602001600020600083815260200190815260200160002060006101000a81548173ffffffffffffffffffffffffffffffffffffffff021916908373ffffffffffffffffffffffffffffffffffffffff1602179055508173ffffffffffffffffffffffffffffffffffffffff166342842e0e8530846040518463ffffffff1660e01b81526004016110c193929190611d46565b600060405180830381600087803b1580156110db57600080fd5b505af11580156110ef573d6000803e3d6000fd5b5050505050505050565b61110161117d565b600073ffffffffffffffffffffffffffffffffffffffff168173ffffffffffffffffffffffffffffffffffffffff161415611171576040517f08c379a000000000000000000000000000000000000000000000000000000000815260040161116890611fce565b60405180910390fd5b61117a81611284565b50565b6111856113ce565b73ffffffffffffffffffffffffffffffffffffffff166111a3610b7f565b73ffffffffffffffffffffffffffffffffffffffff16146111f9576040517f08c379a00000000000000000000000000000000000000000000000000000000081526004016111f09061203a565b60405180910390fd5b565b61127e846323b872dd60e01b85858560405160240161121c93929190611d46565b604051602081830303815290604052907bffffffffffffffffffffffffffffffffffffffffffffffffffffffff19166020820180517bffffffffffffffffffffffffffffffffffffffffffffffffffffffff83818316178352505050506113d6565b50505050565b60008060009054906101000a900473ffffffffffffffffffffffffffffffffffffffff169050816000806101000a81548173ffffffffffffffffffffffffffffffffffffffff021916908373ffffffffffffffffffffffffffffffffffffffff1602179055508173ffffffffffffffffffffffffffffffffffffffff168173ffffffffffffffffffffffffffffffffffffffff167f8be0079c531659141344cd1fd0a4f28419497f9722a3daafe3b4186f6b6457e060405160405180910390a35050565b6113c98363a9059cbb60e01b8484604051602401611367929190611bec565b604051602081830303815290604052907bffffffffffffffffffffffffffffffffffffffffffffffffffffffff19166020820180517bffffffffffffffffffffffffffffffffffffffffffffffffffffffff83818316178352505050506113d6565b505050565b600033905090565b6000611438826040518060400160405280602081526020017f5361666545524332303a206c6f772d6c6576656c2063616c6c206661696c65648152508573ffffffffffffffffffffffffffffffffffffffff1661149e9092919063ffffffff16565b905060008151148061145a5750808060200190518101906114599190611c41565b5b611499576040517f08c379a0000000000000000000000000000000000000000000000000000000008152600401611490906120cc565b60405180910390fd5b505050565b60606114ad84846000856114b6565b90509392505050565b6060824710156114fb576040517f08c379a00000000000000000000000000000000000000000000000000000000081526004016114f29061215e565b60405180910390fd5b6000808673ffffffffffffffffffffffffffffffffffffffff16858760405161152491906121f8565b60006040518083038185875af1925050503d8060008114611561576040519150601f19603f3d011682016040523d82523d6000602084013e611566565b606091505b509150915061157787838387611583565b92505050949350505050565b606083156115e6576000835114156115de5761159e856115f9565b6115dd576040517f08c379a00000000000000000000000000000000000000000000000000000000081526004016115d49061225b565b60405180910390fd5b5b8290506115f1565b6115f0838361161c565b5b949350505050565b6000808273ffffffffffffffffffffffffffffffffffffffff163b119050919050565b60008251111561162f5781518083602001fd5b806040517f08c379a000000000000000000000000000000000000000000000000000000000815260040161166391906122d0565b60405180910390fd5b600080fd5b600080fd5b600073ffffffffffffffffffffffffffffffffffffffff82169050919050565b60006116a182611676565b9050919050565b6116b181611696565b81146116bc57600080fd5b50565b6000813590506116ce816116a8565b92915050565b6000819050919050565b6116e7816116d4565b81146116f257600080fd5b50565b600081359050611704816116de565b92915050565b6000806000606084860312156117235761172261166c565b5b6000611731868287016116bf565b9350506020611742868287016116bf565b9250506040611753868287016116f5565b9150509250925092565b60008115159050919050565b6117728161175d565b82525050565b600060208201905061178d6000830184611769565b92915050565b600060ff82169050919050565b6117a981611793565b81146117b457600080fd5b50565b6000813590506117c6816117a0565b92915050565b6000602082840312156117e2576117e161166c565b5b60006117f0848285016117b7565b91505092915050565b60006020828403121561180f5761180e61166c565b5b600061181d848285016116bf565b91505092915050565b61182f816116d4565b82525050565b600060208201905061184a6000830184611826565b92915050565b600080fd5b600080fd5b600080fd5b60008083601f84011261187557611874611850565b5b8235905067ffffffffffffffff81111561189257611891611855565b5b6020830191508360018202830111156118ae576118ad61185a565b5b9250929050565b6000806000806000608086880312156118d1576118d061166c565b5b60006118df888289016116bf565b95505060206118f0888289016116bf565b9450506040611901888289016116f5565b935050606086013567ffffffffffffffff81111561192257611921611671565b5b61192e8882890161185f565b92509250509295509295909350565b60007fffffffff0000000000000000000000000000000000000000000000000000000082169050919050565b6119728161193d565b82525050565b600060208201905061198d6000830184611969565b92915050565b600080600080608085870312156119ad576119ac61166c565b5b60006119bb878288016116bf565b94505060206119cc878288016116bf565b93505060406119dd878288016116bf565b92505060606119ee878288016116f5565b91505092959194509250565b60008060408385031215611a1157611a1061166c565b5b6000611a1f858286016116bf565b9250506020611a30858286016116bf565b9150509250929050565b611a4381611793565b82525050565b6000602082019050611a5e6000830184611a3a565b92915050565b60008060408385031215611a7b57611a7a61166c565b5b6000611a89858286016116bf565b9250506020611a9a858286016116f5565b9150509250929050565b611aad81611696565b82525050565b6000602082019050611ac86000830184611aa4565b92915050565b600080600080600060a08688031215611aea57611ae961166c565b5b6000611af8888289016116bf565b9550506020611b09888289016116bf565b9450506040611b1a888289016116f5565b9350506060611b2b888289016116bf565b9250506080611b3c888289016116f5565b9150509295509295909350565b600082825260208201905092915050565b7f4f6e6c792072656e74616c4d616e6167657220697320616c6c6f77656420746f60008201527f2063616c6c000000000000000000000000000000000000000000000000000000602082015250565b6000611bb6602583611b49565b9150611bc182611b5a565b604082019050919050565b60006020820190508181036000830152611be581611ba9565b9050919050565b6000604082019050611c016000830185611aa4565b611c0e6020830184611826565b9392505050565b611c1e8161175d565b8114611c2957600080fd5b50565b600081519050611c3b81611c15565b92915050565b600060208284031215611c5757611c5661166c565b5b6000611c6584828501611c2c565b91505092915050565b7f4e6f7420656e6f75676820666f756e6400000000000000000000000000000000600082015250565b6000611ca4601083611b49565b9150611caf82611c6e565b602082019050919050565b60006020820190508181036000830152611cd381611c97565b9050919050565b7f4661696c656420746f207472616e66657220666f756e64730000000000000000600082015250565b6000611d10601883611b49565b9150611d1b82611cda565b602082019050919050565b60006020820190508181036000830152611d3f81611d03565b9050919050565b6000606082019050611d5b6000830186611aa4565b611d686020830185611aa4565b611d756040830184611826565b949350505050565b7f4e6f74206f776e6572206f66207468697320746f6b656e000000000000000000600082015250565b6000611db3601783611b49565b9150611dbe82611d7d565b602082019050919050565b60006020820190508181036000830152611de281611da6565b9050919050565b7f4e487b7100000000000000000000000000000000000000000000000000000000600052601160045260246000fd5b6000611e23826116d4565b9150611e2e836116d4565b9250827fffffffffffffffffffffffffffffffffffffffffffffffffffffffffffffffff03821115611e6357611e62611de9565b5b828201905092915050565b6000611e79826116d4565b9150611e84836116d4565b9250817fffffffffffffffffffffffffffffffffffffffffffffffffffffffffffffffff0483118215151615611ebd57611ebc611de9565b5b828202905092915050565b7f4e487b7100000000000000000000000000000000000000000000000000000000600052601260045260246000fd5b6000611f02826116d4565b9150611f0d836116d4565b925082611f1d57611f1c611ec8565b5b828204905092915050565b6000611f33826116d4565b9150611f3e836116d4565b925082821015611f5157611f50611de9565b5b828203905092915050565b7f4f776e61626c653a206e6577206f776e657220697320746865207a65726f206160008201527f6464726573730000000000000000000000000000000000000000000000000000602082015250565b6000611fb8602683611b49565b9150611fc382611f5c565b604082019050919050565b60006020820190508181036000830152611fe781611fab565b9050919050565b7f4f776e61626c653a2063616c6c6572206973206e6f7420746865206f776e6572600082015250565b6000612024602083611b49565b915061202f82611fee565b602082019050919050565b6000602082019050818103600083015261205381612017565b9050919050565b7f5361666545524332303a204552433230206f7065726174696f6e20646964206e60008201527f6f74207375636365656400000000000000000000000000000000000000000000602082015250565b60006120b6602a83611b49565b91506120c18261205a565b604082019050919050565b600060208201905081810360008301526120e5816120a9565b9050919050565b7f416464726573733a20696e73756666696369656e742062616c616e636520666f60008201527f722063616c6c0000000000000000000000000000000000000000000000000000602082015250565b6000612148602683611b49565b9150612153826120ec565b604082019050919050565b600060208201905081810360008301526121778161213b565b9050919050565b600081519050919050565b600081905092915050565b60005b838110156121b2578082015181840152602081019050612197565b838111156121c1576000848401525b50505050565b60006121d28261217e565b6121dc8185612189565b93506121ec818560208601612194565b80840191505092915050565b600061220482846121c7565b915081905092915050565b7f416464726573733a2063616c6c20746f206e6f6e2d636f6e7472616374000000600082015250565b6000612245601d83611b49565b91506122508261220f565b602082019050919050565b6000602082019050818103600083015261227481612238565b9050919050565b600081519050919050565b6000601f19601f8301169050919050565b60006122a28261227b565b6122ac8185611b49565b93506122bc818560208601612194565b6122c581612286565b840191505092915050565b600060208201905081810360008301526122ea8184612297565b90509291505056fea2646970667358221220cbc6b2d331adf47d06d31853df78e9169cbbd0ccfde0d70995f6b968ee3818d264736f6c63430008090033",
  "devdoc": {
    "kind": "dev",
    "methods": {
      "owner()": {
        "details": "Returns the address of the current owner."
      },
      "renounceOwnership()": {
        "details": "Leaves the contract without owner. It will not be possible to call `onlyOwner` functions. Can only be called by the current owner. NOTE: Renouncing ownership will leave the contract without an owner, thereby disabling any functionality that is only available to the owner."
      },
      "transferOwnership(address)": {
        "details": "Transfers ownership of the contract to a new account (`newOwner`). Can only be called by the current owner."
      }
    },
    "version": 1
  },
  "userdoc": {
    "kind": "user",
    "methods": {},
    "version": 1
  },
  "storageLayout": {
    "storage": [
      {
        "astId": 7,
        "contract": "contracts/Escrow.sol:Escrow",
        "label": "_owner",
        "offset": 0,
        "slot": "0",
        "type": "t_address"
      },
      {
        "astId": 3909,
        "contract": "contracts/Escrow.sol:Escrow",
        "label": "commissionRate",
        "offset": 20,
        "slot": "0",
        "type": "t_uint8"
      },
      {
        "astId": 3913,
        "contract": "contracts/Escrow.sol:Escrow",
        "label": "personnalBalance",
        "offset": 0,
        "slot": "1",
        "type": "t_mapping(t_address,t_uint256)"
      },
      {
        "astId": 3919,
        "contract": "contracts/Escrow.sol:Escrow",
        "label": "ownerBalance",
        "offset": 0,
        "slot": "2",
        "type": "t_mapping(t_address,t_mapping(t_address,t_uint256))"
      },
      {
        "astId": 3925,
        "contract": "contracts/Escrow.sol:Escrow",
        "label": "nftOwner",
        "offset": 0,
        "slot": "3",
        "type": "t_mapping(t_address,t_mapping(t_uint256,t_address))"
      },
      {
        "astId": 3927,
        "contract": "contracts/Escrow.sol:Escrow",
        "label": "rentalManager",
        "offset": 0,
        "slot": "4",
        "type": "t_address"
      }
    ],
    "types": {
      "t_address": {
        "encoding": "inplace",
        "label": "address",
        "numberOfBytes": "20"
      },
      "t_mapping(t_address,t_mapping(t_address,t_uint256))": {
        "encoding": "mapping",
        "key": "t_address",
        "label": "mapping(address => mapping(address => uint256))",
        "numberOfBytes": "32",
        "value": "t_mapping(t_address,t_uint256)"
      },
      "t_mapping(t_address,t_mapping(t_uint256,t_address))": {
        "encoding": "mapping",
        "key": "t_address",
        "label": "mapping(address => mapping(uint256 => address))",
        "numberOfBytes": "32",
        "value": "t_mapping(t_uint256,t_address)"
      },
      "t_mapping(t_address,t_uint256)": {
        "encoding": "mapping",
        "key": "t_address",
        "label": "mapping(address => uint256)",
        "numberOfBytes": "32",
        "value": "t_uint256"
      },
      "t_mapping(t_uint256,t_address)": {
        "encoding": "mapping",
        "key": "t_uint256",
        "label": "mapping(uint256 => address)",
        "numberOfBytes": "32",
        "value": "t_address"
      },
      "t_uint256": {
        "encoding": "inplace",
        "label": "uint256",
        "numberOfBytes": "32"
      },
      "t_uint8": {
        "encoding": "inplace",
        "label": "uint8",
        "numberOfBytes": "1"
      }
    }
  }
}