{
  "address": "0xDc64a140Aa3E981100a9becA4E685f962f0cF6C9",
  "abi": [
    {
      "inputs": [],
      "stateMutability": "nonpayable",
      "type": "constructor"
    },
    {
      "anonymous": false,
      "inputs": [
        {
          "indexed": true,
          "internalType": "address",
          "name": "listingCreator",
          "type": "address"
        },
        {
          "indexed": true,
          "internalType": "uint256",
          "name": "listingId",
          "type": "uint256"
        }
      ],
      "name": "ListingCancelled",
      "type": "event"
    },
    {
      "anonymous": false,
      "inputs": [
        {
          "indexed": true,
          "internalType": "address",
          "name": "listingCreator",
          "type": "address"
        },
        {
          "indexed": true,
          "internalType": "address",
          "name": "assetContract",
          "type": "address"
        },
        {
          "indexed": true,
          "internalType": "uint256",
          "name": "listingId",
          "type": "uint256"
        },
        {
          "components": [
            {
              "internalType": "uint256",
              "name": "listingId",
              "type": "uint256"
            },
            {
              "internalType": "address",
              "name": "listingCreator",
              "type": "address"
            },
            {
              "internalType": "address",
              "name": "assetContract",
              "type": "address"
            },
            {
              "internalType": "uint256",
              "name": "tokenId",
              "type": "uint256"
            },
            {
              "internalType": "uint256",
              "name": "collateralAmount",
              "type": "uint256"
            },
            {
              "internalType": "uint256",
              "name": "pricePerDay",
              "type": "uint256"
            },
            {
              "components": [
                {
                  "internalType": "uint256",
                  "name": "startTimestamp",
                  "type": "uint256"
                },
                {
                  "internalType": "uint256",
                  "name": "endTimestamp",
                  "type": "uint256"
                },
                {
                  "internalType": "uint256",
                  "name": "duration",
                  "type": "uint256"
                }
              ],
              "internalType": "struct ListingManager.ListingTime",
              "name": "listingTime",
              "type": "tuple"
            },
            {
              "internalType": "bool",
              "name": "isProRated",
              "type": "bool"
            },
            {
              "internalType": "enum ListingManager.ListingStatus",
              "name": "status",
              "type": "uint8"
            }
          ],
          "indexed": false,
          "internalType": "struct ListingManager.Listing",
          "name": "listing",
          "type": "tuple"
        }
      ],
      "name": "ListingCreated",
      "type": "event"
    },
    {
      "anonymous": false,
      "inputs": [
        {
          "indexed": true,
          "internalType": "address",
          "name": "listingCreator",
          "type": "address"
        },
        {
          "indexed": true,
          "internalType": "address",
          "name": "assetContract",
          "type": "address"
        },
        {
          "indexed": true,
          "internalType": "uint256",
          "name": "listingId",
          "type": "uint256"
        },
        {
          "components": [
            {
              "internalType": "uint256",
              "name": "listingId",
              "type": "uint256"
            },
            {
              "internalType": "address",
              "name": "listingCreator",
              "type": "address"
            },
            {
              "internalType": "address",
              "name": "assetContract",
              "type": "address"
            },
            {
              "internalType": "uint256",
              "name": "tokenId",
              "type": "uint256"
            },
            {
              "internalType": "uint256",
              "name": "collateralAmount",
              "type": "uint256"
            },
            {
              "internalType": "uint256",
              "name": "pricePerDay",
              "type": "uint256"
            },
            {
              "components": [
                {
                  "internalType": "uint256",
                  "name": "startTimestamp",
                  "type": "uint256"
                },
                {
                  "internalType": "uint256",
                  "name": "endTimestamp",
                  "type": "uint256"
                },
                {
                  "internalType": "uint256",
                  "name": "duration",
                  "type": "uint256"
                }
              ],
              "internalType": "struct ListingManager.ListingTime",
              "name": "listingTime",
              "type": "tuple"
            },
            {
              "internalType": "bool",
              "name": "isProRated",
              "type": "bool"
            },
            {
              "internalType": "enum ListingManager.ListingStatus",
              "name": "status",
              "type": "uint8"
            }
          ],
          "indexed": false,
          "internalType": "struct ListingManager.Listing",
          "name": "listing",
          "type": "tuple"
        }
      ],
      "name": "ListingUpdated",
      "type": "event"
    },
    {
      "anonymous": false,
      "inputs": [
        {
          "indexed": true,
          "internalType": "address",
          "name": "previousOwner",
          "type": "address"
        },
        {
          "indexed": true,
          "internalType": "address",
          "name": "newOwner",
          "type": "address"
        }
      ],
      "name": "OwnershipTransferred",
      "type": "event"
    },
    {
      "inputs": [
        {
          "internalType": "uint256",
          "name": "_listingId",
          "type": "uint256"
        }
      ],
      "name": "cancelListing",
      "outputs": [],
      "stateMutability": "nonpayable",
      "type": "function"
    },
    {
      "inputs": [
        {
          "components": [
            {
              "internalType": "address",
              "name": "assetContract",
              "type": "address"
            },
            {
              "internalType": "uint256",
              "name": "tokenId",
              "type": "uint256"
            },
            {
              "internalType": "uint256",
              "name": "collateralAmount",
              "type": "uint256"
            },
            {
              "internalType": "uint256",
              "name": "pricePerDay",
              "type": "uint256"
            },
            {
              "internalType": "uint256",
              "name": "startTimestamp",
              "type": "uint256"
            },
            {
              "internalType": "uint256",
              "name": "endTimestamp",
              "type": "uint256"
            },
            {
              "internalType": "uint256",
              "name": "duration",
              "type": "uint256"
            },
            {
              "internalType": "bool",
              "name": "isProRated",
              "type": "bool"
            }
          ],
          "internalType": "struct ListingManager.ListingParameters",
          "name": "_listingParameters",
          "type": "tuple"
        }
      ],
      "name": "createListing",
      "outputs": [],
      "stateMutability": "nonpayable",
      "type": "function"
    },
    {
      "inputs": [
        {
          "internalType": "address",
          "name": "",
          "type": "address"
        },
        {
          "internalType": "uint256",
          "name": "",
          "type": "uint256"
        }
      ],
      "name": "isTokenListed",
      "outputs": [
        {
          "internalType": "bool",
          "name": "",
          "type": "bool"
        }
      ],
      "stateMutability": "view",
      "type": "function"
    },
    {
      "inputs": [
        {
          "internalType": "uint256",
          "name": "",
          "type": "uint256"
        }
      ],
      "name": "listings",
      "outputs": [
        {
          "internalType": "uint256",
          "name": "listingId",
          "type": "uint256"
        },
        {
          "internalType": "address",
          "name": "listingCreator",
          "type": "address"
        },
        {
          "internalType": "address",
          "name": "assetContract",
          "type": "address"
        },
        {
          "internalType": "uint256",
          "name": "tokenId",
          "type": "uint256"
        },
        {
          "internalType": "uint256",
          "name": "collateralAmount",
          "type": "uint256"
        },
        {
          "internalType": "uint256",
          "name": "pricePerDay",
          "type": "uint256"
        },
        {
          "components": [
            {
              "internalType": "uint256",
              "name": "startTimestamp",
              "type": "uint256"
            },
            {
              "internalType": "uint256",
              "name": "endTimestamp",
              "type": "uint256"
            },
            {
              "internalType": "uint256",
              "name": "duration",
              "type": "uint256"
            }
          ],
          "internalType": "struct ListingManager.ListingTime",
          "name": "listingTime",
          "type": "tuple"
        },
        {
          "internalType": "bool",
          "name": "isProRated",
          "type": "bool"
        },
        {
          "internalType": "enum ListingManager.ListingStatus",
          "name": "status",
          "type": "uint8"
        }
      ],
      "stateMutability": "view",
      "type": "function"
    },
    {
      "inputs": [],
      "name": "owner",
      "outputs": [
        {
          "internalType": "address",
          "name": "",
          "type": "address"
        }
      ],
      "stateMutability": "view",
      "type": "function"
    },
    {
      "inputs": [],
      "name": "renounceOwnership",
      "outputs": [],
      "stateMutability": "nonpayable",
      "type": "function"
    },
    {
      "inputs": [],
      "name": "rentalManager",
      "outputs": [
        {
          "internalType": "address",
          "name": "",
          "type": "address"
        }
      ],
      "stateMutability": "view",
      "type": "function"
    },
    {
      "inputs": [
        {
          "internalType": "uint256",
          "name": "_listingId",
          "type": "uint256"
        },
        {
          "internalType": "enum ListingManager.ListingStatus",
          "name": "_status",
          "type": "uint8"
        }
      ],
      "name": "setListingStatus",
      "outputs": [],
      "stateMutability": "nonpayable",
      "type": "function"
    },
    {
      "inputs": [
        {
          "internalType": "address",
          "name": "_rentalManager",
          "type": "address"
        }
      ],
      "name": "setRentalManager",
      "outputs": [],
      "stateMutability": "nonpayable",
      "type": "function"
    },
    {
      "inputs": [
        {
          "internalType": "address",
          "name": "_vault",
          "type": "address"
        }
      ],
      "name": "setVault",
      "outputs": [],
      "stateMutability": "nonpayable",
      "type": "function"
    },
    {
      "inputs": [],
      "name": "totalNumListing",
      "outputs": [
        {
          "internalType": "uint256",
          "name": "",
          "type": "uint256"
        }
      ],
      "stateMutability": "view",
      "type": "function"
    },
    {
      "inputs": [
        {
          "internalType": "address",
          "name": "newOwner",
          "type": "address"
        }
      ],
      "name": "transferOwnership",
      "outputs": [],
      "stateMutability": "nonpayable",
      "type": "function"
    },
    {
      "inputs": [
        {
          "internalType": "uint256",
          "name": "_listingId",
          "type": "uint256"
        },
        {
          "components": [
            {
              "internalType": "address",
              "name": "assetContract",
              "type": "address"
            },
            {
              "internalType": "uint256",
              "name": "tokenId",
              "type": "uint256"
            },
            {
              "internalType": "uint256",
              "name": "collateralAmount",
              "type": "uint256"
            },
            {
              "internalType": "uint256",
              "name": "pricePerDay",
              "type": "uint256"
            },
            {
              "internalType": "uint256",
              "name": "startTimestamp",
              "type": "uint256"
            },
            {
              "internalType": "uint256",
              "name": "endTimestamp",
              "type": "uint256"
            },
            {
              "internalType": "uint256",
              "name": "duration",
              "type": "uint256"
            },
            {
              "internalType": "bool",
              "name": "isProRated",
              "type": "bool"
            }
          ],
          "internalType": "struct ListingManager.ListingParameters",
          "name": "_listingParameters",
          "type": "tuple"
        }
      ],
      "name": "updateListing",
      "outputs": [],
      "stateMutability": "nonpayable",
      "type": "function"
    },
    {
      "inputs": [],
      "name": "vault",
      "outputs": [
        {
          "internalType": "address",
          "name": "",
          "type": "address"
        }
      ],
      "stateMutability": "view",
      "type": "function"
    }
  ],
  "transactionHash": "0x87fc09acd45ffaabf3c0ef846b71b1860d17500355ee9947be3841bb64e0186e",
  "args": [],
  "numDeployments": 1,
  "solcInputHash": "69948cb467ee74509f51748af70691c8",
  "bytecode": "0x608060405260006001553480156200001657600080fd5b50620000376200002b6200003d60201b60201c565b6200004560201b60201c565b62000109565b600033905090565b60008060009054906101000a900473ffffffffffffffffffffffffffffffffffffffff169050816000806101000a81548173ffffffffffffffffffffffffffffffffffffffff021916908373ffffffffffffffffffffffffffffffffffffffff1602179055508173ffffffffffffffffffffffffffffffffffffffff168173ffffffffffffffffffffffffffffffffffffffff167f8be0079c531659141344cd1fd0a4f28419497f9722a3daafe3b4186f6b6457e060405160405180910390a35050565b61254f80620001196000396000f3fe608060405234801561001057600080fd5b50600436106100ea5760003560e01c8063715018a61161008c578063c278cff611610066578063c278cff61461020d578063de74e57b1461022b578063f2fde38b14610263578063fbfa77cf1461027f576100ea565b8063715018a6146101c95780637908507a146101d35780638da5cb5b146101ef576100ea565b806350fba90d116100c857806350fba90d146101455780635471b47a14610161578063577b540b146101915780636817031b146101ad576100ea565b80631797424f146100ef578063305a67a81461010d578063312be1d814610129575b600080fd5b6100f761029d565b6040516101049190611639565b60405180910390f35b6101276004803603810190610122919061168f565b6102a3565b005b610143600480360381019061013e91906116e1565b61050e565b005b61015f600480360381019061015a9190611912565b610638565b005b61017b60048036038101906101769190611953565b610b22565b60405161018891906119a2565b60405180910390f35b6101ab60048036038101906101a691906119bd565b610b51565b005b6101c760048036038101906101c291906119bd565b610b9d565b005b6101d1610be9565b005b6101ed60048036038101906101e891906119ea565b610bfd565b005b6101f761130d565b6040516102049190611a27565b60405180910390f35b610215611336565b6040516102229190611a27565b60405180910390f35b6102456004803603810190610240919061168f565b61135c565b60405161025a99989796959493929190611b0a565b60405180910390f35b61027d600480360381019061027891906119bd565b61142c565b005b6102876114b0565b6040516102949190611a27565b60405180910390f35b60015481565b803373ffffffffffffffffffffffffffffffffffffffff166002600083815260200190815260200160002060010160009054906101000a900473ffffffffffffffffffffffffffffffffffffffff1673ffffffffffffffffffffffffffffffffffffffff1614610348576040517f08c379a000000000000000000000000000000000000000000000000000000000815260040161033f90611c1b565b60405180910390fd5b6001600381111561035c5761035b611a93565b5b6002600084815260200190815260200160002060090160019054906101000a900460ff16600381111561039257610391611a93565b5b146103d2576040517f08c379a00000000000000000000000000000000000000000000000000000000081526004016103c990611c87565b60405180910390fd5b60036002600084815260200190815260200160002060090160016101000a81548160ff0219169083600381111561040c5761040b611a93565b5b0217905550813373ffffffffffffffffffffffffffffffffffffffff167f93ec4766fcd2d9dfdceab8f2e13ba0d9d826645cf03167fdb92b3b7359b5248c60405160405180910390a36000600360006002600086815260200190815260200160002060020160009054906101000a900473ffffffffffffffffffffffffffffffffffffffff1673ffffffffffffffffffffffffffffffffffffffff1673ffffffffffffffffffffffffffffffffffffffff16815260200190815260200160002060006002600086815260200190815260200160002060030154815260200190815260200160002060006101000a81548160ff0219169083151502179055505050565b600460009054906101000a900473ffffffffffffffffffffffffffffffffffffffff1673ffffffffffffffffffffffffffffffffffffffff163373ffffffffffffffffffffffffffffffffffffffff1614806105b75750600560009054906101000a900473ffffffffffffffffffffffffffffffffffffffff1673ffffffffffffffffffffffffffffffffffffffff163373ffffffffffffffffffffffffffffffffffffffff16145b6105f6576040517f08c379a00000000000000000000000000000000000000000000000000000000081526004016105ed90611cf3565b60405180910390fd5b806002600084815260200190815260200160002060090160016101000a81548160ff0219169083600381111561062f5761062e611a93565b5b02179055505050565b813373ffffffffffffffffffffffffffffffffffffffff166002600083815260200190815260200160002060010160009054906101000a900473ffffffffffffffffffffffffffffffffffffffff1673ffffffffffffffffffffffffffffffffffffffff16146106dd576040517f08c379a00000000000000000000000000000000000000000000000000000000081526004016106d490611c1b565b60405180910390fd5b60006002600085815260200190815260200160002090506001600381111561070857610707611a93565b5b8160090160019054906101000a900460ff16600381111561072c5761072b611a93565b5b1461076c576040517f08c379a000000000000000000000000000000000000000000000000000000000815260040161076390611c87565b60405180910390fd5b60011515836000015173ffffffffffffffffffffffffffffffffffffffff1663e985e9c533600560009054906101000a900473ffffffffffffffffffffffffffffffffffffffff166040518363ffffffff1660e01b81526004016107d1929190611d13565b60206040518083038186803b1580156107e957600080fd5b505afa1580156107fd573d6000803e3d6000fd5b505050506040513d601f19601f820116820180604052508101906108219190611d51565b151514610863576040517f08c379a000000000000000000000000000000000000000000000000000000000815260040161085a90611df0565b60405180910390fd5b3373ffffffffffffffffffffffffffffffffffffffff16836000015173ffffffffffffffffffffffffffffffffffffffff16636352211e85602001516040518263ffffffff1660e01b81526004016108bb9190611639565b60206040518083038186803b1580156108d357600080fd5b505afa1580156108e7573d6000803e3d6000fd5b505050506040513d601f19601f8201168201806040525081019061090b9190611e25565b73ffffffffffffffffffffffffffffffffffffffff1614610961576040517f08c379a000000000000000000000000000000000000000000000000000000000815260040161095890611e9e565b60405180910390fd5b4283608001511015801561097c575082608001518360a00151115b6109bb576040517f08c379a00000000000000000000000000000000000000000000000000000000081526004016109b290611f0a565b60405180910390fd5b6000836040015111610a02576040517f08c379a00000000000000000000000000000000000000000000000000000000081526004016109f990611f76565b60405180910390fd5b82604001518160040181905550826080015181600601600001819055508260a0015181600601600101819055508260c001518160060160020181905550826060015181600501819055508260e001518160090160006101000a81548160ff0219169083151502179055508360026000600154815260200190815260200160002060020160009054906101000a900473ffffffffffffffffffffffffffffffffffffffff1673ffffffffffffffffffffffffffffffffffffffff163373ffffffffffffffffffffffffffffffffffffffff167fe6f8f557f1f6f6877259d22d56bfd180fe7c46439cf05872c9672237ab64f26260026000898152602001908152602001600020604051610b1491906121f7565b60405180910390a450505050565b60036020528160005260406000206020528060005260406000206000915091509054906101000a900460ff1681565b610b596114d6565b80600460006101000a81548173ffffffffffffffffffffffffffffffffffffffff021916908373ffffffffffffffffffffffffffffffffffffffff16021790555050565b610ba56114d6565b80600560006101000a81548173ffffffffffffffffffffffffffffffffffffffff021916908373ffffffffffffffffffffffffffffffffffffffff16021790555050565b610bf16114d6565b610bfb6000611554565b565b6000151560036000836000015173ffffffffffffffffffffffffffffffffffffffff1673ffffffffffffffffffffffffffffffffffffffff16815260200190815260200160002060008360200151815260200190815260200160002060009054906101000a900460ff16151514610ca9576040517f08c379a0000000000000000000000000000000000000000000000000000000008152600401610ca090612285565b60405180910390fd5b600073ffffffffffffffffffffffffffffffffffffffff16816000015173ffffffffffffffffffffffffffffffffffffffff161415610d1d576040517f08c379a0000000000000000000000000000000000000000000000000000000008152600401610d14906122f1565b60405180910390fd5b60011515816000015173ffffffffffffffffffffffffffffffffffffffff1663e985e9c533600560009054906101000a900473ffffffffffffffffffffffffffffffffffffffff166040518363ffffffff1660e01b8152600401610d82929190611d13565b60206040518083038186803b158015610d9a57600080fd5b505afa158015610dae573d6000803e3d6000fd5b505050506040513d601f19601f82011682018060405250810190610dd29190611d51565b151514610e14576040517f08c379a0000000000000000000000000000000000000000000000000000000008152600401610e0b90611df0565b60405180910390fd5b3373ffffffffffffffffffffffffffffffffffffffff16816000015173ffffffffffffffffffffffffffffffffffffffff16636352211e83602001516040518263ffffffff1660e01b8152600401610e6c9190611639565b60206040518083038186803b158015610e8457600080fd5b505afa158015610e98573d6000803e3d6000fd5b505050506040513d601f19601f82011682018060405250810190610ebc9190611e25565b73ffffffffffffffffffffffffffffffffffffffff1614610f12576040517f08c379a0000000000000000000000000000000000000000000000000000000008152600401610f0990611e9e565b60405180910390fd5b42816080015110158015610f2d575080608001518160a00151115b610f6c576040517f08c379a0000000000000000000000000000000000000000000000000000000008152600401610f6390611f0a565b60405180910390fd5b6000816040015111610fb3576040517f08c379a0000000000000000000000000000000000000000000000000000000008152600401610faa90611f76565b60405180910390fd5b620151808160c0015111610ffc576040517f08c379a0000000000000000000000000000000000000000000000000000000008152600401610ff390612383565b60405180910390fd5b60405180610120016040528060015481526020013373ffffffffffffffffffffffffffffffffffffffff168152602001826000015173ffffffffffffffffffffffffffffffffffffffff1681526020018260200151815260200182604001518152602001826060015181526020016040518060600160405280846080015181526020018460a0015181526020018460c0015181525081526020018260e0015115158152602001600160038111156110b6576110b5611a93565b5b8152506002600060015481526020019081526020016000206000820151816000015560208201518160010160006101000a81548173ffffffffffffffffffffffffffffffffffffffff021916908373ffffffffffffffffffffffffffffffffffffffff16021790555060408201518160020160006101000a81548173ffffffffffffffffffffffffffffffffffffffff021916908373ffffffffffffffffffffffffffffffffffffffff160217905550606082015181600301556080820151816004015560a0820151816005015560c082015181600601600082015181600001556020820151816001015560408201518160020155505060e08201518160090160006101000a81548160ff0219169083151502179055506101008201518160090160016101000a81548160ff021916908360038111156111f9576111f8611a93565b5b0217905550905050600160036000836000015173ffffffffffffffffffffffffffffffffffffffff1673ffffffffffffffffffffffffffffffffffffffff16815260200190815260200160002060008360200151815260200190815260200160002060006101000a81548160ff021916908315150217905550600154816000015173ffffffffffffffffffffffffffffffffffffffff163373ffffffffffffffffffffffffffffffffffffffff167f8d2ecbd96403c4556b1cff84a02f3ec0a3cfb293cdd7d8ebabfd3c5e204ef2546002600060015481526020019081526020016000206040516112ea91906121f7565b60405180910390a460016000815480929190611305906123d2565b919050555050565b60008060009054906101000a900473ffffffffffffffffffffffffffffffffffffffff16905090565b600460009054906101000a900473ffffffffffffffffffffffffffffffffffffffff1681565b60026020528060005260406000206000915090508060000154908060010160009054906101000a900473ffffffffffffffffffffffffffffffffffffffff16908060020160009054906101000a900473ffffffffffffffffffffffffffffffffffffffff1690806003015490806004015490806005015490806006016040518060600160405290816000820154815260200160018201548152602001600282015481525050908060090160009054906101000a900460ff16908060090160019054906101000a900460ff16905089565b6114346114d6565b600073ffffffffffffffffffffffffffffffffffffffff168173ffffffffffffffffffffffffffffffffffffffff1614156114a4576040517f08c379a000000000000000000000000000000000000000000000000000000000815260040161149b9061248d565b60405180910390fd5b6114ad81611554565b50565b600560009054906101000a900473ffffffffffffffffffffffffffffffffffffffff1681565b6114de611618565b73ffffffffffffffffffffffffffffffffffffffff166114fc61130d565b73ffffffffffffffffffffffffffffffffffffffff1614611552576040517f08c379a0000000000000000000000000000000000000000000000000000000008152600401611549906124f9565b60405180910390fd5b565b60008060009054906101000a900473ffffffffffffffffffffffffffffffffffffffff169050816000806101000a81548173ffffffffffffffffffffffffffffffffffffffff021916908373ffffffffffffffffffffffffffffffffffffffff1602179055508173ffffffffffffffffffffffffffffffffffffffff168173ffffffffffffffffffffffffffffffffffffffff167f8be0079c531659141344cd1fd0a4f28419497f9722a3daafe3b4186f6b6457e060405160405180910390a35050565b600033905090565b6000819050919050565b61163381611620565b82525050565b600060208201905061164e600083018461162a565b92915050565b6000604051905090565b600080fd5b61166c81611620565b811461167757600080fd5b50565b60008135905061168981611663565b92915050565b6000602082840312156116a5576116a461165e565b5b60006116b38482850161167a565b91505092915050565b600481106116c957600080fd5b50565b6000813590506116db816116bc565b92915050565b600080604083850312156116f8576116f761165e565b5b60006117068582860161167a565b9250506020611717858286016116cc565b9150509250929050565b600080fd5b6000601f19601f8301169050919050565b7f4e487b7100000000000000000000000000000000000000000000000000000000600052604160045260246000fd5b61176f82611726565b810181811067ffffffffffffffff8211171561178e5761178d611737565b5b80604052505050565b60006117a1611654565b90506117ad8282611766565b919050565b600073ffffffffffffffffffffffffffffffffffffffff82169050919050565b60006117dd826117b2565b9050919050565b6117ed816117d2565b81146117f857600080fd5b50565b60008135905061180a816117e4565b92915050565b60008115159050919050565b61182581611810565b811461183057600080fd5b50565b6000813590506118428161181c565b92915050565b6000610100828403121561185f5761185e611721565b5b61186a610100611797565b9050600061187a848285016117fb565b600083015250602061188e8482850161167a565b60208301525060406118a28482850161167a565b60408301525060606118b68482850161167a565b60608301525060806118ca8482850161167a565b60808301525060a06118de8482850161167a565b60a08301525060c06118f28482850161167a565b60c08301525060e061190684828501611833565b60e08301525092915050565b600080610120838503121561192a5761192961165e565b5b60006119388582860161167a565b925050602061194985828601611848565b9150509250929050565b6000806040838503121561196a5761196961165e565b5b6000611978858286016117fb565b92505060206119898582860161167a565b9150509250929050565b61199c81611810565b82525050565b60006020820190506119b76000830184611993565b92915050565b6000602082840312156119d3576119d261165e565b5b60006119e1848285016117fb565b91505092915050565b60006101008284031215611a0157611a0061165e565b5b6000611a0f84828501611848565b91505092915050565b611a21816117d2565b82525050565b6000602082019050611a3c6000830184611a18565b92915050565b611a4b81611620565b82525050565b606082016000820151611a676000850182611a42565b506020820151611a7a6020850182611a42565b506040820151611a8d6040850182611a42565b50505050565b7f4e487b7100000000000000000000000000000000000000000000000000000000600052602160045260246000fd5b60048110611ad357611ad2611a93565b5b50565b6000819050611ae482611ac2565b919050565b6000611af482611ad6565b9050919050565b611b0481611ae9565b82525050565b600061016082019050611b20600083018c61162a565b611b2d602083018b611a18565b611b3a604083018a611a18565b611b47606083018961162a565b611b54608083018861162a565b611b6160a083018761162a565b611b6e60c0830186611a51565b611b7c610120830185611993565b611b8a610140830184611afb565b9a9950505050505050505050565b600082825260208201905092915050565b7f4572726f723a20796f7520617265206e6f7420746865206f776e6572206f662060008201527f746865206c697374696e67000000000000000000000000000000000000000000602082015250565b6000611c05602b83611b98565b9150611c1082611ba9565b604082019050919050565b60006020820190508181036000830152611c3481611bf8565b9050919050565b7f4c697374696e6720697320696e76616c69640000000000000000000000000000600082015250565b6000611c71601283611b98565b9150611c7c82611c3b565b602082019050919050565b60006020820190508181036000830152611ca081611c64565b9050919050565b7f4f6e6c792063616c6c65642062792070726f746f636f6c650000000000000000600082015250565b6000611cdd601883611b98565b9150611ce882611ca7565b602082019050919050565b60006020820190508181036000830152611d0c81611cd0565b9050919050565b6000604082019050611d286000830185611a18565b611d356020830184611a18565b9392505050565b600081519050611d4b8161181c565b92915050565b600060208284031215611d6757611d6661165e565b5b6000611d7584828501611d3c565b91505092915050565b7f5661756c7420636f6e7472616374206973206e6f7420617070726f766564207460008201527f6f207472616e736665722074686973206e667400000000000000000000000000602082015250565b6000611dda603383611b98565b9150611de582611d7e565b604082019050919050565b60006020820190508181036000830152611e0981611dcd565b9050919050565b600081519050611e1f816117e4565b92915050565b600060208284031215611e3b57611e3a61165e565b5b6000611e4984828501611e10565b91505092915050565b7f596f7520617265206e6f7420746865206f776e6572206f6620746865206e6674600082015250565b6000611e88602083611b98565b9150611e9382611e52565b602082019050919050565b60006020820190508181036000830152611eb781611e7b565b9050919050565b7f496e76616c696420656e642074696d657374616d700000000000000000000000600082015250565b6000611ef4601583611b98565b9150611eff82611ebe565b602082019050919050565b60006020820190508181036000830152611f2381611ee7565b9050919050565b7f43616e277420616363657074203020636f6c6c61746572616c00000000000000600082015250565b6000611f60601983611b98565b9150611f6b82611f2a565b602082019050919050565b60006020820190508181036000830152611f8f81611f53565b9050919050565b60008160001c9050919050565b6000819050919050565b6000611fc0611fbb83611f96565b611fa3565b9050919050565b600073ffffffffffffffffffffffffffffffffffffffff82169050919050565b6000611ffa611ff583611f96565b611fc7565b9050919050565b61200a816117d2565b82525050565b60608201600080830154905061202581611fad565b6120326000860182611a42565b506001830154905061204381611fad565b6120506020860182611a42565b506002830154905061206181611fad565b61206e6040860182611a42565b5050505050565b600060ff82169050919050565b600061209561209083611f96565b612075565b9050919050565b6120a581611810565b82525050565b60008160081c9050919050565b600060ff82169050919050565b60006120d86120d3836120ab565b6120b8565b9050919050565b6120e881611ae9565b82525050565b6101608201600080830154905061210481611fad565b6121116000860182611a42565b506001830154905061212281611fe7565b61212f6020860182612001565b506002830154905061214081611fe7565b61214d6040860182612001565b506003830154905061215e81611fad565b61216b6060860182611a42565b506004830154905061217c81611fad565b6121896080860182611a42565b506005830154905061219a81611fad565b6121a760a0860182611a42565b50600683016121b960c0860182612010565b50600983015490506121ca81612082565b6121d861012086018261209c565b506121e2816120c5565b6121f06101408601826120df565b5050505050565b60006101608201905061220d60008301846120ee565b92915050565b7f43616e206e6f74206372656174652032206c697374696e6773206f662073616d60008201527f65204e4654000000000000000000000000000000000000000000000000000000602082015250565b600061226f602583611b98565b915061227a82612213565b604082019050919050565b6000602082019050818103600083015261229e81612262565b9050919050565b7f496e76616c6964206e667420636f6e7472616374206164647265737300000000600082015250565b60006122db601c83611b98565b91506122e6826122a5565b602082019050919050565b6000602082019050818103600083015261230a816122ce565b9050919050565b7f4475726174696f6e2063616e2774206265206c657373207468616e206f6e652060008201527f6461790000000000000000000000000000000000000000000000000000000000602082015250565b600061236d602383611b98565b915061237882612311565b604082019050919050565b6000602082019050818103600083015261239c81612360565b9050919050565b7f4e487b7100000000000000000000000000000000000000000000000000000000600052601160045260246000fd5b60006123dd82611620565b91507fffffffffffffffffffffffffffffffffffffffffffffffffffffffffffffffff8214156124105761240f6123a3565b5b600182019050919050565b7f4f776e61626c653a206e6577206f776e657220697320746865207a65726f206160008201527f6464726573730000000000000000000000000000000000000000000000000000602082015250565b6000612477602683611b98565b91506124828261241b565b604082019050919050565b600060208201905081810360008301526124a68161246a565b9050919050565b7f4f776e61626c653a2063616c6c6572206973206e6f7420746865206f776e6572600082015250565b60006124e3602083611b98565b91506124ee826124ad565b602082019050919050565b60006020820190508181036000830152612512816124d6565b905091905056fea2646970667358221220287148b8c30921bb2317f78fc80ac335bb1112013551b370eabd037aec9b8e3564736f6c63430008090033",
  "devdoc": {
    "kind": "dev",
    "methods": {
      "cancelListing(uint256)": {
        "details": "Cancel a listing Note that the owner of the listing is checked with the modifier onlyListingOwner",
        "params": {
          "_listingId": "Id of the listing"
        }
      },
      "createListing((address,uint256,uint256,uint256,uint256,uint256,uint256,bool))": {
        "details": "Create a listing on the protocol. The NFT is not transfered in the Vault at this steps.",
        "params": {
          "_listingParameters": "all the details needed for the listing like the token id, the token address, etc."
        }
      },
      "owner()": {
        "details": "Returns the address of the current owner."
      },
      "renounceOwnership()": {
        "details": "Leaves the contract without owner. It will not be possible to call `onlyOwner` functions. Can only be called by the current owner. NOTE: Renouncing ownership will leave the contract without an owner, thereby disabling any functionality that is only available to the owner."
      },
      "setListingStatus(uint256,uint8)": {
        "details": "Allow the others contracts of the protocol to modify a listing ",
        "params": {
          "_listingId": "Id of the listing",
          "_status": "Status to set the listing to"
        }
      },
      "transferOwnership(address)": {
        "details": "Transfers ownership of the contract to a new account (`newOwner`). Can only be called by the current owner."
      },
      "updateListing(uint256,(address,uint256,uint256,uint256,uint256,uint256,uint256,bool))": {
        "details": "Update the listing, you can only update the collateralAmount, start & end timestamp, pricePerDay and the comment Note that the owner of the listing is checked with the modifier onlyListingOwner",
        "params": {
          "_listingId": "Id of the listing",
          "_listingParameters": "all the details needed for the listing like the token id, the token address, etc."
        }
      }
    },
    "version": 1
  },
  "userdoc": {
    "kind": "user",
    "methods": {},
    "version": 1
  },
  "storageLayout": {
    "storage": [
      {
        "astId": 7,
        "contract": "contracts/ListingManager.sol:ListingManager",
        "label": "_owner",
        "offset": 0,
        "slot": "0",
        "type": "t_address"
      },
      {
        "astId": 3957,
        "contract": "contracts/ListingManager.sol:ListingManager",
        "label": "totalNumListing",
        "offset": 0,
        "slot": "1",
        "type": "t_uint256"
      },
      {
        "astId": 3962,
        "contract": "contracts/ListingManager.sol:ListingManager",
        "label": "listings",
        "offset": 0,
        "slot": "2",
        "type": "t_mapping(t_uint256,t_struct(Listing)3954_storage)"
      },
      {
        "astId": 3968,
        "contract": "contracts/ListingManager.sol:ListingManager",
        "label": "isTokenListed",
        "offset": 0,
        "slot": "3",
        "type": "t_mapping(t_address,t_mapping(t_uint256,t_bool))"
      },
      {
        "astId": 3970,
        "contract": "contracts/ListingManager.sol:ListingManager",
        "label": "rentalManager",
        "offset": 0,
        "slot": "4",
        "type": "t_address"
      },
      {
        "astId": 3972,
        "contract": "contracts/ListingManager.sol:ListingManager",
        "label": "vault",
        "offset": 0,
        "slot": "5",
        "type": "t_address"
      }
    ],
    "types": {
      "t_address": {
        "encoding": "inplace",
        "label": "address",
        "numberOfBytes": "20"
      },
      "t_bool": {
        "encoding": "inplace",
        "label": "bool",
        "numberOfBytes": "1"
      },
      "t_enum(ListingStatus)3909": {
        "encoding": "inplace",
        "label": "enum ListingManager.ListingStatus",
        "numberOfBytes": "1"
      },
      "t_mapping(t_address,t_mapping(t_uint256,t_bool))": {
        "encoding": "mapping",
        "key": "t_address",
        "label": "mapping(address => mapping(uint256 => bool))",
        "numberOfBytes": "32",
        "value": "t_mapping(t_uint256,t_bool)"
      },
      "t_mapping(t_uint256,t_bool)": {
        "encoding": "mapping",
        "key": "t_uint256",
        "label": "mapping(uint256 => bool)",
        "numberOfBytes": "32",
        "value": "t_bool"
      },
      "t_mapping(t_uint256,t_struct(Listing)3954_storage)": {
        "encoding": "mapping",
        "key": "t_uint256",
        "label": "mapping(uint256 => struct ListingManager.Listing)",
        "numberOfBytes": "32",
        "value": "t_struct(Listing)3954_storage"
      },
      "t_struct(Listing)3954_storage": {
        "encoding": "inplace",
        "label": "struct ListingManager.Listing",
        "members": [
          {
            "astId": 3935,
            "contract": "contracts/ListingManager.sol:ListingManager",
            "label": "listingId",
            "offset": 0,
            "slot": "0",
            "type": "t_uint256"
          },
          {
            "astId": 3937,
            "contract": "contracts/ListingManager.sol:ListingManager",
            "label": "listingCreator",
            "offset": 0,
            "slot": "1",
            "type": "t_address"
          },
          {
            "astId": 3939,
            "contract": "contracts/ListingManager.sol:ListingManager",
            "label": "assetContract",
            "offset": 0,
            "slot": "2",
            "type": "t_address"
          },
          {
            "astId": 3941,
            "contract": "contracts/ListingManager.sol:ListingManager",
            "label": "tokenId",
            "offset": 0,
            "slot": "3",
            "type": "t_uint256"
          },
          {
            "astId": 3943,
            "contract": "contracts/ListingManager.sol:ListingManager",
            "label": "collateralAmount",
            "offset": 0,
            "slot": "4",
            "type": "t_uint256"
          },
          {
            "astId": 3945,
            "contract": "contracts/ListingManager.sol:ListingManager",
            "label": "pricePerDay",
            "offset": 0,
            "slot": "5",
            "type": "t_uint256"
          },
          {
            "astId": 3948,
            "contract": "contracts/ListingManager.sol:ListingManager",
            "label": "listingTime",
            "offset": 0,
            "slot": "6",
            "type": "t_struct(ListingTime)3933_storage"
          },
          {
            "astId": 3950,
            "contract": "contracts/ListingManager.sol:ListingManager",
            "label": "isProRated",
            "offset": 0,
            "slot": "9",
            "type": "t_bool"
          },
          {
            "astId": 3953,
            "contract": "contracts/ListingManager.sol:ListingManager",
            "label": "status",
            "offset": 1,
            "slot": "9",
            "type": "t_enum(ListingStatus)3909"
          }
        ],
        "numberOfBytes": "320"
      },
      "t_struct(ListingTime)3933_storage": {
        "encoding": "inplace",
        "label": "struct ListingManager.ListingTime",
        "members": [
          {
            "astId": 3928,
            "contract": "contracts/ListingManager.sol:ListingManager",
            "label": "startTimestamp",
            "offset": 0,
            "slot": "0",
            "type": "t_uint256"
          },
          {
            "astId": 3930,
            "contract": "contracts/ListingManager.sol:ListingManager",
            "label": "endTimestamp",
            "offset": 0,
            "slot": "1",
            "type": "t_uint256"
          },
          {
            "astId": 3932,
            "contract": "contracts/ListingManager.sol:ListingManager",
            "label": "duration",
            "offset": 0,
            "slot": "2",
            "type": "t_uint256"
          }
        ],
        "numberOfBytes": "96"
      },
      "t_uint256": {
        "encoding": "inplace",
        "label": "uint256",
        "numberOfBytes": "32"
      }
    }
  }
}