{
  "address": "0x0165878A594ca255338adfa4d48449f69242Eb8F",
  "abi": [
    {
      "inputs": [],
      "stateMutability": "nonpayable",
      "type": "constructor"
    },
    {
      "anonymous": false,
      "inputs": [
        {
          "indexed": true,
          "internalType": "address",
          "name": "listingCreator",
          "type": "address"
        },
        {
          "indexed": true,
          "internalType": "uint256",
          "name": "listingId",
          "type": "uint256"
        }
      ],
      "name": "ListingCancelled",
      "type": "event"
    },
    {
      "anonymous": false,
      "inputs": [
        {
          "indexed": true,
          "internalType": "address",
          "name": "listingCreator",
          "type": "address"
        },
        {
          "indexed": true,
          "internalType": "address",
          "name": "assetContract",
          "type": "address"
        },
        {
          "indexed": true,
          "internalType": "uint256",
          "name": "listingId",
          "type": "uint256"
        },
        {
          "components": [
            {
              "internalType": "uint256",
              "name": "listingId",
              "type": "uint256"
            },
            {
              "internalType": "address",
              "name": "listingCreator",
              "type": "address"
            },
            {
              "internalType": "address",
              "name": "assetContract",
              "type": "address"
            },
            {
              "internalType": "uint256",
              "name": "tokenId",
              "type": "uint256"
            },
            {
              "internalType": "uint256",
              "name": "collateralAmount",
              "type": "uint256"
            },
            {
              "internalType": "uint256",
              "name": "startTimestamp",
              "type": "uint256"
            },
            {
              "internalType": "uint256",
              "name": "endTimestamp",
              "type": "uint256"
            },
            {
              "internalType": "uint256",
              "name": "pricePerDay",
              "type": "uint256"
            },
            {
              "internalType": "string",
              "name": "comment",
              "type": "string"
            },
            {
              "internalType": "enum ListingManager.ListingStatus",
              "name": "status",
              "type": "uint8"
            }
          ],
          "indexed": false,
          "internalType": "struct ListingManager.Listing",
          "name": "listing",
          "type": "tuple"
        }
      ],
      "name": "ListingCreated",
      "type": "event"
    },
    {
      "anonymous": false,
      "inputs": [
        {
          "indexed": true,
          "internalType": "address",
          "name": "listingCreator",
          "type": "address"
        },
        {
          "indexed": true,
          "internalType": "address",
          "name": "assetContract",
          "type": "address"
        },
        {
          "indexed": true,
          "internalType": "uint256",
          "name": "listingId",
          "type": "uint256"
        },
        {
          "components": [
            {
              "internalType": "uint256",
              "name": "listingId",
              "type": "uint256"
            },
            {
              "internalType": "address",
              "name": "listingCreator",
              "type": "address"
            },
            {
              "internalType": "address",
              "name": "assetContract",
              "type": "address"
            },
            {
              "internalType": "uint256",
              "name": "tokenId",
              "type": "uint256"
            },
            {
              "internalType": "uint256",
              "name": "collateralAmount",
              "type": "uint256"
            },
            {
              "internalType": "uint256",
              "name": "startTimestamp",
              "type": "uint256"
            },
            {
              "internalType": "uint256",
              "name": "endTimestamp",
              "type": "uint256"
            },
            {
              "internalType": "uint256",
              "name": "pricePerDay",
              "type": "uint256"
            },
            {
              "internalType": "string",
              "name": "comment",
              "type": "string"
            },
            {
              "internalType": "enum ListingManager.ListingStatus",
              "name": "status",
              "type": "uint8"
            }
          ],
          "indexed": false,
          "internalType": "struct ListingManager.Listing",
          "name": "listing",
          "type": "tuple"
        }
      ],
      "name": "ListingUpdated",
      "type": "event"
    },
    {
      "anonymous": false,
      "inputs": [
        {
          "indexed": true,
          "internalType": "address",
          "name": "previousOwner",
          "type": "address"
        },
        {
          "indexed": true,
          "internalType": "address",
          "name": "newOwner",
          "type": "address"
        }
      ],
      "name": "OwnershipTransferred",
      "type": "event"
    },
    {
      "inputs": [
        {
          "internalType": "uint256",
          "name": "_listingId",
          "type": "uint256"
        }
      ],
      "name": "cancelListing",
      "outputs": [],
      "stateMutability": "nonpayable",
      "type": "function"
    },
    {
      "inputs": [
        {
          "components": [
            {
              "internalType": "address",
              "name": "assetContract",
              "type": "address"
            },
            {
              "internalType": "uint256",
              "name": "tokenId",
              "type": "uint256"
            },
            {
              "internalType": "uint256",
              "name": "collateralAmount",
              "type": "uint256"
            },
            {
              "internalType": "uint256",
              "name": "startTimestamp",
              "type": "uint256"
            },
            {
              "internalType": "uint256",
              "name": "endTimestamp",
              "type": "uint256"
            },
            {
              "internalType": "uint256",
              "name": "pricePerDay",
              "type": "uint256"
            },
            {
              "internalType": "string",
              "name": "comment",
              "type": "string"
            }
          ],
          "internalType": "struct ListingManager.ListingParameters",
          "name": "_listingParameters",
          "type": "tuple"
        }
      ],
      "name": "createListing",
      "outputs": [],
      "stateMutability": "nonpayable",
      "type": "function"
    },
    {
      "inputs": [],
      "name": "escrow",
      "outputs": [
        {
          "internalType": "address",
          "name": "",
          "type": "address"
        }
      ],
      "stateMutability": "view",
      "type": "function"
    },
    {
      "inputs": [
        {
          "internalType": "address",
          "name": "",
          "type": "address"
        },
        {
          "internalType": "uint256",
          "name": "",
          "type": "uint256"
        }
      ],
      "name": "isTokenListed",
      "outputs": [
        {
          "internalType": "bool",
          "name": "",
          "type": "bool"
        }
      ],
      "stateMutability": "view",
      "type": "function"
    },
    {
      "inputs": [
        {
          "internalType": "uint256",
          "name": "",
          "type": "uint256"
        }
      ],
      "name": "listingIdToListing",
      "outputs": [
        {
          "internalType": "uint256",
          "name": "listingId",
          "type": "uint256"
        },
        {
          "internalType": "address",
          "name": "listingCreator",
          "type": "address"
        },
        {
          "internalType": "address",
          "name": "assetContract",
          "type": "address"
        },
        {
          "internalType": "uint256",
          "name": "tokenId",
          "type": "uint256"
        },
        {
          "internalType": "uint256",
          "name": "collateralAmount",
          "type": "uint256"
        },
        {
          "internalType": "uint256",
          "name": "startTimestamp",
          "type": "uint256"
        },
        {
          "internalType": "uint256",
          "name": "endTimestamp",
          "type": "uint256"
        },
        {
          "internalType": "uint256",
          "name": "pricePerDay",
          "type": "uint256"
        },
        {
          "internalType": "string",
          "name": "comment",
          "type": "string"
        },
        {
          "internalType": "enum ListingManager.ListingStatus",
          "name": "status",
          "type": "uint8"
        }
      ],
      "stateMutability": "view",
      "type": "function"
    },
    {
      "inputs": [],
      "name": "owner",
      "outputs": [
        {
          "internalType": "address",
          "name": "",
          "type": "address"
        }
      ],
      "stateMutability": "view",
      "type": "function"
    },
    {
      "inputs": [],
      "name": "proposalManager",
      "outputs": [
        {
          "internalType": "address",
          "name": "",
          "type": "address"
        }
      ],
      "stateMutability": "view",
      "type": "function"
    },
    {
      "inputs": [],
      "name": "renounceOwnership",
      "outputs": [],
      "stateMutability": "nonpayable",
      "type": "function"
    },
    {
      "inputs": [],
      "name": "rentalManager",
      "outputs": [
        {
          "internalType": "address",
          "name": "",
          "type": "address"
        }
      ],
      "stateMutability": "view",
      "type": "function"
    },
    {
      "inputs": [
        {
          "internalType": "address",
          "name": "_escrow",
          "type": "address"
        }
      ],
      "name": "setEscrow",
      "outputs": [],
      "stateMutability": "nonpayable",
      "type": "function"
    },
    {
      "inputs": [
        {
          "internalType": "uint256",
          "name": "_listingId",
          "type": "uint256"
        },
        {
          "internalType": "enum ListingManager.ListingStatus",
          "name": "_status",
          "type": "uint8"
        }
      ],
      "name": "setListingStatus",
      "outputs": [],
      "stateMutability": "nonpayable",
      "type": "function"
    },
    {
      "inputs": [
        {
          "internalType": "address",
          "name": "_proposalManager",
          "type": "address"
        }
      ],
      "name": "setProposalManager",
      "outputs": [],
      "stateMutability": "nonpayable",
      "type": "function"
    },
    {
      "inputs": [
        {
          "internalType": "address",
          "name": "_rentalManager",
          "type": "address"
        }
      ],
      "name": "setRentalManager",
      "outputs": [],
      "stateMutability": "nonpayable",
      "type": "function"
    },
    {
      "inputs": [],
      "name": "totalNumListing",
      "outputs": [
        {
          "internalType": "uint256",
          "name": "",
          "type": "uint256"
        }
      ],
      "stateMutability": "view",
      "type": "function"
    },
    {
      "inputs": [
        {
          "internalType": "address",
          "name": "newOwner",
          "type": "address"
        }
      ],
      "name": "transferOwnership",
      "outputs": [],
      "stateMutability": "nonpayable",
      "type": "function"
    },
    {
      "inputs": [
        {
          "internalType": "uint256",
          "name": "_listingId",
          "type": "uint256"
        },
        {
          "components": [
            {
              "internalType": "address",
              "name": "assetContract",
              "type": "address"
            },
            {
              "internalType": "uint256",
              "name": "tokenId",
              "type": "uint256"
            },
            {
              "internalType": "uint256",
              "name": "collateralAmount",
              "type": "uint256"
            },
            {
              "internalType": "uint256",
              "name": "startTimestamp",
              "type": "uint256"
            },
            {
              "internalType": "uint256",
              "name": "endTimestamp",
              "type": "uint256"
            },
            {
              "internalType": "uint256",
              "name": "pricePerDay",
              "type": "uint256"
            },
            {
              "internalType": "string",
              "name": "comment",
              "type": "string"
            }
          ],
          "internalType": "struct ListingManager.ListingParameters",
          "name": "_listingParameters",
          "type": "tuple"
        }
      ],
      "name": "updateListing",
      "outputs": [],
      "stateMutability": "nonpayable",
      "type": "function"
    }
  ],
  "transactionHash": "0x6cd448c6e63f7c47198210af4a7af80126cd9ed3c047afaaa5201c48f6b23c81",
  "args": [],
  "numDeployments": 1,
  "solcInputHash": "8aecf0e6811080796d8b5b963212a5d4",
  "bytecode": "0x608060405260006001553480156200001657600080fd5b50620000376200002b6200003d60201b60201c565b6200004560201b60201c565b62000109565b600033905090565b60008060009054906101000a900473ffffffffffffffffffffffffffffffffffffffff169050816000806101000a81548173ffffffffffffffffffffffffffffffffffffffff021916908373ffffffffffffffffffffffffffffffffffffffff1602179055508173ffffffffffffffffffffffffffffffffffffffff168173ffffffffffffffffffffffffffffffffffffffff167f8be0079c531659141344cd1fd0a4f28419497f9722a3daafe3b4186f6b6457e060405160405180910390a35050565b61280880620001196000396000f3fe608060405234801561001057600080fd5b50600436106101005760003560e01c8063577b540b11610097578063c10c354611610066578063c10c35461461027a578063c278cff614610296578063e2fdcc17146102b4578063f2fde38b146102d257610100565b8063577b540b1461021a5780635cef5b2214610236578063715018a6146102525780638da5cb5b1461025c57610100565b8063295866f5116100d3578063295866f514610179578063305a67a8146101b2578063312be1d8146101ce5780635471b47a146101ea57610100565b806302f89be21461010557806311236a5a146101235780631797424f1461013f57806325023f0b1461015d575b600080fd5b61010d6102ee565b60405161011a91906117df565b60405180910390f35b61013d60048036038101906101389190611a90565b610314565b005b6101476109a9565b6040516101549190611ae8565b60405180910390f35b61017760048036038101906101729190611b03565b6109af565b005b610193600480360381019061018e9190611b30565b6109fb565b6040516101a99a99989796959493929190611c5c565b60405180910390f35b6101cc60048036038101906101c79190611b30565b610b24565b005b6101e860048036038101906101e39190611d24565b610d8f565b005b61020460048036038101906101ff9190611d64565b610eb9565b6040516102119190611dbf565b60405180910390f35b610234600480360381019061022f9190611b03565b610ee8565b005b610250600480360381019061024b9190611dda565b610f34565b005b61025a611458565b005b61026461146c565b60405161027191906117df565b60405180910390f35b610294600480360381019061028f9190611b03565b611495565b005b61029e6114e1565b6040516102ab91906117df565b60405180910390f35b6102bc611507565b6040516102c991906117df565b60405180910390f35b6102ec60048036038101906102e79190611b03565b61152d565b005b600560009054906101000a900473ffffffffffffffffffffffffffffffffffffffff1681565b6000151560036000836000015173ffffffffffffffffffffffffffffffffffffffff1673ffffffffffffffffffffffffffffffffffffffff16815260200190815260200160002060008360200151815260200190815260200160002060009054906101000a900460ff161515146103c0576040517f08c379a00000000000000000000000000000000000000000000000000000000081526004016103b790611ea8565b60405180910390fd5b600073ffffffffffffffffffffffffffffffffffffffff16816000015173ffffffffffffffffffffffffffffffffffffffff161415610434576040517f08c379a000000000000000000000000000000000000000000000000000000000815260040161042b90611f14565b60405180910390fd5b60011515816000015173ffffffffffffffffffffffffffffffffffffffff1663e985e9c533600660009054906101000a900473ffffffffffffffffffffffffffffffffffffffff166040518363ffffffff1660e01b8152600401610499929190611f34565b60206040518083038186803b1580156104b157600080fd5b505afa1580156104c5573d6000803e3d6000fd5b505050506040513d601f19601f820116820180604052508101906104e99190611f89565b15151461052b576040517f08c379a000000000000000000000000000000000000000000000000000000000815260040161052290612028565b60405180910390fd5b3373ffffffffffffffffffffffffffffffffffffffff16816000015173ffffffffffffffffffffffffffffffffffffffff16636352211e83602001516040518263ffffffff1660e01b81526004016105839190611ae8565b60206040518083038186803b15801561059b57600080fd5b505afa1580156105af573d6000803e3d6000fd5b505050506040513d601f19601f820116820180604052508101906105d3919061205d565b73ffffffffffffffffffffffffffffffffffffffff1614610629576040517f08c379a0000000000000000000000000000000000000000000000000000000008152600401610620906120d6565b60405180910390fd5b428160800151118015610643575080606001518160800151115b610682576040517f08c379a000000000000000000000000000000000000000000000000000000000815260040161067990612142565b60405180910390fd5b60008160400151116106c9576040517f08c379a00000000000000000000000000000000000000000000000000000000081526004016106c0906121ae565b60405180910390fd5b60405180610140016040528060015481526020013373ffffffffffffffffffffffffffffffffffffffff168152602001826000015173ffffffffffffffffffffffffffffffffffffffff168152602001826020015181526020018260400151815260200182606001518152602001826080015181526020018260a0015181526020018260c0015181526020016001600381111561076957610768611be5565b5b8152506002600060015481526020019081526020016000206000820151816000015560208201518160010160006101000a81548173ffffffffffffffffffffffffffffffffffffffff021916908373ffffffffffffffffffffffffffffffffffffffff16021790555060408201518160020160006101000a81548173ffffffffffffffffffffffffffffffffffffffff021916908373ffffffffffffffffffffffffffffffffffffffff160217905550606082015181600301556080820151816004015560a0820151816005015560c0820151816006015560e082015181600701556101008201518160080190805190602001906108689291906116fb565b506101208201518160090160006101000a81548160ff0219169083600381111561089557610894611be5565b5b0217905550905050600160036000836000015173ffffffffffffffffffffffffffffffffffffffff1673ffffffffffffffffffffffffffffffffffffffff16815260200190815260200160002060008360200151815260200190815260200160002060006101000a81548160ff021916908315150217905550600154816000015173ffffffffffffffffffffffffffffffffffffffff163373ffffffffffffffffffffffffffffffffffffffff167f5361cc90725afa236312231fb966e5d56414bb3b4856a5f2f2f0661f6c0f0bda60026000600154815260200190815260200160002060405161098691906124d0565b60405180910390a4600160008154809291906109a190612521565b919050555050565b60015481565b6109b76115b1565b80600560006101000a81548173ffffffffffffffffffffffffffffffffffffffff021916908373ffffffffffffffffffffffffffffffffffffffff16021790555050565b60026020528060005260406000206000915090508060000154908060010160009054906101000a900473ffffffffffffffffffffffffffffffffffffffff16908060020160009054906101000a900473ffffffffffffffffffffffffffffffffffffffff1690806003015490806004015490806005015490806006015490806007015490806008018054610a8e90612286565b80601f0160208091040260200160405190810160405280929190818152602001828054610aba90612286565b8015610b075780601f10610adc57610100808354040283529160200191610b07565b820191906000526020600020905b815481529060010190602001808311610aea57829003601f168201915b5050505050908060090160009054906101000a900460ff1690508a565b803373ffffffffffffffffffffffffffffffffffffffff166002600083815260200190815260200160002060010160009054906101000a900473ffffffffffffffffffffffffffffffffffffffff1673ffffffffffffffffffffffffffffffffffffffff1614610bc9576040517f08c379a0000000000000000000000000000000000000000000000000000000008152600401610bc0906125dc565b60405180910390fd5b60016003811115610bdd57610bdc611be5565b5b6002600084815260200190815260200160002060090160009054906101000a900460ff166003811115610c1357610c12611be5565b5b14610c53576040517f08c379a0000000000000000000000000000000000000000000000000000000008152600401610c4a90612648565b60405180910390fd5b60036002600084815260200190815260200160002060090160006101000a81548160ff02191690836003811115610c8d57610c8c611be5565b5b0217905550813373ffffffffffffffffffffffffffffffffffffffff167f93ec4766fcd2d9dfdceab8f2e13ba0d9d826645cf03167fdb92b3b7359b5248c60405160405180910390a36000600360006002600086815260200190815260200160002060020160009054906101000a900473ffffffffffffffffffffffffffffffffffffffff1673ffffffffffffffffffffffffffffffffffffffff1673ffffffffffffffffffffffffffffffffffffffff16815260200190815260200160002060006002600086815260200190815260200160002060030154815260200190815260200160002060006101000a81548160ff0219169083151502179055505050565b600560009054906101000a900473ffffffffffffffffffffffffffffffffffffffff1673ffffffffffffffffffffffffffffffffffffffff163373ffffffffffffffffffffffffffffffffffffffff161480610e385750600460009054906101000a900473ffffffffffffffffffffffffffffffffffffffff1673ffffffffffffffffffffffffffffffffffffffff163373ffffffffffffffffffffffffffffffffffffffff16145b610e77576040517f08c379a0000000000000000000000000000000000000000000000000000000008152600401610e6e906126b4565b60405180910390fd5b806002600084815260200190815260200160002060090160006101000a81548160ff02191690836003811115610eb057610eaf611be5565b5b02179055505050565b60036020528160005260406000206020528060005260406000206000915091509054906101000a900460ff1681565b610ef06115b1565b80600460006101000a81548173ffffffffffffffffffffffffffffffffffffffff021916908373ffffffffffffffffffffffffffffffffffffffff16021790555050565b813373ffffffffffffffffffffffffffffffffffffffff166002600083815260200190815260200160002060010160009054906101000a900473ffffffffffffffffffffffffffffffffffffffff1673ffffffffffffffffffffffffffffffffffffffff1614610fd9576040517f08c379a0000000000000000000000000000000000000000000000000000000008152600401610fd0906125dc565b60405180910390fd5b60016003811115610fed57610fec611be5565b5b6002600085815260200190815260200160002060090160009054906101000a900460ff16600381111561102357611022611be5565b5b14611063576040517f08c379a000000000000000000000000000000000000000000000000000000000815260040161105a90612648565b60405180910390fd5b60011515826000015173ffffffffffffffffffffffffffffffffffffffff1663e985e9c533600660009054906101000a900473ffffffffffffffffffffffffffffffffffffffff166040518363ffffffff1660e01b81526004016110c8929190611f34565b60206040518083038186803b1580156110e057600080fd5b505afa1580156110f4573d6000803e3d6000fd5b505050506040513d601f19601f820116820180604052508101906111189190611f89565b15151461115a576040517f08c379a000000000000000000000000000000000000000000000000000000000815260040161115190612028565b60405180910390fd5b3373ffffffffffffffffffffffffffffffffffffffff16826000015173ffffffffffffffffffffffffffffffffffffffff16636352211e84602001516040518263ffffffff1660e01b81526004016111b29190611ae8565b60206040518083038186803b1580156111ca57600080fd5b505afa1580156111de573d6000803e3d6000fd5b505050506040513d601f19601f82011682018060405250810190611202919061205d565b73ffffffffffffffffffffffffffffffffffffffff1614611258576040517f08c379a000000000000000000000000000000000000000000000000000000000815260040161124f906120d6565b60405180910390fd5b428260800151118015611272575081606001518260800151115b6112b1576040517f08c379a00000000000000000000000000000000000000000000000000000000081526004016112a890612142565b60405180910390fd5b60008260400151116112f8576040517f08c379a00000000000000000000000000000000000000000000000000000000081526004016112ef906121ae565b60405180910390fd5b8160400151600260008581526020019081526020016000206004018190555081606001516002600085815260200190815260200160002060050181905550816080015160026000858152602001908152602001600020600601819055508160a0015160026000858152602001908152602001600020600701819055508160c001516002600085815260200190815260200160002060080190805190602001906113a29291906116fb565b508260026000600154815260200190815260200160002060020160009054906101000a900473ffffffffffffffffffffffffffffffffffffffff1673ffffffffffffffffffffffffffffffffffffffff163373ffffffffffffffffffffffffffffffffffffffff167fb346da622e4e13ea5d309f8adb5a88fbb15b20889ff9da0af0d30d8bc2b54fac6002600088815260200190815260200160002060405161144b91906124d0565b60405180910390a4505050565b6114606115b1565b61146a600061162f565b565b60008060009054906101000a900473ffffffffffffffffffffffffffffffffffffffff16905090565b61149d6115b1565b80600660006101000a81548173ffffffffffffffffffffffffffffffffffffffff021916908373ffffffffffffffffffffffffffffffffffffffff16021790555050565b600460009054906101000a900473ffffffffffffffffffffffffffffffffffffffff1681565b600660009054906101000a900473ffffffffffffffffffffffffffffffffffffffff1681565b6115356115b1565b600073ffffffffffffffffffffffffffffffffffffffff168173ffffffffffffffffffffffffffffffffffffffff1614156115a5576040517f08c379a000000000000000000000000000000000000000000000000000000000815260040161159c90612746565b60405180910390fd5b6115ae8161162f565b50565b6115b96116f3565b73ffffffffffffffffffffffffffffffffffffffff166115d761146c565b73ffffffffffffffffffffffffffffffffffffffff161461162d576040517f08c379a0000000000000000000000000000000000000000000000000000000008152600401611624906127b2565b60405180910390fd5b565b60008060009054906101000a900473ffffffffffffffffffffffffffffffffffffffff169050816000806101000a81548173ffffffffffffffffffffffffffffffffffffffff021916908373ffffffffffffffffffffffffffffffffffffffff1602179055508173ffffffffffffffffffffffffffffffffffffffff168173ffffffffffffffffffffffffffffffffffffffff167f8be0079c531659141344cd1fd0a4f28419497f9722a3daafe3b4186f6b6457e060405160405180910390a35050565b600033905090565b82805461170790612286565b90600052602060002090601f0160209004810192826117295760008555611770565b82601f1061174257805160ff1916838001178555611770565b82800160010185558215611770579182015b8281111561176f578251825591602001919060010190611754565b5b50905061177d9190611781565b5090565b5b8082111561179a576000816000905550600101611782565b5090565b600073ffffffffffffffffffffffffffffffffffffffff82169050919050565b60006117c98261179e565b9050919050565b6117d9816117be565b82525050565b60006020820190506117f460008301846117d0565b92915050565b6000604051905090565b600080fd5b600080fd5b600080fd5b6000601f19601f8301169050919050565b7f4e487b7100000000000000000000000000000000000000000000000000000000600052604160045260246000fd5b61185c82611813565b810181811067ffffffffffffffff8211171561187b5761187a611824565b5b80604052505050565b600061188e6117fa565b905061189a8282611853565b919050565b600080fd5b6118ad816117be565b81146118b857600080fd5b50565b6000813590506118ca816118a4565b92915050565b6000819050919050565b6118e3816118d0565b81146118ee57600080fd5b50565b600081359050611900816118da565b92915050565b600080fd5b600080fd5b600067ffffffffffffffff82111561192b5761192a611824565b5b61193482611813565b9050602081019050919050565b82818337600083830152505050565b600061196361195e84611910565b611884565b90508281526020810184848401111561197f5761197e61190b565b5b61198a848285611941565b509392505050565b600082601f8301126119a7576119a6611906565b5b81356119b7848260208601611950565b91505092915050565b600060e082840312156119d6576119d561180e565b5b6119e060e0611884565b905060006119f0848285016118bb565b6000830152506020611a04848285016118f1565b6020830152506040611a18848285016118f1565b6040830152506060611a2c848285016118f1565b6060830152506080611a40848285016118f1565b60808301525060a0611a54848285016118f1565b60a08301525060c082013567ffffffffffffffff811115611a7857611a7761189f565b5b611a8484828501611992565b60c08301525092915050565b600060208284031215611aa657611aa5611804565b5b600082013567ffffffffffffffff811115611ac457611ac3611809565b5b611ad0848285016119c0565b91505092915050565b611ae2816118d0565b82525050565b6000602082019050611afd6000830184611ad9565b92915050565b600060208284031215611b1957611b18611804565b5b6000611b27848285016118bb565b91505092915050565b600060208284031215611b4657611b45611804565b5b6000611b54848285016118f1565b91505092915050565b600081519050919050565b600082825260208201905092915050565b60005b83811015611b97578082015181840152602081019050611b7c565b83811115611ba6576000848401525b50505050565b6000611bb782611b5d565b611bc18185611b68565b9350611bd1818560208601611b79565b611bda81611813565b840191505092915050565b7f4e487b7100000000000000000000000000000000000000000000000000000000600052602160045260246000fd5b60048110611c2557611c24611be5565b5b50565b6000819050611c3682611c14565b919050565b6000611c4682611c28565b9050919050565b611c5681611c3b565b82525050565b600061014082019050611c72600083018d611ad9565b611c7f602083018c6117d0565b611c8c604083018b6117d0565b611c99606083018a611ad9565b611ca66080830189611ad9565b611cb360a0830188611ad9565b611cc060c0830187611ad9565b611ccd60e0830186611ad9565b818103610100830152611ce08185611bac565b9050611cf0610120830184611c4d565b9b9a5050505050505050505050565b60048110611d0c57600080fd5b50565b600081359050611d1e81611cff565b92915050565b60008060408385031215611d3b57611d3a611804565b5b6000611d49858286016118f1565b9250506020611d5a85828601611d0f565b9150509250929050565b60008060408385031215611d7b57611d7a611804565b5b6000611d89858286016118bb565b9250506020611d9a858286016118f1565b9150509250929050565b60008115159050919050565b611db981611da4565b82525050565b6000602082019050611dd46000830184611db0565b92915050565b60008060408385031215611df157611df0611804565b5b6000611dff858286016118f1565b925050602083013567ffffffffffffffff811115611e2057611e1f611809565b5b611e2c858286016119c0565b9150509250929050565b7f43616e206e6f74206372656174652032206c697374696e67206f662073616d6560008201527f204e465400000000000000000000000000000000000000000000000000000000602082015250565b6000611e92602483611b68565b9150611e9d82611e36565b604082019050919050565b60006020820190508181036000830152611ec181611e85565b9050919050565b7f496e76616c6964206e667420636f6e7472616374206164647265737300000000600082015250565b6000611efe601c83611b68565b9150611f0982611ec8565b602082019050919050565b60006020820190508181036000830152611f2d81611ef1565b9050919050565b6000604082019050611f4960008301856117d0565b611f5660208301846117d0565b9392505050565b611f6681611da4565b8114611f7157600080fd5b50565b600081519050611f8381611f5d565b92915050565b600060208284031215611f9f57611f9e611804565b5b6000611fad84828501611f74565b91505092915050565b7f457363726f7720636f6e7472616374206973206e6f7420617070726f7665642060008201527f746f207472616e736665722074686973206e6674000000000000000000000000602082015250565b6000612012603483611b68565b915061201d82611fb6565b604082019050919050565b6000602082019050818103600083015261204181612005565b9050919050565b600081519050612057816118a4565b92915050565b60006020828403121561207357612072611804565b5b600061208184828501612048565b91505092915050565b7f596f7520617265206e6f7420746865206f776e6572206f6620746865206e6674600082015250565b60006120c0602083611b68565b91506120cb8261208a565b602082019050919050565b600060208201905081810360008301526120ef816120b3565b9050919050565b7f496e76616c696420656e642074696d657374616d700000000000000000000000600082015250565b600061212c601583611b68565b9150612137826120f6565b602082019050919050565b6000602082019050818103600083015261215b8161211f565b9050919050565b7f43616e277420616363657074203020636f6c6c61746572616c00000000000000600082015250565b6000612198601983611b68565b91506121a382612162565b602082019050919050565b600060208201905081810360008301526121c78161218b565b9050919050565b60008160001c9050919050565b6000819050919050565b60006121f86121f3836121ce565b6121db565b9050919050565b612208816118d0565b82525050565b600073ffffffffffffffffffffffffffffffffffffffff82169050919050565b600061224161223c836121ce565b61220e565b9050919050565b612251816117be565b82525050565b7f4e487b7100000000000000000000000000000000000000000000000000000000600052602260045260246000fd5b6000600282049050600182168061229e57607f821691505b602082108114156122b2576122b1612257565b5b50919050565b600082825260208201905092915050565b60008190508160005260206000209050919050565b600081546122eb81612286565b6122f581866122b8565b94506001821660008114612310576001811461232257612355565b60ff1983168652602086019350612355565b61232b856122c9565b60005b8381101561234d5781548189015260018201915060208101905061232e565b808801955050505b50505092915050565b600060ff82169050919050565b600061237e612379836121ce565b61235e565b9050919050565b61238e81611c3b565b82525050565b6000610140830160008084015490506123ac816121e5565b6123b960008701826121ff565b50600184015490506123ca8161222e565b6123d76020870182612248565b50600284015490506123e88161222e565b6123f56040870182612248565b5060038401549050612406816121e5565b61241360608701826121ff565b5060048401549050612424816121e5565b61243160808701826121ff565b5060058401549050612442816121e5565b61244f60a08701826121ff565b5060068401549050612460816121e5565b61246d60c08701826121ff565b506007840154905061247e816121e5565b61248b60e08701826121ff565b50600884018583036101008701526124a383826122de565b925050600984015490506124b68161236b565b6124c4610120870182612385565b50819250505092915050565b600060208201905081810360008301526124ea8184612394565b905092915050565b7f4e487b7100000000000000000000000000000000000000000000000000000000600052601160045260246000fd5b600061252c826118d0565b91507fffffffffffffffffffffffffffffffffffffffffffffffffffffffffffffffff82141561255f5761255e6124f2565b5b600182019050919050565b7f4572726f723a20796f7520617265206e6f7420746865206f776e6572206f662060008201527f746865206c697374696e67000000000000000000000000000000000000000000602082015250565b60006125c6602b83611b68565b91506125d18261256a565b604082019050919050565b600060208201905081810360008301526125f5816125b9565b9050919050565b7f4c697374696e6720697320696e76616c69640000000000000000000000000000600082015250565b6000612632601283611b68565b915061263d826125fc565b602082019050919050565b6000602082019050818103600083015261266181612625565b9050919050565b7f4f6e6c792063616c6c65642062792070726f746f636f6c650000000000000000600082015250565b600061269e601883611b68565b91506126a982612668565b602082019050919050565b600060208201905081810360008301526126cd81612691565b9050919050565b7f4f776e61626c653a206e6577206f776e657220697320746865207a65726f206160008201527f6464726573730000000000000000000000000000000000000000000000000000602082015250565b6000612730602683611b68565b915061273b826126d4565b604082019050919050565b6000602082019050818103600083015261275f81612723565b9050919050565b7f4f776e61626c653a2063616c6c6572206973206e6f7420746865206f776e6572600082015250565b600061279c602083611b68565b91506127a782612766565b602082019050919050565b600060208201905081810360008301526127cb8161278f565b905091905056fea26469706673582212201ad83f55b8f01f49128726e91aad500b655117b15cd48b261b1cdf02863e412464736f6c63430008090033",
  "devdoc": {
    "kind": "dev",
    "methods": {
      "owner()": {
        "details": "Returns the address of the current owner."
      },
      "renounceOwnership()": {
        "details": "Leaves the contract without owner. It will not be possible to call `onlyOwner` functions. Can only be called by the current owner. NOTE: Renouncing ownership will leave the contract without an owner, thereby disabling any functionality that is only available to the owner."
      },
      "transferOwnership(address)": {
        "details": "Transfers ownership of the contract to a new account (`newOwner`). Can only be called by the current owner."
      }
    },
    "version": 1
  },
  "userdoc": {
    "kind": "user",
    "methods": {},
    "version": 1
  },
  "storageLayout": {
    "storage": [
      {
        "astId": 7,
        "contract": "contracts/ListingManager.sol:ListingManager",
        "label": "_owner",
        "offset": 0,
        "slot": "0",
        "type": "t_address"
      },
      {
        "astId": 4363,
        "contract": "contracts/ListingManager.sol:ListingManager",
        "label": "totalNumListing",
        "offset": 0,
        "slot": "1",
        "type": "t_uint256"
      },
      {
        "astId": 4368,
        "contract": "contracts/ListingManager.sol:ListingManager",
        "label": "listingIdToListing",
        "offset": 0,
        "slot": "2",
        "type": "t_mapping(t_uint256,t_struct(Listing)4360_storage)"
      },
      {
        "astId": 4374,
        "contract": "contracts/ListingManager.sol:ListingManager",
        "label": "isTokenListed",
        "offset": 0,
        "slot": "3",
        "type": "t_mapping(t_address,t_mapping(t_uint256,t_bool))"
      },
      {
        "astId": 4376,
        "contract": "contracts/ListingManager.sol:ListingManager",
        "label": "rentalManager",
        "offset": 0,
        "slot": "4",
        "type": "t_address"
      },
      {
        "astId": 4378,
        "contract": "contracts/ListingManager.sol:ListingManager",
        "label": "proposalManager",
        "offset": 0,
        "slot": "5",
        "type": "t_address"
      },
      {
        "astId": 4380,
        "contract": "contracts/ListingManager.sol:ListingManager",
        "label": "escrow",
        "offset": 0,
        "slot": "6",
        "type": "t_address"
      }
    ],
    "types": {
      "t_address": {
        "encoding": "inplace",
        "label": "address",
        "numberOfBytes": "20"
      },
      "t_bool": {
        "encoding": "inplace",
        "label": "bool",
        "numberOfBytes": "1"
      },
      "t_enum(ListingStatus)4323": {
        "encoding": "inplace",
        "label": "enum ListingManager.ListingStatus",
        "numberOfBytes": "1"
      },
      "t_mapping(t_address,t_mapping(t_uint256,t_bool))": {
        "encoding": "mapping",
        "key": "t_address",
        "label": "mapping(address => mapping(uint256 => bool))",
        "numberOfBytes": "32",
        "value": "t_mapping(t_uint256,t_bool)"
      },
      "t_mapping(t_uint256,t_bool)": {
        "encoding": "mapping",
        "key": "t_uint256",
        "label": "mapping(uint256 => bool)",
        "numberOfBytes": "32",
        "value": "t_bool"
      },
      "t_mapping(t_uint256,t_struct(Listing)4360_storage)": {
        "encoding": "mapping",
        "key": "t_uint256",
        "label": "mapping(uint256 => struct ListingManager.Listing)",
        "numberOfBytes": "32",
        "value": "t_struct(Listing)4360_storage"
      },
      "t_string_storage": {
        "encoding": "bytes",
        "label": "string",
        "numberOfBytes": "32"
      },
      "t_struct(Listing)4360_storage": {
        "encoding": "inplace",
        "label": "struct ListingManager.Listing",
        "members": [
          {
            "astId": 4340,
            "contract": "contracts/ListingManager.sol:ListingManager",
            "label": "listingId",
            "offset": 0,
            "slot": "0",
            "type": "t_uint256"
          },
          {
            "astId": 4342,
            "contract": "contracts/ListingManager.sol:ListingManager",
            "label": "listingCreator",
            "offset": 0,
            "slot": "1",
            "type": "t_address"
          },
          {
            "astId": 4344,
            "contract": "contracts/ListingManager.sol:ListingManager",
            "label": "assetContract",
            "offset": 0,
            "slot": "2",
            "type": "t_address"
          },
          {
            "astId": 4346,
            "contract": "contracts/ListingManager.sol:ListingManager",
            "label": "tokenId",
            "offset": 0,
            "slot": "3",
            "type": "t_uint256"
          },
          {
            "astId": 4348,
            "contract": "contracts/ListingManager.sol:ListingManager",
            "label": "collateralAmount",
            "offset": 0,
            "slot": "4",
            "type": "t_uint256"
          },
          {
            "astId": 4350,
            "contract": "contracts/ListingManager.sol:ListingManager",
            "label": "startTimestamp",
            "offset": 0,
            "slot": "5",
            "type": "t_uint256"
          },
          {
            "astId": 4352,
            "contract": "contracts/ListingManager.sol:ListingManager",
            "label": "endTimestamp",
            "offset": 0,
            "slot": "6",
            "type": "t_uint256"
          },
          {
            "astId": 4354,
            "contract": "contracts/ListingManager.sol:ListingManager",
            "label": "pricePerDay",
            "offset": 0,
            "slot": "7",
            "type": "t_uint256"
          },
          {
            "astId": 4356,
            "contract": "contracts/ListingManager.sol:ListingManager",
            "label": "comment",
            "offset": 0,
            "slot": "8",
            "type": "t_string_storage"
          },
          {
            "astId": 4359,
            "contract": "contracts/ListingManager.sol:ListingManager",
            "label": "status",
            "offset": 0,
            "slot": "9",
            "type": "t_enum(ListingStatus)4323"
          }
        ],
        "numberOfBytes": "320"
      },
      "t_uint256": {
        "encoding": "inplace",
        "label": "uint256",
        "numberOfBytes": "32"
      }
    }
  }
}