{
  "address": "0xa513E6E4b8f2a923D98304ec87F64353C4D5C853",
  "abi": [
    {
      "inputs": [],
      "stateMutability": "nonpayable",
      "type": "constructor"
    },
    {
      "anonymous": false,
      "inputs": [
        {
          "indexed": true,
          "internalType": "address",
          "name": "previousOwner",
          "type": "address"
        },
        {
          "indexed": true,
          "internalType": "address",
          "name": "newOwner",
          "type": "address"
        }
      ],
      "name": "OwnershipTransferred",
      "type": "event"
    },
    {
      "anonymous": false,
      "inputs": [
        {
          "indexed": true,
          "internalType": "address",
          "name": "proposalCreator",
          "type": "address"
        },
        {
          "indexed": true,
          "internalType": "uint256",
          "name": "proposalId",
          "type": "uint256"
        }
      ],
      "name": "ProposalCancelled",
      "type": "event"
    },
    {
      "anonymous": false,
      "inputs": [
        {
          "indexed": true,
          "internalType": "address",
          "name": "proposalCreator",
          "type": "address"
        },
        {
          "indexed": true,
          "internalType": "uint256",
          "name": "proposalId",
          "type": "uint256"
        },
        {
          "indexed": true,
          "internalType": "uint256",
          "name": "listingId",
          "type": "uint256"
        },
        {
          "components": [
            {
              "internalType": "uint256",
              "name": "proposalId",
              "type": "uint256"
            },
            {
              "internalType": "uint256",
              "name": "listingId",
              "type": "uint256"
            },
            {
              "internalType": "address",
              "name": "proposalCreator",
              "type": "address"
            },
            {
              "internalType": "uint256",
              "name": "startTimestampProposal",
              "type": "uint256"
            },
            {
              "internalType": "uint256",
              "name": "endTimestampProposal",
              "type": "uint256"
            },
            {
              "internalType": "uint256",
              "name": "endTimestampRental",
              "type": "uint256"
            },
            {
              "internalType": "bool",
              "name": "isProRated",
              "type": "bool"
            },
            {
              "internalType": "enum ProposalManager.ProposalStatus",
              "name": "status",
              "type": "uint8"
            }
          ],
          "indexed": false,
          "internalType": "struct ProposalManager.Proposal",
          "name": "proposal",
          "type": "tuple"
        }
      ],
      "name": "ProposalCreated",
      "type": "event"
    },
    {
      "anonymous": false,
      "inputs": [
        {
          "indexed": true,
          "internalType": "address",
          "name": "proposalCreator",
          "type": "address"
        },
        {
          "indexed": true,
          "internalType": "uint256",
          "name": "proposalId",
          "type": "uint256"
        },
        {
          "indexed": true,
          "internalType": "uint256",
          "name": "listingId",
          "type": "uint256"
        },
        {
          "components": [
            {
              "internalType": "uint256",
              "name": "proposalId",
              "type": "uint256"
            },
            {
              "internalType": "uint256",
              "name": "listingId",
              "type": "uint256"
            },
            {
              "internalType": "address",
              "name": "proposalCreator",
              "type": "address"
            },
            {
              "internalType": "uint256",
              "name": "startTimestampProposal",
              "type": "uint256"
            },
            {
              "internalType": "uint256",
              "name": "endTimestampProposal",
              "type": "uint256"
            },
            {
              "internalType": "uint256",
              "name": "endTimestampRental",
              "type": "uint256"
            },
            {
              "internalType": "bool",
              "name": "isProRated",
              "type": "bool"
            },
            {
              "internalType": "enum ProposalManager.ProposalStatus",
              "name": "status",
              "type": "uint8"
            }
          ],
          "indexed": false,
          "internalType": "struct ProposalManager.Proposal",
          "name": "proposal",
          "type": "tuple"
        }
      ],
      "name": "ProposalUpdated",
      "type": "event"
    },
    {
      "inputs": [
        {
          "internalType": "uint256",
          "name": "_proposalId",
          "type": "uint256"
        }
      ],
      "name": "acceptProposal",
      "outputs": [],
      "stateMutability": "nonpayable",
      "type": "function"
    },
    {
      "inputs": [
        {
          "internalType": "uint256",
          "name": "_proposalId",
          "type": "uint256"
        }
      ],
      "name": "cancelProposal",
      "outputs": [],
      "stateMutability": "nonpayable",
      "type": "function"
    },
    {
      "inputs": [
        {
          "internalType": "uint256",
          "name": "_listingId",
          "type": "uint256"
        },
        {
          "components": [
            {
              "internalType": "uint256",
              "name": "startTimestampProposal",
              "type": "uint256"
            },
            {
              "internalType": "uint256",
              "name": "endTimestampProposal",
              "type": "uint256"
            },
            {
              "internalType": "uint256",
              "name": "endTimestampRental",
              "type": "uint256"
            },
            {
              "internalType": "bool",
              "name": "isProRated",
              "type": "bool"
            }
          ],
          "internalType": "struct ProposalManager.ProposalParameters",
          "name": "_proposalParameters",
          "type": "tuple"
        }
      ],
      "name": "createProposal",
      "outputs": [],
      "stateMutability": "nonpayable",
      "type": "function"
    },
    {
      "inputs": [],
      "name": "erc20DenominationUsed",
      "outputs": [
        {
          "internalType": "address",
          "name": "",
          "type": "address"
        }
      ],
      "stateMutability": "view",
      "type": "function"
    },
    {
      "inputs": [],
      "name": "escrow",
      "outputs": [
        {
          "internalType": "address",
          "name": "",
          "type": "address"
        }
      ],
      "stateMutability": "view",
      "type": "function"
    },
    {
      "inputs": [],
      "name": "listingManager",
      "outputs": [
        {
          "internalType": "address",
          "name": "",
          "type": "address"
        }
      ],
      "stateMutability": "view",
      "type": "function"
    },
    {
      "inputs": [],
      "name": "owner",
      "outputs": [
        {
          "internalType": "address",
          "name": "",
          "type": "address"
        }
      ],
      "stateMutability": "view",
      "type": "function"
    },
    {
      "inputs": [
        {
          "internalType": "uint256",
          "name": "",
          "type": "uint256"
        }
      ],
      "name": "proposalIdToProposal",
      "outputs": [
        {
          "internalType": "uint256",
          "name": "proposalId",
          "type": "uint256"
        },
        {
          "internalType": "uint256",
          "name": "listingId",
          "type": "uint256"
        },
        {
          "internalType": "address",
          "name": "proposalCreator",
          "type": "address"
        },
        {
          "internalType": "uint256",
          "name": "startTimestampProposal",
          "type": "uint256"
        },
        {
          "internalType": "uint256",
          "name": "endTimestampProposal",
          "type": "uint256"
        },
        {
          "internalType": "uint256",
          "name": "endTimestampRental",
          "type": "uint256"
        },
        {
          "internalType": "bool",
          "name": "isProRated",
          "type": "bool"
        },
        {
          "internalType": "enum ProposalManager.ProposalStatus",
          "name": "status",
          "type": "uint8"
        }
      ],
      "stateMutability": "view",
      "type": "function"
    },
    {
      "inputs": [],
      "name": "renounceOwnership",
      "outputs": [],
      "stateMutability": "nonpayable",
      "type": "function"
    },
    {
      "inputs": [],
      "name": "rentalManager",
      "outputs": [
        {
          "internalType": "address",
          "name": "",
          "type": "address"
        }
      ],
      "stateMutability": "view",
      "type": "function"
    },
    {
      "inputs": [
        {
          "internalType": "address",
          "name": "_erc20DenominationUsed",
          "type": "address"
        }
      ],
      "name": "setERC20",
      "outputs": [],
      "stateMutability": "nonpayable",
      "type": "function"
    },
    {
      "inputs": [
        {
          "internalType": "address",
          "name": "_escrow",
          "type": "address"
        }
      ],
      "name": "setEscrow",
      "outputs": [],
      "stateMutability": "nonpayable",
      "type": "function"
    },
    {
      "inputs": [
        {
          "internalType": "address",
          "name": "_listingManager",
          "type": "address"
        }
      ],
      "name": "setListingManager",
      "outputs": [],
      "stateMutability": "nonpayable",
      "type": "function"
    },
    {
      "inputs": [
        {
          "internalType": "address",
          "name": "_rentalManager",
          "type": "address"
        }
      ],
      "name": "setRentalManager",
      "outputs": [],
      "stateMutability": "nonpayable",
      "type": "function"
    },
    {
      "inputs": [],
      "name": "totalNumProposal",
      "outputs": [
        {
          "internalType": "uint256",
          "name": "",
          "type": "uint256"
        }
      ],
      "stateMutability": "view",
      "type": "function"
    },
    {
      "inputs": [
        {
          "internalType": "address",
          "name": "newOwner",
          "type": "address"
        }
      ],
      "name": "transferOwnership",
      "outputs": [],
      "stateMutability": "nonpayable",
      "type": "function"
    },
    {
      "inputs": [
        {
          "internalType": "uint256",
          "name": "_proposalId",
          "type": "uint256"
        },
        {
          "components": [
            {
              "internalType": "uint256",
              "name": "startTimestampProposal",
              "type": "uint256"
            },
            {
              "internalType": "uint256",
              "name": "endTimestampProposal",
              "type": "uint256"
            },
            {
              "internalType": "uint256",
              "name": "endTimestampRental",
              "type": "uint256"
            },
            {
              "internalType": "bool",
              "name": "isProRated",
              "type": "bool"
            }
          ],
          "internalType": "struct ProposalManager.ProposalParameters",
          "name": "_proposalParameters",
          "type": "tuple"
        }
      ],
      "name": "updateProposal",
      "outputs": [],
      "stateMutability": "nonpayable",
      "type": "function"
    }
  ],
  "transactionHash": "0x55ba3b3059cdce7652422338c0780b3fe225916ada2a719d9b3565cd578e6f79",
  "args": [],
  "numDeployments": 1,
  "solcInputHash": "fbce8e838ef917cc3d1eada4fe1cb18c",
  "bytecode": "0x608060405260006004553480156200001657600080fd5b50620000376200002b6200003d60201b60201c565b6200004560201b60201c565b62000109565b600033905090565b60008060009054906101000a900473ffffffffffffffffffffffffffffffffffffffff169050816000806101000a81548173ffffffffffffffffffffffffffffffffffffffff021916908373ffffffffffffffffffffffffffffffffffffffff1602179055508173ffffffffffffffffffffffffffffffffffffffff168173ffffffffffffffffffffffffffffffffffffffff167f8be0079c531659141344cd1fd0a4f28419497f9722a3daafe3b4186f6b6457e060405160405180910390a35050565b612fc380620001196000396000f3fe608060405234801561001057600080fd5b506004361061010b5760003560e01c8063c15c5593116100a2578063e2fdcc1711610071578063e2fdcc171461026f578063f2fde38b1461028d578063f5fdf56d146102a9578063fa037b93146102c7578063fdbddd56146102e35761010b565b8063c15c5593146101fd578063c278cff614610219578063c29a6fda14610237578063e0a8f6f5146102535761010b565b806360c5cc3a116100de57806360c5cc3a1461019d578063715018a6146101b95780638da5cb5b146101c3578063c10c3546146101e15761010b565b80634378335f1461011057806349adc9051461012e5780635152ed1d1461014a578063577b540b14610181575b600080fd5b610118610301565b6040516101259190611e60565b60405180910390f35b61014860048036038101906101439190611ffc565b610307565b005b610164600480360381019061015f919061203c565b61088a565b604051610178989796959493929190612130565b60405180910390f35b61019b600480360381019061019691906121da565b61090c565b005b6101b760048036038101906101b2919061203c565b610958565b005b6101c1611310565b005b6101cb611324565b6040516101d89190612207565b60405180910390f35b6101fb60048036038101906101f691906121da565b61134d565b005b61021760048036038101906102129190611ffc565b611399565b005b610221611993565b60405161022e9190612207565b60405180910390f35b610251600480360381019061024c91906121da565b6119b9565b005b61026d6004803603810190610268919061203c565b611a05565b005b610277611bbb565b6040516102849190612207565b60405180910390f35b6102a760048036038101906102a291906121da565b611be1565b005b6102b1611c65565b6040516102be9190612207565b60405180910390f35b6102e160048036038101906102dc91906121da565b611c8b565b005b6102eb611cd7565b6040516102f89190612207565b60405180910390f35b60045481565b600080600080600160009054906101000a900473ffffffffffffffffffffffffffffffffffffffff1673ffffffffffffffffffffffffffffffffffffffff1663295866f5876040518263ffffffff1660e01b81526004016103689190611e60565b60006040518083038186803b15801561038057600080fd5b505afa158015610394573d6000803e3d6000fd5b505050506040513d6000823e3d601f19601f820116820180604052508101906103bd919061234f565b9950505097509750975050505050600160038111156103df576103de6120b9565b5b8160038111156103f2576103f16120b9565b5b14610432576040517f08c379a0000000000000000000000000000000000000000000000000000000008152600401610429906124a7565b60405180910390fd5b83600660009054906101000a900473ffffffffffffffffffffffffffffffffffffffff1673ffffffffffffffffffffffffffffffffffffffff1663dd62ed3e33600360009054906101000a900473ffffffffffffffffffffffffffffffffffffffff166040518363ffffffff1660e01b81526004016104b29291906124c7565b60206040518083038186803b1580156104ca57600080fd5b505afa1580156104de573d6000803e3d6000fd5b505050506040513d601f19601f8201168201806040525081019061050291906124f0565b1015610543576040517f08c379a000000000000000000000000000000000000000000000000000000000815260040161053a9061258f565b60405180910390fd5b83600660009054906101000a900473ffffffffffffffffffffffffffffffffffffffff1673ffffffffffffffffffffffffffffffffffffffff166370a08231336040518263ffffffff1660e01b815260040161059f9190612207565b60206040518083038186803b1580156105b757600080fd5b505afa1580156105cb573d6000803e3d6000fd5b505050506040513d601f19601f820116820180604052508101906105ef91906124f0565b1015610630576040517f08c379a000000000000000000000000000000000000000000000000000000000815260040161062790612621565b60405180910390fd5b8460200151856000015110801561064e575084604001518560000151105b801561065e575084600001518311155b801561066d5750818560000151105b6106ac576040517f08c379a00000000000000000000000000000000000000000000000000000000081526004016106a39061268d565b60405180910390fd5b60405180610100016040528060045481526020018781526020013373ffffffffffffffffffffffffffffffffffffffff168152602001866000015181526020018660200151815260200186604001518152602001866060015115158152602001600160048111156107205761071f6120b9565b5b815250600560006004548152602001908152602001600020600082015181600001556020820151816001015560408201518160020160006101000a81548173ffffffffffffffffffffffffffffffffffffffff021916908373ffffffffffffffffffffffffffffffffffffffff160217905550606082015181600301556080820151816004015560a0820151816005015560c08201518160060160006101000a81548160ff02191690831515021790555060e08201518160060160016101000a81548160ff021916908360048111156107fc576107fb6120b9565b5b0217905550905050856004543373ffffffffffffffffffffffffffffffffffffffff167fe05e2c14cb411a55c8af94b692f798f19b79b6c63ac1fa01c07440905b3437b360056000600454815260200190815260200160002060405161086291906128a4565b60405180910390a46004600081548092919061087d906128ef565b9190505550505050505050565b60056020528060005260406000206000915090508060000154908060010154908060020160009054906101000a900473ffffffffffffffffffffffffffffffffffffffff16908060030154908060040154908060050154908060060160009054906101000a900460ff16908060060160019054906101000a900460ff16905088565b610914611cfd565b80600260006101000a81548173ffffffffffffffffffffffffffffffffffffffff021916908373ffffffffffffffffffffffffffffffffffffffff16021790555050565b6000600560008381526020019081526020016000206040518061010001604052908160008201548152602001600182015481526020016002820160009054906101000a900473ffffffffffffffffffffffffffffffffffffffff1673ffffffffffffffffffffffffffffffffffffffff1673ffffffffffffffffffffffffffffffffffffffff1681526020016003820154815260200160048201548152602001600582015481526020016006820160009054906101000a900460ff161515151581526020016006820160019054906101000a900460ff166004811115610a4157610a406120b9565b5b6004811115610a5357610a526120b9565b5b815250509050600080600080600080600080600160009054906101000a900473ffffffffffffffffffffffffffffffffffffffff1673ffffffffffffffffffffffffffffffffffffffff1663295866f5600560008d8152602001908152602001600020600101546040518263ffffffff1660e01b8152600401610ad69190611e60565b60006040518083038186803b158015610aee57600080fd5b505afa158015610b02573d6000803e3d6000fd5b505050506040513d6000823e3d601f19601f82011682018060405250810190610b2b919061234f565b99505098509850509750975097509750975060016004811115610b5157610b506120b9565b5b8960e001516004811115610b6857610b676120b9565b5b14610ba8576040517f08c379a0000000000000000000000000000000000000000000000000000000008152600401610b9f90612984565b60405180910390fd5b60016003811115610bbc57610bbb6120b9565b5b816003811115610bcf57610bce6120b9565b5b14610c0f576040517f08c379a0000000000000000000000000000000000000000000000000000000008152600401610c06906124a7565b60405180910390fd5b3373ffffffffffffffffffffffffffffffffffffffff168773ffffffffffffffffffffffffffffffffffffffff1614610c7d576040517f08c379a0000000000000000000000000000000000000000000000000000000008152600401610c7490612a16565b60405180910390fd5b428311610cbf576040517f08c379a0000000000000000000000000000000000000000000000000000000008152600401610cb690612a82565b60405180910390fd5b428960800151118015610cd55750428960a00151115b610d14576040517f08c379a0000000000000000000000000000000000000000000000000000000008152600401610d0b90612aee565b60405180910390fd5b600115158673ffffffffffffffffffffffffffffffffffffffff1663e985e9c533600360009054906101000a900473ffffffffffffffffffffffffffffffffffffffff166040518363ffffffff1660e01b8152600401610d759291906124c7565b60206040518083038186803b158015610d8d57600080fd5b505afa158015610da1573d6000803e3d6000fd5b505050506040513d601f19601f82011682018060405250810190610dc59190612b23565b151514610e07576040517f08c379a0000000000000000000000000000000000000000000000000000000008152600401610dfe90612bc2565b60405180910390fd5b3373ffffffffffffffffffffffffffffffffffffffff168673ffffffffffffffffffffffffffffffffffffffff16636352211e876040518263ffffffff1660e01b8152600401610e579190611e60565b60206040518083038186803b158015610e6f57600080fd5b505afa158015610e83573d6000803e3d6000fd5b505050506040513d601f19601f82011682018060405250810190610ea79190612be2565b73ffffffffffffffffffffffffffffffffffffffff1614610efd576040517f08c379a0000000000000000000000000000000000000000000000000000000008152600401610ef490612c5b565b60405180910390fd5b83600660009054906101000a900473ffffffffffffffffffffffffffffffffffffffff1673ffffffffffffffffffffffffffffffffffffffff1663dd62ed3e8b60400151600360009054906101000a900473ffffffffffffffffffffffffffffffffffffffff166040518363ffffffff1660e01b8152600401610f819291906124c7565b60206040518083038186803b158015610f9957600080fd5b505afa158015610fad573d6000803e3d6000fd5b505050506040513d601f19601f82011682018060405250810190610fd191906124f0565b1015611012576040517f08c379a00000000000000000000000000000000000000000000000000000000081526004016110099061258f565b60405180910390fd5b83600660009054906101000a900473ffffffffffffffffffffffffffffffffffffffff1673ffffffffffffffffffffffffffffffffffffffff166370a082318b604001516040518263ffffffff1660e01b81526004016110729190612207565b60206040518083038186803b15801561108a57600080fd5b505afa15801561109e573d6000803e3d6000fd5b505050506040513d601f19601f820116820180604052508101906110c291906124f0565b1015611103576040517f08c379a00000000000000000000000000000000000000000000000000000000081526004016110fa90612621565b60405180910390fd5b600260009054906101000a900473ffffffffffffffffffffffffffffffffffffffff1673ffffffffffffffffffffffffffffffffffffffff1663d10a69616040518061012001604052808a73ffffffffffffffffffffffffffffffffffffffff1681526020018c6040015173ffffffffffffffffffffffffffffffffffffffff1681526020018973ffffffffffffffffffffffffffffffffffffffff1681526020018881526020018781526020018581526020014281526020018c60a0015181526020018c60c00151151581525060405180604001604052808c81526020018e8152506040518363ffffffff1660e01b8152600401611203929190612d61565b600060405180830381600087803b15801561121d57600080fd5b505af1158015611231573d6000803e3d6000fd5b505050506002600560008c815260200190815260200160002060060160016101000a81548160ff0219169083600481111561126f5761126e6120b9565b5b0217905550600160009054906101000a900473ffffffffffffffffffffffffffffffffffffffff1673ffffffffffffffffffffffffffffffffffffffff1663312be1d88960026040518363ffffffff1660e01b81526004016112d2929190612dd4565b600060405180830381600087803b1580156112ec57600080fd5b505af1158015611300573d6000803e3d6000fd5b5050505050505050505050505050565b611318611cfd565b6113226000611d7b565b565b60008060009054906101000a900473ffffffffffffffffffffffffffffffffffffffff16905090565b611355611cfd565b80600360006101000a81548173ffffffffffffffffffffffffffffffffffffffff021916908373ffffffffffffffffffffffffffffffffffffffff16021790555050565b813373ffffffffffffffffffffffffffffffffffffffff166005600083815260200190815260200160002060020160009054906101000a900473ffffffffffffffffffffffffffffffffffffffff1673ffffffffffffffffffffffffffffffffffffffff161461143e576040517f08c379a000000000000000000000000000000000000000000000000000000000815260040161143590612e6f565b60405180910390fd5b60016004811115611452576114516120b9565b5b6005600085815260200190815260200160002060060160019054906101000a900460ff166004811115611488576114876120b9565b5b146114c8576040517f08c379a00000000000000000000000000000000000000000000000000000000081526004016114bf90612984565b60405180910390fd5b600080600080600160009054906101000a900473ffffffffffffffffffffffffffffffffffffffff1673ffffffffffffffffffffffffffffffffffffffff1663295866f5600560008a8152602001908152602001600020600101546040518263ffffffff1660e01b815260040161153f9190611e60565b60006040518083038186803b15801561155757600080fd5b505afa15801561156b573d6000803e3d6000fd5b505050506040513d6000823e3d601f19601f82011682018060405250810190611594919061234f565b9950505097509750975050505050600160038111156115b6576115b56120b9565b5b8160038111156115c9576115c86120b9565b5b14611609576040517f08c379a0000000000000000000000000000000000000000000000000000000008152600401611600906124a7565b60405180910390fd5b83600660009054906101000a900473ffffffffffffffffffffffffffffffffffffffff1673ffffffffffffffffffffffffffffffffffffffff1663dd62ed3e33600360009054906101000a900473ffffffffffffffffffffffffffffffffffffffff166040518363ffffffff1660e01b81526004016116899291906124c7565b60206040518083038186803b1580156116a157600080fd5b505afa1580156116b5573d6000803e3d6000fd5b505050506040513d601f19601f820116820180604052508101906116d991906124f0565b101561171a576040517f08c379a00000000000000000000000000000000000000000000000000000000081526004016117119061258f565b60405180910390fd5b83600660009054906101000a900473ffffffffffffffffffffffffffffffffffffffff1673ffffffffffffffffffffffffffffffffffffffff166370a08231336040518263ffffffff1660e01b81526004016117769190612207565b60206040518083038186803b15801561178e57600080fd5b505afa1580156117a2573d6000803e3d6000fd5b505050506040513d601f19601f820116820180604052508101906117c691906124f0565b1015611807576040517f08c379a00000000000000000000000000000000000000000000000000000000081526004016117fe90612621565b60405180910390fd5b85602001518660000151108015611825575085604001518660000151105b8015611835575085600001518311155b80156118445750818660000151105b611883576040517f08c379a000000000000000000000000000000000000000000000000000000000815260040161187a9061268d565b60405180910390fd5b85600001516005600089815260200190815260200160002060030181905550856020015160056000898152602001908152602001600020600401819055508560400151600560008981526020019081526020016000206005018190555085606001516005600089815260200190815260200160002060060160006101000a81548160ff0219169083151502179055506005600088815260200190815260200160002060010154873373ffffffffffffffffffffffffffffffffffffffff167f4eaf0ceab66b4ee8b1aae73a3fbe69e07c77cebb95a22586dbd93c2448f75c63600560008c815260200190815260200160002060405161198291906128a4565b60405180910390a450505050505050565b600260009054906101000a900473ffffffffffffffffffffffffffffffffffffffff1681565b6119c1611cfd565b80600660006101000a81548173ffffffffffffffffffffffffffffffffffffffff021916908373ffffffffffffffffffffffffffffffffffffffff16021790555050565b803373ffffffffffffffffffffffffffffffffffffffff166005600083815260200190815260200160002060020160009054906101000a900473ffffffffffffffffffffffffffffffffffffffff1673ffffffffffffffffffffffffffffffffffffffff1614611aaa576040517f08c379a0000000000000000000000000000000000000000000000000000000008152600401611aa190612e6f565b60405180910390fd5b60016004811115611abe57611abd6120b9565b5b6005600084815260200190815260200160002060060160019054906101000a900460ff166004811115611af457611af36120b9565b5b14611b34576040517f08c379a0000000000000000000000000000000000000000000000000000000008152600401611b2b90612984565b60405180910390fd5b60046005600084815260200190815260200160002060060160016101000a81548160ff02191690836004811115611b6e57611b6d6120b9565b5b0217905550813373ffffffffffffffffffffffffffffffffffffffff167f5d423f6a55211a90b8438786aa7edfa40d3eef381b6aae048b52daf814c1646260405160405180910390a35050565b600360009054906101000a900473ffffffffffffffffffffffffffffffffffffffff1681565b611be9611cfd565b600073ffffffffffffffffffffffffffffffffffffffff168173ffffffffffffffffffffffffffffffffffffffff161415611c59576040517f08c379a0000000000000000000000000000000000000000000000000000000008152600401611c5090612f01565b60405180910390fd5b611c6281611d7b565b50565b600660009054906101000a900473ffffffffffffffffffffffffffffffffffffffff1681565b611c93611cfd565b80600160006101000a81548173ffffffffffffffffffffffffffffffffffffffff021916908373ffffffffffffffffffffffffffffffffffffffff16021790555050565b600160009054906101000a900473ffffffffffffffffffffffffffffffffffffffff1681565b611d05611e3f565b73ffffffffffffffffffffffffffffffffffffffff16611d23611324565b73ffffffffffffffffffffffffffffffffffffffff1614611d79576040517f08c379a0000000000000000000000000000000000000000000000000000000008152600401611d7090612f6d565b60405180910390fd5b565b60008060009054906101000a900473ffffffffffffffffffffffffffffffffffffffff169050816000806101000a81548173ffffffffffffffffffffffffffffffffffffffff021916908373ffffffffffffffffffffffffffffffffffffffff1602179055508173ffffffffffffffffffffffffffffffffffffffff168173ffffffffffffffffffffffffffffffffffffffff167f8be0079c531659141344cd1fd0a4f28419497f9722a3daafe3b4186f6b6457e060405160405180910390a35050565b600033905090565b6000819050919050565b611e5a81611e47565b82525050565b6000602082019050611e756000830184611e51565b92915050565b6000604051905090565b600080fd5b600080fd5b611e9881611e47565b8114611ea357600080fd5b50565b600081359050611eb581611e8f565b92915050565b600080fd5b6000601f19601f8301169050919050565b7f4e487b7100000000000000000000000000000000000000000000000000000000600052604160045260246000fd5b611f0982611ec0565b810181811067ffffffffffffffff82111715611f2857611f27611ed1565b5b80604052505050565b6000611f3b611e7b565b9050611f478282611f00565b919050565b60008115159050919050565b611f6181611f4c565b8114611f6c57600080fd5b50565b600081359050611f7e81611f58565b92915050565b600060808284031215611f9a57611f99611ebb565b5b611fa46080611f31565b90506000611fb484828501611ea6565b6000830152506020611fc884828501611ea6565b6020830152506040611fdc84828501611ea6565b6040830152506060611ff084828501611f6f565b60608301525092915050565b60008060a0838503121561201357612012611e85565b5b600061202185828601611ea6565b925050602061203285828601611f84565b9150509250929050565b60006020828403121561205257612051611e85565b5b600061206084828501611ea6565b91505092915050565b600073ffffffffffffffffffffffffffffffffffffffff82169050919050565b600061209482612069565b9050919050565b6120a481612089565b82525050565b6120b381611f4c565b82525050565b7f4e487b7100000000000000000000000000000000000000000000000000000000600052602160045260246000fd5b600581106120f9576120f86120b9565b5b50565b600081905061210a826120e8565b919050565b600061211a826120fc565b9050919050565b61212a8161210f565b82525050565b600061010082019050612146600083018b611e51565b612153602083018a611e51565b612160604083018961209b565b61216d6060830188611e51565b61217a6080830187611e51565b61218760a0830186611e51565b61219460c08301856120aa565b6121a160e0830184612121565b9998505050505050505050565b6121b781612089565b81146121c257600080fd5b50565b6000813590506121d4816121ae565b92915050565b6000602082840312156121f0576121ef611e85565b5b60006121fe848285016121c5565b91505092915050565b600060208201905061221c600083018461209b565b92915050565b60008151905061223181611e8f565b92915050565b600081519050612246816121ae565b92915050565b600080fd5b600080fd5b600067ffffffffffffffff82111561227157612270611ed1565b5b61227a82611ec0565b9050602081019050919050565b60005b838110156122a557808201518184015260208101905061228a565b838111156122b4576000848401525b50505050565b60006122cd6122c884612256565b611f31565b9050828152602081018484840111156122e9576122e8612251565b5b6122f4848285612287565b509392505050565b600082601f8301126123115761231061224c565b5b81516123218482602086016122ba565b91505092915050565b6004811061233757600080fd5b50565b6000815190506123498161232a565b92915050565b6000806000806000806000806000806101408b8d03121561237357612372611e85565b5b60006123818d828e01612222565b9a505060206123928d828e01612237565b99505060406123a38d828e01612237565b98505060606123b48d828e01612222565b97505060806123c58d828e01612222565b96505060a06123d68d828e01612222565b95505060c06123e78d828e01612222565b94505060e06123f88d828e01612222565b9350506101008b015167ffffffffffffffff81111561241a57612419611e8a565b5b6124268d828e016122fc565b9250506101206124388d828e0161233a565b9150509295989b9194979a5092959850565b600082825260208201905092915050565b7f4c697374696e6720696e76616c69640000000000000000000000000000000000600082015250565b6000612491600f8361244a565b915061249c8261245b565b602082019050919050565b600060208201905081810360008301526124c081612484565b9050919050565b60006040820190506124dc600083018561209b565b6124e9602083018461209b565b9392505050565b60006020828403121561250657612505611e85565b5b600061251484828501612222565b91505092915050565b7f457363726f7720636f6e7472616374206973206e6f7420617070726f7665642060008201527f746f207472616e7366657220636f6c6c61746572616c00000000000000000000602082015250565b600061257960368361244a565b91506125848261251d565b604082019050919050565b600060208201905081810360008301526125a88161256c565b9050919050565b7f4e6f7420656e6f75676820746f6b656e2062616c616e636520746f20636f766560008201527f722074686520636f6c6c61746572616c00000000000000000000000000000000602082015250565b600061260b60308361244a565b9150612616826125af565b604082019050919050565b6000602082019050818103600083015261263a816125fe565b9050919050565b7f54696d657374616d70206572726f720000000000000000000000000000000000600082015250565b6000612677600f8361244a565b915061268282612641565b602082019050919050565b600060208201905081810360008301526126a68161266a565b9050919050565b60008160001c9050919050565b6000819050919050565b60006126d76126d2836126ad565b6126ba565b9050919050565b6126e781611e47565b82525050565b600073ffffffffffffffffffffffffffffffffffffffff82169050919050565b600061272061271b836126ad565b6126ed565b9050919050565b61273081612089565b82525050565b600060ff82169050919050565b6000612756612751836126ad565b612736565b9050919050565b61276681611f4c565b82525050565b60008160081c9050919050565b600060ff82169050919050565b60006127996127948361276c565b612779565b9050919050565b6127a98161210f565b82525050565b610100820160008083015490506127c5816126c4565b6127d260008601826126de565b50600183015490506127e3816126c4565b6127f060208601826126de565b50600283015490506128018161270d565b61280e6040860182612727565b506003830154905061281f816126c4565b61282c60608601826126de565b506004830154905061283d816126c4565b61284a60808601826126de565b506005830154905061285b816126c4565b61286860a08601826126de565b506006830154905061287981612743565b61288660c086018261275d565b5061289081612786565b61289d60e08601826127a0565b5050505050565b6000610100820190506128ba60008301846127af565b92915050565b7f4e487b7100000000000000000000000000000000000000000000000000000000600052601160045260246000fd5b60006128fa82611e47565b91507fffffffffffffffffffffffffffffffffffffffffffffffffffffffffffffffff82141561292d5761292c6128c0565b5b600182019050919050565b7f50726f706f73616c20696e76616c696400000000000000000000000000000000600082015250565b600061296e60108361244a565b915061297982612938565b602082019050919050565b6000602082019050818103600083015261299d81612961565b9050919050565b7f4e6f7420616c6c6f77656420746f2061636365707420746869732070726f706f60008201527f73616c0000000000000000000000000000000000000000000000000000000000602082015250565b6000612a0060238361244a565b9150612a0b826129a4565b604082019050919050565b60006020820190508181036000830152612a2f816129f3565b9050919050565b7f4c697374696e6720657870697265640000000000000000000000000000000000600082015250565b6000612a6c600f8361244a565b9150612a7782612a36565b602082019050919050565b60006020820190508181036000830152612a9b81612a5f565b9050919050565b7f50726f706f73616c206578706972656400000000000000000000000000000000600082015250565b6000612ad860108361244a565b9150612ae382612aa2565b602082019050919050565b60006020820190508181036000830152612b0781612acb565b9050919050565b600081519050612b1d81611f58565b92915050565b600060208284031215612b3957612b38611e85565b5b6000612b4784828501612b0e565b91505092915050565b7f457363726f7720636f6e7472616374206973206e6f7420617070726f7665642060008201527f746f207472616e736665722074686973206e6674000000000000000000000000602082015250565b6000612bac60348361244a565b9150612bb782612b50565b604082019050919050565b60006020820190508181036000830152612bdb81612b9f565b9050919050565b600060208284031215612bf857612bf7611e85565b5b6000612c0684828501612237565b91505092915050565b7f596f7520617265206e6f7420746865206f776e6572206f6620746865206e6674600082015250565b6000612c4560208361244a565b9150612c5082612c0f565b602082019050919050565b60006020820190508181036000830152612c7481612c38565b9050919050565b61012082016000820151612c926000850182612727565b506020820151612ca56020850182612727565b506040820151612cb86040850182612727565b506060820151612ccb60608501826126de565b506080820151612cde60808501826126de565b5060a0820151612cf160a08501826126de565b5060c0820151612d0460c08501826126de565b5060e0820151612d1760e08501826126de565b50610100820151612d2c61010085018261275d565b50505050565b604082016000820151612d4860008501826126de565b506020820151612d5b60208501826126de565b50505050565b600061016082019050612d776000830185612c7b565b612d85610120830184612d32565b9392505050565b60048110612d9d57612d9c6120b9565b5b50565b6000819050612dae82612d8c565b919050565b6000612dbe82612da0565b9050919050565b612dce81612db3565b82525050565b6000604082019050612de96000830185611e51565b612df66020830184612dc5565b9392505050565b7f4572726f723a20796f7520617265206e6f7420746865206f776e6572206f662060008201527f7468652070726f706f73616c0000000000000000000000000000000000000000602082015250565b6000612e59602c8361244a565b9150612e6482612dfd565b604082019050919050565b60006020820190508181036000830152612e8881612e4c565b9050919050565b7f4f776e61626c653a206e6577206f776e657220697320746865207a65726f206160008201527f6464726573730000000000000000000000000000000000000000000000000000602082015250565b6000612eeb60268361244a565b9150612ef682612e8f565b604082019050919050565b60006020820190508181036000830152612f1a81612ede565b9050919050565b7f4f776e61626c653a2063616c6c6572206973206e6f7420746865206f776e6572600082015250565b6000612f5760208361244a565b9150612f6282612f21565b602082019050919050565b60006020820190508181036000830152612f8681612f4a565b905091905056fea2646970667358221220fb5a9ace650a21974bb0e3b05382b51af6ff2e9b0cb85fe5b1b9a711e243cec164736f6c63430008090033",
  "devdoc": {
    "kind": "dev",
    "methods": {
      "owner()": {
        "details": "Returns the address of the current owner."
      },
      "renounceOwnership()": {
        "details": "Leaves the contract without owner. It will not be possible to call `onlyOwner` functions. Can only be called by the current owner. NOTE: Renouncing ownership will leave the contract without an owner, thereby disabling any functionality that is only available to the owner."
      },
      "transferOwnership(address)": {
        "details": "Transfers ownership of the contract to a new account (`newOwner`). Can only be called by the current owner."
      }
    },
    "version": 1
  },
  "userdoc": {
    "kind": "user",
    "methods": {},
    "version": 1
  },
  "storageLayout": {
    "storage": [
      {
        "astId": 7,
        "contract": "contracts/ProposalManager.sol:ProposalManager",
        "label": "_owner",
        "offset": 0,
        "slot": "0",
        "type": "t_address"
      },
      {
        "astId": 4827,
        "contract": "contracts/ProposalManager.sol:ProposalManager",
        "label": "listingManager",
        "offset": 0,
        "slot": "1",
        "type": "t_address"
      },
      {
        "astId": 4829,
        "contract": "contracts/ProposalManager.sol:ProposalManager",
        "label": "rentalManager",
        "offset": 0,
        "slot": "2",
        "type": "t_address"
      },
      {
        "astId": 4831,
        "contract": "contracts/ProposalManager.sol:ProposalManager",
        "label": "escrow",
        "offset": 0,
        "slot": "3",
        "type": "t_address"
      },
      {
        "astId": 4834,
        "contract": "contracts/ProposalManager.sol:ProposalManager",
        "label": "totalNumProposal",
        "offset": 0,
        "slot": "4",
        "type": "t_uint256"
      },
      {
        "astId": 4839,
        "contract": "contracts/ProposalManager.sol:ProposalManager",
        "label": "proposalIdToProposal",
        "offset": 0,
        "slot": "5",
        "type": "t_mapping(t_uint256,t_struct(Proposal)4825_storage)"
      },
      {
        "astId": 4841,
        "contract": "contracts/ProposalManager.sol:ProposalManager",
        "label": "erc20DenominationUsed",
        "offset": 0,
        "slot": "6",
        "type": "t_address"
      }
    ],
    "types": {
      "t_address": {
        "encoding": "inplace",
        "label": "address",
        "numberOfBytes": "20"
      },
      "t_bool": {
        "encoding": "inplace",
        "label": "bool",
        "numberOfBytes": "1"
      },
      "t_enum(ProposalStatus)4798": {
        "encoding": "inplace",
        "label": "enum ProposalManager.ProposalStatus",
        "numberOfBytes": "1"
      },
      "t_mapping(t_uint256,t_struct(Proposal)4825_storage)": {
        "encoding": "mapping",
        "key": "t_uint256",
        "label": "mapping(uint256 => struct ProposalManager.Proposal)",
        "numberOfBytes": "32",
        "value": "t_struct(Proposal)4825_storage"
      },
      "t_struct(Proposal)4825_storage": {
        "encoding": "inplace",
        "label": "struct ProposalManager.Proposal",
        "members": [
          {
            "astId": 4809,
            "contract": "contracts/ProposalManager.sol:ProposalManager",
            "label": "proposalId",
            "offset": 0,
            "slot": "0",
            "type": "t_uint256"
          },
          {
            "astId": 4811,
            "contract": "contracts/ProposalManager.sol:ProposalManager",
            "label": "listingId",
            "offset": 0,
            "slot": "1",
            "type": "t_uint256"
          },
          {
            "astId": 4813,
            "contract": "contracts/ProposalManager.sol:ProposalManager",
            "label": "proposalCreator",
            "offset": 0,
            "slot": "2",
            "type": "t_address"
          },
          {
            "astId": 4815,
            "contract": "contracts/ProposalManager.sol:ProposalManager",
            "label": "startTimestampProposal",
            "offset": 0,
            "slot": "3",
            "type": "t_uint256"
          },
          {
            "astId": 4817,
            "contract": "contracts/ProposalManager.sol:ProposalManager",
            "label": "endTimestampProposal",
            "offset": 0,
            "slot": "4",
            "type": "t_uint256"
          },
          {
            "astId": 4819,
            "contract": "contracts/ProposalManager.sol:ProposalManager",
            "label": "endTimestampRental",
            "offset": 0,
            "slot": "5",
            "type": "t_uint256"
          },
          {
            "astId": 4821,
            "contract": "contracts/ProposalManager.sol:ProposalManager",
            "label": "isProRated",
            "offset": 0,
            "slot": "6",
            "type": "t_bool"
          },
          {
            "astId": 4824,
            "contract": "contracts/ProposalManager.sol:ProposalManager",
            "label": "status",
            "offset": 1,
            "slot": "6",
            "type": "t_enum(ProposalStatus)4798"
          }
        ],
        "numberOfBytes": "224"
      },
      "t_uint256": {
        "encoding": "inplace",
        "label": "uint256",
        "numberOfBytes": "32"
      }
    }
  }
}