{
  "address": "0x2279B7A0a67DB372996a5FaB50D91eAA73d2eBe6",
  "abi": [
    {
      "inputs": [],
      "stateMutability": "nonpayable",
      "type": "constructor"
    },
    {
      "anonymous": false,
      "inputs": [
        {
          "indexed": true,
          "internalType": "address",
          "name": "previousOwner",
          "type": "address"
        },
        {
          "indexed": true,
          "internalType": "address",
          "name": "newOwner",
          "type": "address"
        }
      ],
      "name": "OwnershipTransferred",
      "type": "event"
    },
    {
      "anonymous": false,
      "inputs": [
        {
          "indexed": true,
          "internalType": "address",
          "name": "owner",
          "type": "address"
        },
        {
          "indexed": true,
          "internalType": "address",
          "name": "renter",
          "type": "address"
        },
        {
          "indexed": true,
          "internalType": "uint256",
          "name": "rentalId",
          "type": "uint256"
        },
        {
          "components": [
            {
              "internalType": "uint256",
              "name": "rentalId",
              "type": "uint256"
            },
            {
              "components": [
                {
                  "internalType": "address",
                  "name": "owner",
                  "type": "address"
                },
                {
                  "internalType": "address",
                  "name": "renter",
                  "type": "address"
                },
                {
                  "internalType": "address",
                  "name": "assetContract",
                  "type": "address"
                },
                {
                  "internalType": "uint256",
                  "name": "tokenId",
                  "type": "uint256"
                },
                {
                  "internalType": "uint256",
                  "name": "collateralAmount",
                  "type": "uint256"
                },
                {
                  "internalType": "uint256",
                  "name": "pricePerDay",
                  "type": "uint256"
                },
                {
                  "internalType": "uint256",
                  "name": "startingDate",
                  "type": "uint256"
                },
                {
                  "internalType": "uint256",
                  "name": "endingDate",
                  "type": "uint256"
                },
                {
                  "internalType": "bool",
                  "name": "isProRated",
                  "type": "bool"
                }
              ],
              "internalType": "struct RentalManager.RentalDetails",
              "name": "details",
              "type": "tuple"
            },
            {
              "components": [
                {
                  "internalType": "uint256",
                  "name": "listingId",
                  "type": "uint256"
                },
                {
                  "internalType": "uint256",
                  "name": "proposalId",
                  "type": "uint256"
                }
              ],
              "internalType": "struct RentalManager.RentalInfo",
              "name": "info",
              "type": "tuple"
            },
            {
              "internalType": "enum RentalManager.RentalStatus",
              "name": "status",
              "type": "uint8"
            }
          ],
          "indexed": false,
          "internalType": "struct RentalManager.Rental",
          "name": "rental",
          "type": "tuple"
        }
      ],
      "name": "RentalCreated",
      "type": "event"
    },
    {
      "anonymous": false,
      "inputs": [
        {
          "indexed": true,
          "internalType": "address",
          "name": "owner",
          "type": "address"
        },
        {
          "indexed": true,
          "internalType": "address",
          "name": "renter",
          "type": "address"
        },
        {
          "indexed": true,
          "internalType": "uint256",
          "name": "rentalId",
          "type": "uint256"
        },
        {
          "components": [
            {
              "internalType": "uint256",
              "name": "rentalId",
              "type": "uint256"
            },
            {
              "components": [
                {
                  "internalType": "address",
                  "name": "owner",
                  "type": "address"
                },
                {
                  "internalType": "address",
                  "name": "renter",
                  "type": "address"
                },
                {
                  "internalType": "address",
                  "name": "assetContract",
                  "type": "address"
                },
                {
                  "internalType": "uint256",
                  "name": "tokenId",
                  "type": "uint256"
                },
                {
                  "internalType": "uint256",
                  "name": "collateralAmount",
                  "type": "uint256"
                },
                {
                  "internalType": "uint256",
                  "name": "pricePerDay",
                  "type": "uint256"
                },
                {
                  "internalType": "uint256",
                  "name": "startingDate",
                  "type": "uint256"
                },
                {
                  "internalType": "uint256",
                  "name": "endingDate",
                  "type": "uint256"
                },
                {
                  "internalType": "bool",
                  "name": "isProRated",
                  "type": "bool"
                }
              ],
              "internalType": "struct RentalManager.RentalDetails",
              "name": "details",
              "type": "tuple"
            },
            {
              "components": [
                {
                  "internalType": "uint256",
                  "name": "listingId",
                  "type": "uint256"
                },
                {
                  "internalType": "uint256",
                  "name": "proposalId",
                  "type": "uint256"
                }
              ],
              "internalType": "struct RentalManager.RentalInfo",
              "name": "info",
              "type": "tuple"
            },
            {
              "internalType": "enum RentalManager.RentalStatus",
              "name": "status",
              "type": "uint8"
            }
          ],
          "indexed": false,
          "internalType": "struct RentalManager.Rental",
          "name": "rental",
          "type": "tuple"
        }
      ],
      "name": "RentalLiquidated",
      "type": "event"
    },
    {
      "anonymous": false,
      "inputs": [
        {
          "indexed": true,
          "internalType": "address",
          "name": "owner",
          "type": "address"
        },
        {
          "indexed": true,
          "internalType": "address",
          "name": "renter",
          "type": "address"
        },
        {
          "indexed": true,
          "internalType": "uint256",
          "name": "rentalId",
          "type": "uint256"
        },
        {
          "components": [
            {
              "internalType": "uint256",
              "name": "rentalId",
              "type": "uint256"
            },
            {
              "components": [
                {
                  "internalType": "address",
                  "name": "owner",
                  "type": "address"
                },
                {
                  "internalType": "address",
                  "name": "renter",
                  "type": "address"
                },
                {
                  "internalType": "address",
                  "name": "assetContract",
                  "type": "address"
                },
                {
                  "internalType": "uint256",
                  "name": "tokenId",
                  "type": "uint256"
                },
                {
                  "internalType": "uint256",
                  "name": "collateralAmount",
                  "type": "uint256"
                },
                {
                  "internalType": "uint256",
                  "name": "pricePerDay",
                  "type": "uint256"
                },
                {
                  "internalType": "uint256",
                  "name": "startingDate",
                  "type": "uint256"
                },
                {
                  "internalType": "uint256",
                  "name": "endingDate",
                  "type": "uint256"
                },
                {
                  "internalType": "bool",
                  "name": "isProRated",
                  "type": "bool"
                }
              ],
              "internalType": "struct RentalManager.RentalDetails",
              "name": "details",
              "type": "tuple"
            },
            {
              "components": [
                {
                  "internalType": "uint256",
                  "name": "listingId",
                  "type": "uint256"
                },
                {
                  "internalType": "uint256",
                  "name": "proposalId",
                  "type": "uint256"
                }
              ],
              "internalType": "struct RentalManager.RentalInfo",
              "name": "info",
              "type": "tuple"
            },
            {
              "internalType": "enum RentalManager.RentalStatus",
              "name": "status",
              "type": "uint8"
            }
          ],
          "indexed": false,
          "internalType": "struct RentalManager.Rental",
          "name": "rental",
          "type": "tuple"
        }
      ],
      "name": "RentalRefunded",
      "type": "event"
    },
    {
      "inputs": [
        {
          "components": [
            {
              "internalType": "address",
              "name": "owner",
              "type": "address"
            },
            {
              "internalType": "address",
              "name": "renter",
              "type": "address"
            },
            {
              "internalType": "address",
              "name": "assetContract",
              "type": "address"
            },
            {
              "internalType": "uint256",
              "name": "tokenId",
              "type": "uint256"
            },
            {
              "internalType": "uint256",
              "name": "collateralAmount",
              "type": "uint256"
            },
            {
              "internalType": "uint256",
              "name": "pricePerDay",
              "type": "uint256"
            },
            {
              "internalType": "uint256",
              "name": "startingDate",
              "type": "uint256"
            },
            {
              "internalType": "uint256",
              "name": "endingDate",
              "type": "uint256"
            },
            {
              "internalType": "bool",
              "name": "isProRated",
              "type": "bool"
            }
          ],
          "internalType": "struct RentalManager.RentalDetails",
          "name": "_details",
          "type": "tuple"
        },
        {
          "components": [
            {
              "internalType": "uint256",
              "name": "listingId",
              "type": "uint256"
            },
            {
              "internalType": "uint256",
              "name": "proposalId",
              "type": "uint256"
            }
          ],
          "internalType": "struct RentalManager.RentalInfo",
          "name": "_info",
          "type": "tuple"
        }
      ],
      "name": "createRental",
      "outputs": [],
      "stateMutability": "nonpayable",
      "type": "function"
    },
    {
      "inputs": [],
      "name": "erc20DenominationUsed",
      "outputs": [
        {
          "internalType": "address",
          "name": "",
          "type": "address"
        }
      ],
      "stateMutability": "view",
      "type": "function"
    },
    {
      "inputs": [],
      "name": "escrow",
      "outputs": [
        {
          "internalType": "address",
          "name": "",
          "type": "address"
        }
      ],
      "stateMutability": "view",
      "type": "function"
    },
    {
      "inputs": [
        {
          "internalType": "uint256",
          "name": "_rentalId",
          "type": "uint256"
        }
      ],
      "name": "liquidateRental",
      "outputs": [],
      "stateMutability": "nonpayable",
      "type": "function"
    },
    {
      "inputs": [],
      "name": "listingManager",
      "outputs": [
        {
          "internalType": "address",
          "name": "",
          "type": "address"
        }
      ],
      "stateMutability": "view",
      "type": "function"
    },
    {
      "inputs": [],
      "name": "owner",
      "outputs": [
        {
          "internalType": "address",
          "name": "",
          "type": "address"
        }
      ],
      "stateMutability": "view",
      "type": "function"
    },
    {
      "inputs": [],
      "name": "proposalManager",
      "outputs": [
        {
          "internalType": "address",
          "name": "",
          "type": "address"
        }
      ],
      "stateMutability": "view",
      "type": "function"
    },
    {
      "inputs": [
        {
          "internalType": "uint256",
          "name": "_rentalId",
          "type": "uint256"
        }
      ],
      "name": "refundRental",
      "outputs": [],
      "stateMutability": "nonpayable",
      "type": "function"
    },
    {
      "inputs": [],
      "name": "renounceOwnership",
      "outputs": [],
      "stateMutability": "nonpayable",
      "type": "function"
    },
    {
      "inputs": [
        {
          "internalType": "uint256",
          "name": "",
          "type": "uint256"
        }
      ],
      "name": "rentalIdToRental",
      "outputs": [
        {
          "internalType": "uint256",
          "name": "rentalId",
          "type": "uint256"
        },
        {
          "components": [
            {
              "internalType": "address",
              "name": "owner",
              "type": "address"
            },
            {
              "internalType": "address",
              "name": "renter",
              "type": "address"
            },
            {
              "internalType": "address",
              "name": "assetContract",
              "type": "address"
            },
            {
              "internalType": "uint256",
              "name": "tokenId",
              "type": "uint256"
            },
            {
              "internalType": "uint256",
              "name": "collateralAmount",
              "type": "uint256"
            },
            {
              "internalType": "uint256",
              "name": "pricePerDay",
              "type": "uint256"
            },
            {
              "internalType": "uint256",
              "name": "startingDate",
              "type": "uint256"
            },
            {
              "internalType": "uint256",
              "name": "endingDate",
              "type": "uint256"
            },
            {
              "internalType": "bool",
              "name": "isProRated",
              "type": "bool"
            }
          ],
          "internalType": "struct RentalManager.RentalDetails",
          "name": "details",
          "type": "tuple"
        },
        {
          "components": [
            {
              "internalType": "uint256",
              "name": "listingId",
              "type": "uint256"
            },
            {
              "internalType": "uint256",
              "name": "proposalId",
              "type": "uint256"
            }
          ],
          "internalType": "struct RentalManager.RentalInfo",
          "name": "info",
          "type": "tuple"
        },
        {
          "internalType": "enum RentalManager.RentalStatus",
          "name": "status",
          "type": "uint8"
        }
      ],
      "stateMutability": "view",
      "type": "function"
    },
    {
      "inputs": [
        {
          "internalType": "address",
          "name": "_erc20DenominationUsed",
          "type": "address"
        }
      ],
      "name": "setERC20",
      "outputs": [],
      "stateMutability": "nonpayable",
      "type": "function"
    },
    {
      "inputs": [
        {
          "internalType": "address",
          "name": "_escrow",
          "type": "address"
        }
      ],
      "name": "setEscrow",
      "outputs": [],
      "stateMutability": "nonpayable",
      "type": "function"
    },
    {
      "inputs": [
        {
          "internalType": "address",
          "name": "_listingManager",
          "type": "address"
        }
      ],
      "name": "setListingManager",
      "outputs": [],
      "stateMutability": "nonpayable",
      "type": "function"
    },
    {
      "inputs": [
        {
          "internalType": "address",
          "name": "_proposalManager",
          "type": "address"
        }
      ],
      "name": "setProposalManager",
      "outputs": [],
      "stateMutability": "nonpayable",
      "type": "function"
    },
    {
      "inputs": [],
      "name": "totalNumRental",
      "outputs": [
        {
          "internalType": "uint256",
          "name": "",
          "type": "uint256"
        }
      ],
      "stateMutability": "view",
      "type": "function"
    },
    {
      "inputs": [
        {
          "internalType": "address",
          "name": "newOwner",
          "type": "address"
        }
      ],
      "name": "transferOwnership",
      "outputs": [],
      "stateMutability": "nonpayable",
      "type": "function"
    }
  ],
  "transactionHash": "0x82f31df4f7f165f88e1b0d44af4ad607ab31b59065361669d73dd84f720a06c8",
  "args": [],
  "numDeployments": 1,
  "solcInputHash": "fbce8e838ef917cc3d1eada4fe1cb18c",
  "bytecode": "0x608060405260006001553480156200001657600080fd5b50620000376200002b6200003d60201b60201c565b6200004560201b60201c565b62000109565b600033905090565b60008060009054906101000a900473ffffffffffffffffffffffffffffffffffffffff169050816000806101000a81548173ffffffffffffffffffffffffffffffffffffffff021916908373ffffffffffffffffffffffffffffffffffffffff1602179055508173ffffffffffffffffffffffffffffffffffffffff168173ffffffffffffffffffffffffffffffffffffffff167f8be0079c531659141344cd1fd0a4f28419497f9722a3daafe3b4186f6b6457e060405160405180910390a35050565b61291380620001196000396000f3fe608060405234801561001057600080fd5b50600436106101005760003560e01c8063c29a6fda11610097578063f5fdf56d11610066578063f5fdf56d14610260578063f93d2b9d1461027e578063fa037b931461029c578063fdbddd56146102b857610100565b8063c29a6fda146101ee578063d10a69611461020a578063e2fdcc1714610226578063f2fde38b1461024457610100565b8063715018a6116100d3578063715018a6146101775780638da5cb5b14610181578063aace18c41461019f578063c10c3546146101d257610100565b806302f89be21461010557806325023f0b146101235780632876929c1461013f5780635c2e261a1461015b575b600080fd5b61010d6102d6565b60405161011a919061195f565b60405180910390f35b61013d600480360381019061013891906119b5565b6102fc565b005b61015960048036038101906101549190611a18565b610348565b005b61017560048036038101906101709190611a18565b610bac565b005b61017f610f76565b005b610189610f8a565b604051610196919061195f565b60405180910390f35b6101b960048036038101906101b49190611a18565b610fb3565b6040516101c99493929190611bea565b60405180910390f35b6101ec60048036038101906101e791906119b5565b611168565b005b610208600480360381019061020391906119b5565b6111b4565b005b610224600480360381019061021f9190611e1f565b611200565b005b61022e61168c565b60405161023b919061195f565b60405180910390f35b61025e600480360381019061025991906119b5565b6116b2565b005b610268611736565b604051610275919061195f565b60405180910390f35b61028661175c565b6040516102939190611e61565b60405180910390f35b6102b660048036038101906102b191906119b5565b611762565b005b6102c06117ae565b6040516102cd919061195f565b60405180910390f35b600560009054906101000a900473ffffffffffffffffffffffffffffffffffffffff1681565b6103046117d4565b80600560006101000a81548173ffffffffffffffffffffffffffffffffffffffff021916908373ffffffffffffffffffffffffffffffffffffffff16021790555050565b3373ffffffffffffffffffffffffffffffffffffffff166002600083815260200190815260200160002060010160010160009054906101000a900473ffffffffffffffffffffffffffffffffffffffff1673ffffffffffffffffffffffffffffffffffffffff16146103ef576040517f08c379a00000000000000000000000000000000000000000000000000000000081526004016103e690611ed9565b60405180910390fd5b6001600481111561040357610402611b73565b5b60026000838152602001908152602001600020600c0160009054906101000a900460ff16600481111561043957610438611b73565b5b148061048c57506002600481111561045457610453611b73565b5b60026000838152602001908152602001600020600c0160009054906101000a900460ff16600481111561048a57610489611b73565b5b145b6104cb576040517f08c379a00000000000000000000000000000000000000000000000000000000081526004016104c290611f45565b60405180910390fd5b600115156002600083815260200190815260200160002060010160020160009054906101000a900473ffffffffffffffffffffffffffffffffffffffff1673ffffffffffffffffffffffffffffffffffffffff1663e985e9c533600660009054906101000a900473ffffffffffffffffffffffffffffffffffffffff166040518363ffffffff1660e01b8152600401610565929190611f65565b60206040518083038186803b15801561057d57600080fd5b505afa158015610591573d6000803e3d6000fd5b505050506040513d601f19601f820116820180604052508101906105b59190611fa3565b1515146105f7576040517f08c379a00000000000000000000000000000000000000000000000000000000081526004016105ee90612042565b60405180910390fd5b3373ffffffffffffffffffffffffffffffffffffffff166002600083815260200190815260200160002060010160020160009054906101000a900473ffffffffffffffffffffffffffffffffffffffff1673ffffffffffffffffffffffffffffffffffffffff16636352211e60026000858152602001908152602001600020600101600301546040518263ffffffff1660e01b81526004016106999190611e61565b60206040518083038186803b1580156106b157600080fd5b505afa1580156106c5573d6000803e3d6000fd5b505050506040513d601f19601f820116820180604052508101906106e99190612077565b73ffffffffffffffffffffffffffffffffffffffff161461073f576040517f08c379a0000000000000000000000000000000000000000000000000000000008152600401610736906120f0565b60405180910390fd5b600660009054906101000a900473ffffffffffffffffffffffffffffffffffffffff1673ffffffffffffffffffffffffffffffffffffffff1663e7236a936002600084815260200190815260200160002060010160010160009054906101000a900473ffffffffffffffffffffffffffffffffffffffff166002600085815260200190815260200160002060010160000160009054906101000a900473ffffffffffffffffffffffffffffffffffffffff166002600086815260200190815260200160002060010160020160009054906101000a900473ffffffffffffffffffffffffffffffffffffffff1660026000878152602001908152602001600020600101600301546040518563ffffffff1660e01b81526004016108649493929190612110565b600060405180830381600087803b15801561087e57600080fd5b505af1158015610892573d6000803e3d6000fd5b5050505060006002600083815260200190815260200160002060010160080160009054906101000a900460ff16156108f0576002600083815260200190815260200160002060010160060154426108e99190612184565b905061093e565b60026000838152602001908152602001600020600101600601546103e8600260008581526020019081526020016000206001016007015461093191906121e7565b61093b9190612184565b90505b60006201518090506000816001836109569190612184565b846109619190612218565b61096b91906121e7565b90506000816002600087815260200190815260200160002060010160050154610994919061226e565b9050600660009054906101000a900473ffffffffffffffffffffffffffffffffffffffff1673ffffffffffffffffffffffffffffffffffffffff1663ce24f55e600360009054906101000a900473ffffffffffffffffffffffffffffffffffffffff1633600260008a815260200190815260200160002060010160040154600260008b815260200190815260200160002060010160000160009054906101000a900473ffffffffffffffffffffffffffffffffffffffff16866040518663ffffffff1660e01b8152600401610a6d9594939291906122c8565b600060405180830381600087803b158015610a8757600080fd5b505af1158015610a9b573d6000803e3d6000fd5b50505050600360026000878152602001908152602001600020600c0160006101000a81548160ff02191690836004811115610ad957610ad8611b73565b5b021790555060026000868152602001908152602001600020600001543373ffffffffffffffffffffffffffffffffffffffff166002600088815260200190815260200160002060010160000160009054906101000a900473ffffffffffffffffffffffffffffffffffffffff1673ffffffffffffffffffffffffffffffffffffffff167f70bca1c0e7c239c3639a81d9ba719e58e06a4394efa93daffb26492e881f3e9e600260008a8152602001908152602001600020604051610b9d91906125b3565b60405180910390a45050505050565b3373ffffffffffffffffffffffffffffffffffffffff166002600083815260200190815260200160002060010160000160009054906101000a900473ffffffffffffffffffffffffffffffffffffffff1673ffffffffffffffffffffffffffffffffffffffff1614610c53576040517f08c379a0000000000000000000000000000000000000000000000000000000008152600401610c4a9061261b565b60405180910390fd5b60026004811115610c6757610c66611b73565b5b60026000838152602001908152602001600020600c0160009054906101000a900460ff166004811115610c9d57610c9c611b73565b5b1480610d145750600260008281526020019081526020016000206001016007015442118015610d13575060016004811115610cdb57610cda611b73565b5b60026000838152602001908152602001600020600c0160009054906101000a900460ff166004811115610d1157610d10611b73565b5b145b5b610d53576040517f08c379a0000000000000000000000000000000000000000000000000000000008152600401610d4a90611f45565b60405180910390fd5b6000600660009054906101000a900473ffffffffffffffffffffffffffffffffffffffff1673ffffffffffffffffffffffffffffffffffffffff1662953724600360009054906101000a900473ffffffffffffffffffffffffffffffffffffffff163360026000878152602001908152602001600020600101600401546040518463ffffffff1660e01b8152600401610dee9392919061263b565b602060405180830381600087803b158015610e0857600080fd5b505af1158015610e1c573d6000803e3d6000fd5b505050506040513d601f19601f82011682018060405250810190610e409190611fa3565b905080610e82576040517f08c379a0000000000000000000000000000000000000000000000000000000008152600401610e79906126e4565b60405180910390fd5b600460026000848152602001908152602001600020600c0160006101000a81548160ff02191690836004811115610ebc57610ebb611b73565b5b0217905550816002600084815260200190815260200160002060010160010160009054906101000a900473ffffffffffffffffffffffffffffffffffffffff1673ffffffffffffffffffffffffffffffffffffffff163373ffffffffffffffffffffffffffffffffffffffff167f9a834146b78daedf02dc3fc9906c55cc67f47a61e7acf882008695366dc8ac5060026000878152602001908152602001600020604051610f6a91906125b3565b60405180910390a45050565b610f7e6117d4565b610f886000611852565b565b60008060009054906101000a900473ffffffffffffffffffffffffffffffffffffffff16905090565b600260205280600052604060002060009150905080600001549080600101604051806101200160405290816000820160009054906101000a900473ffffffffffffffffffffffffffffffffffffffff1673ffffffffffffffffffffffffffffffffffffffff1673ffffffffffffffffffffffffffffffffffffffff1681526020016001820160009054906101000a900473ffffffffffffffffffffffffffffffffffffffff1673ffffffffffffffffffffffffffffffffffffffff1673ffffffffffffffffffffffffffffffffffffffff1681526020016002820160009054906101000a900473ffffffffffffffffffffffffffffffffffffffff1673ffffffffffffffffffffffffffffffffffffffff1673ffffffffffffffffffffffffffffffffffffffff16815260200160038201548152602001600482015481526020016005820154815260200160068201548152602001600782015481526020016008820160009054906101000a900460ff1615151515815250509080600a01604051806040016040529081600082015481526020016001820154815250509080600c0160009054906101000a900460ff16905084565b6111706117d4565b80600660006101000a81548173ffffffffffffffffffffffffffffffffffffffff021916908373ffffffffffffffffffffffffffffffffffffffff16021790555050565b6111bc6117d4565b80600360006101000a81548173ffffffffffffffffffffffffffffffffffffffff021916908373ffffffffffffffffffffffffffffffffffffffff16021790555050565b600560009054906101000a900473ffffffffffffffffffffffffffffffffffffffff1673ffffffffffffffffffffffffffffffffffffffff163373ffffffffffffffffffffffffffffffffffffffff1614611290576040517f08c379a000000000000000000000000000000000000000000000000000000000815260040161128790612776565b60405180910390fd5b60405180608001604052806001548152602001838152602001828152602001600160048111156112c3576112c2611b73565b5b8152506002600060015481526020019081526020016000206000820151816000015560208201518160010160008201518160000160006101000a81548173ffffffffffffffffffffffffffffffffffffffff021916908373ffffffffffffffffffffffffffffffffffffffff16021790555060208201518160010160006101000a81548173ffffffffffffffffffffffffffffffffffffffff021916908373ffffffffffffffffffffffffffffffffffffffff16021790555060408201518160020160006101000a81548173ffffffffffffffffffffffffffffffffffffffff021916908373ffffffffffffffffffffffffffffffffffffffff160217905550606082015181600301556080820151816004015560a0820151816005015560c0820151816006015560e082015181600701556101008201518160080160006101000a81548160ff0219169083151502179055505050604082015181600a0160008201518160000155602082015181600101555050606082015181600c0160006101000a81548160ff0219169083600481111561146257611461611b73565b5b0217905550905050600660009054906101000a900473ffffffffffffffffffffffffffffffffffffffff1673ffffffffffffffffffffffffffffffffffffffff16637d05dfd883604001518460000151856020015186606001516040518563ffffffff1660e01b81526004016114db9493929190612110565b600060405180830381600087803b1580156114f557600080fd5b505af1158015611509573d6000803e3d6000fd5b50505050600660009054906101000a900473ffffffffffffffffffffffffffffffffffffffff1673ffffffffffffffffffffffffffffffffffffffff16632dc3e5c4600360009054906101000a900473ffffffffffffffffffffffffffffffffffffffff168460200151600660009054906101000a900473ffffffffffffffffffffffffffffffffffffffff1686608001516040518563ffffffff1660e01b81526004016115ba9493929190612110565b600060405180830381600087803b1580156115d457600080fd5b505af11580156115e8573d6000803e3d6000fd5b50505050600154826020015173ffffffffffffffffffffffffffffffffffffffff16836000015173ffffffffffffffffffffffffffffffffffffffff167fc4faa29067d9d075dadc056ab462b5117595bb83db35a1e5bc7647fa9925f0df60026000600154815260200190815260200160002060405161166891906125b3565b60405180910390a46001600081548092919061168390612796565b91905055505050565b600660009054906101000a900473ffffffffffffffffffffffffffffffffffffffff1681565b6116ba6117d4565b600073ffffffffffffffffffffffffffffffffffffffff168173ffffffffffffffffffffffffffffffffffffffff16141561172a576040517f08c379a000000000000000000000000000000000000000000000000000000000815260040161172190612851565b60405180910390fd5b61173381611852565b50565b600360009054906101000a900473ffffffffffffffffffffffffffffffffffffffff1681565b60015481565b61176a6117d4565b80600460006101000a81548173ffffffffffffffffffffffffffffffffffffffff021916908373ffffffffffffffffffffffffffffffffffffffff16021790555050565b600460009054906101000a900473ffffffffffffffffffffffffffffffffffffffff1681565b6117dc611916565b73ffffffffffffffffffffffffffffffffffffffff166117fa610f8a565b73ffffffffffffffffffffffffffffffffffffffff1614611850576040517f08c379a0000000000000000000000000000000000000000000000000000000008152600401611847906128bd565b60405180910390fd5b565b60008060009054906101000a900473ffffffffffffffffffffffffffffffffffffffff169050816000806101000a81548173ffffffffffffffffffffffffffffffffffffffff021916908373ffffffffffffffffffffffffffffffffffffffff1602179055508173ffffffffffffffffffffffffffffffffffffffff168173ffffffffffffffffffffffffffffffffffffffff167f8be0079c531659141344cd1fd0a4f28419497f9722a3daafe3b4186f6b6457e060405160405180910390a35050565b600033905090565b600073ffffffffffffffffffffffffffffffffffffffff82169050919050565b60006119498261191e565b9050919050565b6119598161193e565b82525050565b60006020820190506119746000830184611950565b92915050565b6000604051905090565b600080fd5b6119928161193e565b811461199d57600080fd5b50565b6000813590506119af81611989565b92915050565b6000602082840312156119cb576119ca611984565b5b60006119d9848285016119a0565b91505092915050565b6000819050919050565b6119f5816119e2565b8114611a0057600080fd5b50565b600081359050611a12816119ec565b92915050565b600060208284031215611a2e57611a2d611984565b5b6000611a3c84828501611a03565b91505092915050565b611a4e816119e2565b82525050565b611a5d8161193e565b82525050565b611a6c816119e2565b82525050565b60008115159050919050565b611a8781611a72565b82525050565b61012082016000820151611aa46000850182611a54565b506020820151611ab76020850182611a54565b506040820151611aca6040850182611a54565b506060820151611add6060850182611a63565b506080820151611af06080850182611a63565b5060a0820151611b0360a0850182611a63565b5060c0820151611b1660c0850182611a63565b5060e0820151611b2960e0850182611a63565b50610100820151611b3e610100850182611a7e565b50505050565b604082016000820151611b5a6000850182611a63565b506020820151611b6d6020850182611a63565b50505050565b7f4e487b7100000000000000000000000000000000000000000000000000000000600052602160045260246000fd5b60058110611bb357611bb2611b73565b5b50565b6000819050611bc482611ba2565b919050565b6000611bd482611bb6565b9050919050565b611be481611bc9565b82525050565b60006101a082019050611c006000830187611a45565b611c0d6020830186611a8d565b611c1b610140830185611b44565b611c29610180830184611bdb565b95945050505050565b600080fd5b6000601f19601f8301169050919050565b7f4e487b7100000000000000000000000000000000000000000000000000000000600052604160045260246000fd5b611c8082611c37565b810181811067ffffffffffffffff82111715611c9f57611c9e611c48565b5b80604052505050565b6000611cb261197a565b9050611cbe8282611c77565b919050565b611ccc81611a72565b8114611cd757600080fd5b50565b600081359050611ce981611cc3565b92915050565b60006101208284031215611d0657611d05611c32565b5b611d11610120611ca8565b90506000611d21848285016119a0565b6000830152506020611d35848285016119a0565b6020830152506040611d49848285016119a0565b6040830152506060611d5d84828501611a03565b6060830152506080611d7184828501611a03565b60808301525060a0611d8584828501611a03565b60a08301525060c0611d9984828501611a03565b60c08301525060e0611dad84828501611a03565b60e083015250610100611dc284828501611cda565b6101008301525092915050565b600060408284031215611de557611de4611c32565b5b611def6040611ca8565b90506000611dff84828501611a03565b6000830152506020611e1384828501611a03565b60208301525092915050565b6000806101608385031215611e3757611e36611984565b5b6000611e4585828601611cef565b925050610120611e5785828601611dcf565b9150509250929050565b6000602082019050611e766000830184611a45565b92915050565b600082825260208201905092915050565b7f4e6f7420616c6c6f77656420746f2072656e66756e6400000000000000000000600082015250565b6000611ec3601683611e7c565b9150611ece82611e8d565b602082019050919050565b60006020820190508181036000830152611ef281611eb6565b9050919050565b7f52656e74616c20696e76616c6964000000000000000000000000000000000000600082015250565b6000611f2f600e83611e7c565b9150611f3a82611ef9565b602082019050919050565b60006020820190508181036000830152611f5e81611f22565b9050919050565b6000604082019050611f7a6000830185611950565b611f876020830184611950565b9392505050565b600081519050611f9d81611cc3565b92915050565b600060208284031215611fb957611fb8611984565b5b6000611fc784828501611f8e565b91505092915050565b7f457363726f7720636f6e7472616374206973206e6f7420617070726f7665642060008201527f746f207472616e736665722074686973206e6674000000000000000000000000602082015250565b600061202c603483611e7c565b915061203782611fd0565b604082019050919050565b6000602082019050818103600083015261205b8161201f565b9050919050565b60008151905061207181611989565b92915050565b60006020828403121561208d5761208c611984565b5b600061209b84828501612062565b91505092915050565b7f596f7520617265206e6f7420746865206f776e6572206f6620746865206e6674600082015250565b60006120da602083611e7c565b91506120e5826120a4565b602082019050919050565b60006020820190508181036000830152612109816120cd565b9050919050565b60006080820190506121256000830187611950565b6121326020830186611950565b61213f6040830185611950565b61214c6060830184611a45565b95945050505050565b7f4e487b7100000000000000000000000000000000000000000000000000000000600052601160045260246000fd5b600061218f826119e2565b915061219a836119e2565b9250828210156121ad576121ac612155565b5b828203905092915050565b7f4e487b7100000000000000000000000000000000000000000000000000000000600052601260045260246000fd5b60006121f2826119e2565b91506121fd836119e2565b92508261220d5761220c6121b8565b5b828204905092915050565b6000612223826119e2565b915061222e836119e2565b9250827fffffffffffffffffffffffffffffffffffffffffffffffffffffffffffffffff0382111561226357612262612155565b5b828201905092915050565b6000612279826119e2565b9150612284836119e2565b9250817fffffffffffffffffffffffffffffffffffffffffffffffffffffffffffffffff04831182151516156122bd576122bc612155565b5b828202905092915050565b600060a0820190506122dd6000830188611950565b6122ea6020830187611950565b6122f76040830186611a45565b6123046060830185611950565b6123116080830184611a45565b9695505050505050565b60008160001c9050919050565b6000819050919050565b60006123456123408361231b565b612328565b9050919050565b600073ffffffffffffffffffffffffffffffffffffffff82169050919050565b600061237f61237a8361231b565b61234c565b9050919050565b600060ff82169050919050565b60006123a66123a18361231b565b612386565b9050919050565b610120820160008083015490506123c38161236c565b6123d06000860182611a54565b50600183015490506123e18161236c565b6123ee6020860182611a54565b50600283015490506123ff8161236c565b61240c6040860182611a54565b506003830154905061241d81612332565b61242a6060860182611a63565b506004830154905061243b81612332565b6124486080860182611a63565b506005830154905061245981612332565b61246660a0860182611a63565b506006830154905061247781612332565b61248460c0860182611a63565b506007830154905061249581612332565b6124a260e0860182611a63565b50600883015490506124b381612393565b6124c1610100860182611a7e565b5050505050565b6040820160008083015490506124dd81612332565b6124ea6000860182611a63565b50600183015490506124fb81612332565b6125086020860182611a63565b5050505050565b600060ff82169050919050565b600061252f61252a8361231b565b61250f565b9050919050565b61253f81611bc9565b82525050565b6101a08201600080830154905061255b81612332565b6125686000860182611a63565b506001830161257a60208601826123ad565b50600a830161258d6101408601826124c8565b50600c830154905061259e8161251c565b6125ac610180860182612536565b5050505050565b60006101a0820190506125c96000830184612545565b92915050565b7f4e6f7420616c6c6f77656420746f206c69717569646174650000000000000000600082015250565b6000612605601883611e7c565b9150612610826125cf565b602082019050919050565b60006020820190508181036000830152612634816125f8565b9050919050565b60006060820190506126506000830186611950565b61265d6020830185611950565b61266a6040830184611a45565b949350505050565b7f4661696c656420746f206c697175696461746520616e64207472616e7366657260008201527f20636f6c6c61746572616c000000000000000000000000000000000000000000602082015250565b60006126ce602b83611e7c565b91506126d982612672565b604082019050919050565b600060208201905081810360008301526126fd816126c1565b9050919050565b7f4f6e6c792070726f706f73616c4d616e6167657220697320616c6c6f7765642060008201527f746f2063616c6c00000000000000000000000000000000000000000000000000602082015250565b6000612760602783611e7c565b915061276b82612704565b604082019050919050565b6000602082019050818103600083015261278f81612753565b9050919050565b60006127a1826119e2565b91507fffffffffffffffffffffffffffffffffffffffffffffffffffffffffffffffff8214156127d4576127d3612155565b5b600182019050919050565b7f4f776e61626c653a206e6577206f776e657220697320746865207a65726f206160008201527f6464726573730000000000000000000000000000000000000000000000000000602082015250565b600061283b602683611e7c565b9150612846826127df565b604082019050919050565b6000602082019050818103600083015261286a8161282e565b9050919050565b7f4f776e61626c653a2063616c6c6572206973206e6f7420746865206f776e6572600082015250565b60006128a7602083611e7c565b91506128b282612871565b602082019050919050565b600060208201905081810360008301526128d68161289a565b905091905056fea26469706673582212203940d23a329cb6ea8b0de5588ec7002970547f16f677b8e4cd6782ac0952021f64736f6c63430008090033",
  "devdoc": {
    "kind": "dev",
    "methods": {
      "owner()": {
        "details": "Returns the address of the current owner."
      },
      "renounceOwnership()": {
        "details": "Leaves the contract without owner. It will not be possible to call `onlyOwner` functions. Can only be called by the current owner. NOTE: Renouncing ownership will leave the contract without an owner, thereby disabling any functionality that is only available to the owner."
      },
      "transferOwnership(address)": {
        "details": "Transfers ownership of the contract to a new account (`newOwner`). Can only be called by the current owner."
      }
    },
    "version": 1
  },
  "userdoc": {
    "kind": "user",
    "methods": {},
    "version": 1
  },
  "storageLayout": {
    "storage": [
      {
        "astId": 7,
        "contract": "contracts/RentalManager.sol:RentalManager",
        "label": "_owner",
        "offset": 0,
        "slot": "0",
        "type": "t_address"
      },
      {
        "astId": 5486,
        "contract": "contracts/RentalManager.sol:RentalManager",
        "label": "totalNumRental",
        "offset": 0,
        "slot": "1",
        "type": "t_uint256"
      },
      {
        "astId": 5491,
        "contract": "contracts/RentalManager.sol:RentalManager",
        "label": "rentalIdToRental",
        "offset": 0,
        "slot": "2",
        "type": "t_mapping(t_uint256,t_struct(Rental)5483_storage)"
      },
      {
        "astId": 5493,
        "contract": "contracts/RentalManager.sol:RentalManager",
        "label": "erc20DenominationUsed",
        "offset": 0,
        "slot": "3",
        "type": "t_address"
      },
      {
        "astId": 5495,
        "contract": "contracts/RentalManager.sol:RentalManager",
        "label": "listingManager",
        "offset": 0,
        "slot": "4",
        "type": "t_address"
      },
      {
        "astId": 5497,
        "contract": "contracts/RentalManager.sol:RentalManager",
        "label": "proposalManager",
        "offset": 0,
        "slot": "5",
        "type": "t_address"
      },
      {
        "astId": 5499,
        "contract": "contracts/RentalManager.sol:RentalManager",
        "label": "escrow",
        "offset": 0,
        "slot": "6",
        "type": "t_address"
      }
    ],
    "types": {
      "t_address": {
        "encoding": "inplace",
        "label": "address",
        "numberOfBytes": "20"
      },
      "t_bool": {
        "encoding": "inplace",
        "label": "bool",
        "numberOfBytes": "1"
      },
      "t_enum(RentalStatus)5447": {
        "encoding": "inplace",
        "label": "enum RentalManager.RentalStatus",
        "numberOfBytes": "1"
      },
      "t_mapping(t_uint256,t_struct(Rental)5483_storage)": {
        "encoding": "mapping",
        "key": "t_uint256",
        "label": "mapping(uint256 => struct RentalManager.Rental)",
        "numberOfBytes": "32",
        "value": "t_struct(Rental)5483_storage"
      },
      "t_struct(Rental)5483_storage": {
        "encoding": "inplace",
        "label": "struct RentalManager.Rental",
        "members": [
          {
            "astId": 5473,
            "contract": "contracts/RentalManager.sol:RentalManager",
            "label": "rentalId",
            "offset": 0,
            "slot": "0",
            "type": "t_uint256"
          },
          {
            "astId": 5476,
            "contract": "contracts/RentalManager.sol:RentalManager",
            "label": "details",
            "offset": 0,
            "slot": "1",
            "type": "t_struct(RentalDetails)5466_storage"
          },
          {
            "astId": 5479,
            "contract": "contracts/RentalManager.sol:RentalManager",
            "label": "info",
            "offset": 0,
            "slot": "10",
            "type": "t_struct(RentalInfo)5471_storage"
          },
          {
            "astId": 5482,
            "contract": "contracts/RentalManager.sol:RentalManager",
            "label": "status",
            "offset": 0,
            "slot": "12",
            "type": "t_enum(RentalStatus)5447"
          }
        ],
        "numberOfBytes": "416"
      },
      "t_struct(RentalDetails)5466_storage": {
        "encoding": "inplace",
        "label": "struct RentalManager.RentalDetails",
        "members": [
          {
            "astId": 5449,
            "contract": "contracts/RentalManager.sol:RentalManager",
            "label": "owner",
            "offset": 0,
            "slot": "0",
            "type": "t_address"
          },
          {
            "astId": 5451,
            "contract": "contracts/RentalManager.sol:RentalManager",
            "label": "renter",
            "offset": 0,
            "slot": "1",
            "type": "t_address"
          },
          {
            "astId": 5453,
            "contract": "contracts/RentalManager.sol:RentalManager",
            "label": "assetContract",
            "offset": 0,
            "slot": "2",
            "type": "t_address"
          },
          {
            "astId": 5455,
            "contract": "contracts/RentalManager.sol:RentalManager",
            "label": "tokenId",
            "offset": 0,
            "slot": "3",
            "type": "t_uint256"
          },
          {
            "astId": 5457,
            "contract": "contracts/RentalManager.sol:RentalManager",
            "label": "collateralAmount",
            "offset": 0,
            "slot": "4",
            "type": "t_uint256"
          },
          {
            "astId": 5459,
            "contract": "contracts/RentalManager.sol:RentalManager",
            "label": "pricePerDay",
            "offset": 0,
            "slot": "5",
            "type": "t_uint256"
          },
          {
            "astId": 5461,
            "contract": "contracts/RentalManager.sol:RentalManager",
            "label": "startingDate",
            "offset": 0,
            "slot": "6",
            "type": "t_uint256"
          },
          {
            "astId": 5463,
            "contract": "contracts/RentalManager.sol:RentalManager",
            "label": "endingDate",
            "offset": 0,
            "slot": "7",
            "type": "t_uint256"
          },
          {
            "astId": 5465,
            "contract": "contracts/RentalManager.sol:RentalManager",
            "label": "isProRated",
            "offset": 0,
            "slot": "8",
            "type": "t_bool"
          }
        ],
        "numberOfBytes": "288"
      },
      "t_struct(RentalInfo)5471_storage": {
        "encoding": "inplace",
        "label": "struct RentalManager.RentalInfo",
        "members": [
          {
            "astId": 5468,
            "contract": "contracts/RentalManager.sol:RentalManager",
            "label": "listingId",
            "offset": 0,
            "slot": "0",
            "type": "t_uint256"
          },
          {
            "astId": 5470,
            "contract": "contracts/RentalManager.sol:RentalManager",
            "label": "proposalId",
            "offset": 0,
            "slot": "1",
            "type": "t_uint256"
          }
        ],
        "numberOfBytes": "64"
      },
      "t_uint256": {
        "encoding": "inplace",
        "label": "uint256",
        "numberOfBytes": "32"
      }
    }
  }
}