{
  "address": "0x5FC8d32690cc91D4c39d9d3abcBD16989F875707",
  "abi": [
    {
      "inputs": [],
      "stateMutability": "nonpayable",
      "type": "constructor"
    },
    {
      "anonymous": false,
      "inputs": [
        {
          "indexed": true,
          "internalType": "address",
          "name": "previousOwner",
          "type": "address"
        },
        {
          "indexed": true,
          "internalType": "address",
          "name": "newOwner",
          "type": "address"
        }
      ],
      "name": "OwnershipTransferred",
      "type": "event"
    },
    {
      "anonymous": false,
      "inputs": [
        {
          "indexed": true,
          "internalType": "address",
          "name": "owner",
          "type": "address"
        },
        {
          "indexed": true,
          "internalType": "address",
          "name": "renter",
          "type": "address"
        },
        {
          "indexed": true,
          "internalType": "uint256",
          "name": "rentalId",
          "type": "uint256"
        },
        {
          "components": [
            {
              "internalType": "uint256",
              "name": "rentalId",
              "type": "uint256"
            },
            {
              "components": [
                {
                  "internalType": "address",
                  "name": "initialOwner",
                  "type": "address"
                },
                {
                  "internalType": "address",
                  "name": "renter",
                  "type": "address"
                },
                {
                  "internalType": "address",
                  "name": "assetContract",
                  "type": "address"
                },
                {
                  "internalType": "uint256",
                  "name": "tokenId",
                  "type": "uint256"
                },
                {
                  "internalType": "uint256",
                  "name": "collateralAmount",
                  "type": "uint256"
                },
                {
                  "internalType": "uint256",
                  "name": "pricePerDay",
                  "type": "uint256"
                },
                {
                  "internalType": "uint256",
                  "name": "startingDate",
                  "type": "uint256"
                },
                {
                  "internalType": "uint256",
                  "name": "endingDate",
                  "type": "uint256"
                },
                {
                  "internalType": "bool",
                  "name": "isProRated",
                  "type": "bool"
                }
              ],
              "internalType": "struct RentalManager.RentalDetails",
              "name": "details",
              "type": "tuple"
            },
            {
              "internalType": "uint256",
              "name": "listingId",
              "type": "uint256"
            },
            {
              "internalType": "enum RentalManager.RentalStatus",
              "name": "status",
              "type": "uint8"
            }
          ],
          "indexed": false,
          "internalType": "struct RentalManager.Rental",
          "name": "rental",
          "type": "tuple"
        }
      ],
      "name": "RentalCreated",
      "type": "event"
    },
    {
      "anonymous": false,
      "inputs": [
        {
          "indexed": true,
          "internalType": "address",
          "name": "owner",
          "type": "address"
        },
        {
          "indexed": true,
          "internalType": "address",
          "name": "renter",
          "type": "address"
        },
        {
          "indexed": true,
          "internalType": "uint256",
          "name": "rentalId",
          "type": "uint256"
        },
        {
          "components": [
            {
              "internalType": "uint256",
              "name": "rentalId",
              "type": "uint256"
            },
            {
              "components": [
                {
                  "internalType": "address",
                  "name": "initialOwner",
                  "type": "address"
                },
                {
                  "internalType": "address",
                  "name": "renter",
                  "type": "address"
                },
                {
                  "internalType": "address",
                  "name": "assetContract",
                  "type": "address"
                },
                {
                  "internalType": "uint256",
                  "name": "tokenId",
                  "type": "uint256"
                },
                {
                  "internalType": "uint256",
                  "name": "collateralAmount",
                  "type": "uint256"
                },
                {
                  "internalType": "uint256",
                  "name": "pricePerDay",
                  "type": "uint256"
                },
                {
                  "internalType": "uint256",
                  "name": "startingDate",
                  "type": "uint256"
                },
                {
                  "internalType": "uint256",
                  "name": "endingDate",
                  "type": "uint256"
                },
                {
                  "internalType": "bool",
                  "name": "isProRated",
                  "type": "bool"
                }
              ],
              "internalType": "struct RentalManager.RentalDetails",
              "name": "details",
              "type": "tuple"
            },
            {
              "internalType": "uint256",
              "name": "listingId",
              "type": "uint256"
            },
            {
              "internalType": "enum RentalManager.RentalStatus",
              "name": "status",
              "type": "uint8"
            }
          ],
          "indexed": false,
          "internalType": "struct RentalManager.Rental",
          "name": "rental",
          "type": "tuple"
        }
      ],
      "name": "RentalLiquidated",
      "type": "event"
    },
    {
      "anonymous": false,
      "inputs": [
        {
          "indexed": true,
          "internalType": "address",
          "name": "owner",
          "type": "address"
        },
        {
          "indexed": true,
          "internalType": "address",
          "name": "renter",
          "type": "address"
        },
        {
          "indexed": true,
          "internalType": "uint256",
          "name": "rentalId",
          "type": "uint256"
        },
        {
          "components": [
            {
              "internalType": "uint256",
              "name": "rentalId",
              "type": "uint256"
            },
            {
              "components": [
                {
                  "internalType": "address",
                  "name": "initialOwner",
                  "type": "address"
                },
                {
                  "internalType": "address",
                  "name": "renter",
                  "type": "address"
                },
                {
                  "internalType": "address",
                  "name": "assetContract",
                  "type": "address"
                },
                {
                  "internalType": "uint256",
                  "name": "tokenId",
                  "type": "uint256"
                },
                {
                  "internalType": "uint256",
                  "name": "collateralAmount",
                  "type": "uint256"
                },
                {
                  "internalType": "uint256",
                  "name": "pricePerDay",
                  "type": "uint256"
                },
                {
                  "internalType": "uint256",
                  "name": "startingDate",
                  "type": "uint256"
                },
                {
                  "internalType": "uint256",
                  "name": "endingDate",
                  "type": "uint256"
                },
                {
                  "internalType": "bool",
                  "name": "isProRated",
                  "type": "bool"
                }
              ],
              "internalType": "struct RentalManager.RentalDetails",
              "name": "details",
              "type": "tuple"
            },
            {
              "internalType": "uint256",
              "name": "listingId",
              "type": "uint256"
            },
            {
              "internalType": "enum RentalManager.RentalStatus",
              "name": "status",
              "type": "uint8"
            }
          ],
          "indexed": false,
          "internalType": "struct RentalManager.Rental",
          "name": "rental",
          "type": "tuple"
        }
      ],
      "name": "RentalRefunded",
      "type": "event"
    },
    {
      "inputs": [
        {
          "internalType": "uint256",
          "name": "_listingId",
          "type": "uint256"
        }
      ],
      "name": "createRental",
      "outputs": [],
      "stateMutability": "payable",
      "type": "function"
    },
    {
      "inputs": [
        {
          "internalType": "uint256",
          "name": "_rentalId",
          "type": "uint256"
        }
      ],
      "name": "liquidateRental",
      "outputs": [],
      "stateMutability": "nonpayable",
      "type": "function"
    },
    {
      "inputs": [],
      "name": "listingManager",
      "outputs": [
        {
          "internalType": "address",
          "name": "",
          "type": "address"
        }
      ],
      "stateMutability": "view",
      "type": "function"
    },
    {
      "inputs": [],
      "name": "owner",
      "outputs": [
        {
          "internalType": "address",
          "name": "",
          "type": "address"
        }
      ],
      "stateMutability": "view",
      "type": "function"
    },
    {
      "inputs": [
        {
          "internalType": "uint256",
          "name": "_rentalId",
          "type": "uint256"
        }
      ],
      "name": "refundRental",
      "outputs": [],
      "stateMutability": "nonpayable",
      "type": "function"
    },
    {
      "inputs": [],
      "name": "renounceOwnership",
      "outputs": [],
      "stateMutability": "nonpayable",
      "type": "function"
    },
    {
      "inputs": [
        {
          "internalType": "uint256",
          "name": "",
          "type": "uint256"
        }
      ],
      "name": "rentals",
      "outputs": [
        {
          "internalType": "uint256",
          "name": "rentalId",
          "type": "uint256"
        },
        {
          "components": [
            {
              "internalType": "address",
              "name": "initialOwner",
              "type": "address"
            },
            {
              "internalType": "address",
              "name": "renter",
              "type": "address"
            },
            {
              "internalType": "address",
              "name": "assetContract",
              "type": "address"
            },
            {
              "internalType": "uint256",
              "name": "tokenId",
              "type": "uint256"
            },
            {
              "internalType": "uint256",
              "name": "collateralAmount",
              "type": "uint256"
            },
            {
              "internalType": "uint256",
              "name": "pricePerDay",
              "type": "uint256"
            },
            {
              "internalType": "uint256",
              "name": "startingDate",
              "type": "uint256"
            },
            {
              "internalType": "uint256",
              "name": "endingDate",
              "type": "uint256"
            },
            {
              "internalType": "bool",
              "name": "isProRated",
              "type": "bool"
            }
          ],
          "internalType": "struct RentalManager.RentalDetails",
          "name": "details",
          "type": "tuple"
        },
        {
          "internalType": "uint256",
          "name": "listingId",
          "type": "uint256"
        },
        {
          "internalType": "enum RentalManager.RentalStatus",
          "name": "status",
          "type": "uint8"
        }
      ],
      "stateMutability": "view",
      "type": "function"
    },
    {
      "inputs": [
        {
          "internalType": "address",
          "name": "_listingManager",
          "type": "address"
        }
      ],
      "name": "setListingManager",
      "outputs": [],
      "stateMutability": "nonpayable",
      "type": "function"
    },
    {
      "inputs": [
        {
          "internalType": "address",
          "name": "_vault",
          "type": "address"
        }
      ],
      "name": "setVault",
      "outputs": [],
      "stateMutability": "nonpayable",
      "type": "function"
    },
    {
      "inputs": [],
      "name": "totalNumRental",
      "outputs": [
        {
          "internalType": "uint256",
          "name": "",
          "type": "uint256"
        }
      ],
      "stateMutability": "view",
      "type": "function"
    },
    {
      "inputs": [
        {
          "internalType": "address",
          "name": "newOwner",
          "type": "address"
        }
      ],
      "name": "transferOwnership",
      "outputs": [],
      "stateMutability": "nonpayable",
      "type": "function"
    },
    {
      "inputs": [],
      "name": "vault",
      "outputs": [
        {
          "internalType": "address payable",
          "name": "",
          "type": "address"
        }
      ],
      "stateMutability": "view",
      "type": "function"
    }
  ],
  "transactionHash": "0x0be3311ab61a26a373a61ccd8ec3cf2104a33e383e7c8338c494f8e8786d92ed",
  "args": [],
  "numDeployments": 1,
  "solcInputHash": "69948cb467ee74509f51748af70691c8",
  "bytecode": "0x608060405260006001553480156200001657600080fd5b50620000376200002b6200003d60201b60201c565b6200004560201b60201c565b62000109565b600033905090565b60008060009054906101000a900473ffffffffffffffffffffffffffffffffffffffff169050816000806101000a81548173ffffffffffffffffffffffffffffffffffffffff021916908373ffffffffffffffffffffffffffffffffffffffff1602179055508173ffffffffffffffffffffffffffffffffffffffff168173ffffffffffffffffffffffffffffffffffffffff167f8be0079c531659141344cd1fd0a4f28419497f9722a3daafe3b4186f6b6457e060405160405180910390a35050565b6127a580620001196000396000f3fe6080604052600436106100a75760003560e01c8063af94a1d111610064578063af94a1d114610185578063f2fde38b146101c5578063f93d2b9d146101ee578063fa037b9314610219578063fbfa77cf14610242578063fdbddd561461026d576100a7565b806325fe55bb146100ac5780632876929c146100c85780635c2e261a146100f15780636817031b1461011a578063715018a6146101435780638da5cb5b1461015a575b600080fd5b6100c660048036038101906100c191906117ea565b610298565b005b3480156100d457600080fd5b506100ef60048036038101906100ea91906117ea565b61092d565b005b3480156100fd57600080fd5b50610118600480360381019061011391906117ea565b610f77565b005b34801561012657600080fd5b50610141600480360381019061013c9190611875565b611273565b005b34801561014f57600080fd5b506101586112bf565b005b34801561016657600080fd5b5061016f6112d3565b60405161017c91906118b1565b60405180910390f35b34801561019157600080fd5b506101ac60048036038101906101a791906117ea565b6112fc565b6040516101bc9493929190611a42565b60405180910390f35b3480156101d157600080fd5b506101ec60048036038101906101e79190611875565b611493565b005b3480156101fa57600080fd5b50610203611517565b6040516102109190611a8a565b60405180910390f35b34801561022557600080fd5b50610240600480360381019061023b9190611875565b61151d565b005b34801561024e57600080fd5b50610257611569565b6040516102649190611ac6565b60405180910390f35b34801561027957600080fd5b5061028261158f565b60405161028f91906118b1565b60405180910390f35b600080600080600080600080600360009054906101000a900473ffffffffffffffffffffffffffffffffffffffff1673ffffffffffffffffffffffffffffffffffffffff1663de74e57b8a6040518263ffffffff1660e01b81526004016102ff9190611a8a565b6101606040518083038186803b15801561031857600080fd5b505afa15801561032c573d6000803e3d6000fd5b505050506040513d601f19601f820116820180604052508101906103509190611c51565b985098509850985098509850985098505060016003811115610375576103746119cb565b5b816003811115610388576103876119cb565b5b146103c8576040517f08c379a00000000000000000000000000000000000000000000000000000000081526004016103bf90611d79565b60405180910390fd5b8260200151421080156103de5750826000015142115b61041d576040517f08c379a000000000000000000000000000000000000000000000000000000000815260040161041490611d79565b60405180910390fd5b600061043b428560400151426104339190611dc8565b8760006115b5565b905060006104488261162c565b905060008183896104599190611dc8565b6104639190611dc8565b90508034146104a7576040517f08c379a000000000000000000000000000000000000000000000000000000000815260040161049e90611e6a565b60405180910390fd5b600460009054906101000a900473ffffffffffffffffffffffffffffffffffffffff1673ffffffffffffffffffffffffffffffffffffffff166311e963c534846040518363ffffffff1660e01b81526004016105039190611a8a565b6000604051808303818588803b15801561051c57600080fd5b505af1158015610530573d6000803e3d6000fd5b5050505050604051806080016040528060015481526020016040518061012001604052808e73ffffffffffffffffffffffffffffffffffffffff1681526020013373ffffffffffffffffffffffffffffffffffffffff1681526020018d73ffffffffffffffffffffffffffffffffffffffff1681526020018c81526020018b81526020018a81526020014281526020018960400151426105d09190611dc8565b815260200188151581525081526020018d8152602001600160048111156105fa576105f96119cb565b5b8152506002600060015481526020019081526020016000206000820151816000015560208201518160010160008201518160000160006101000a81548173ffffffffffffffffffffffffffffffffffffffff021916908373ffffffffffffffffffffffffffffffffffffffff16021790555060208201518160010160006101000a81548173ffffffffffffffffffffffffffffffffffffffff021916908373ffffffffffffffffffffffffffffffffffffffff16021790555060408201518160020160006101000a81548173ffffffffffffffffffffffffffffffffffffffff021916908373ffffffffffffffffffffffffffffffffffffffff160217905550606082015181600301556080820151816004015560a0820151816005015560c0820151816006015560e082015181600701556101008201518160080160006101000a81548160ff0219169083151502179055505050604082015181600a0155606082015181600b0160006101000a81548160ff02191690836004811115610784576107836119cb565b5b0217905550905050600360009054906101000a900473ffffffffffffffffffffffffffffffffffffffff1673ffffffffffffffffffffffffffffffffffffffff1663312be1d88d60026040518363ffffffff1660e01b81526004016107ea929190611ed2565b600060405180830381600087803b15801561080457600080fd5b505af1158015610818573d6000803e3d6000fd5b505050506001543373ffffffffffffffffffffffffffffffffffffffff168c73ffffffffffffffffffffffffffffffffffffffff167f380e3a86da31caf6b0b3f6f0f20a27be17b86bf84bc39dbca9dba8ac991f858b6002600060015481526020019081526020016000206040516108909190612158565b60405180910390a4600160008154809291906108ab90612174565b91905055508973ffffffffffffffffffffffffffffffffffffffff166342842e0e8c338c6040518463ffffffff1660e01b81526004016108ed939291906121bd565b600060405180830381600087803b15801561090757600080fd5b505af115801561091b573d6000803e3d6000fd5b50505050505050505050505050505050565b60006002600083815260200190815260200160002090503373ffffffffffffffffffffffffffffffffffffffff168160010160010160009054906101000a900473ffffffffffffffffffffffffffffffffffffffff1673ffffffffffffffffffffffffffffffffffffffff16146109d9576040517f08c379a00000000000000000000000000000000000000000000000000000000081526004016109d090612240565b60405180910390fd5b600160048111156109ed576109ec6119cb565b5b81600b0160009054906101000a900460ff166004811115610a1157610a106119cb565b5b1480610a52575060026004811115610a2c57610a2b6119cb565b5b81600b0160009054906101000a900460ff166004811115610a5057610a4f6119cb565b5b145b610a91576040517f08c379a0000000000000000000000000000000000000000000000000000000008152600401610a88906122ac565b60405180910390fd5b600115158160010160020160009054906101000a900473ffffffffffffffffffffffffffffffffffffffff1673ffffffffffffffffffffffffffffffffffffffff1663e985e9c533600460009054906101000a900473ffffffffffffffffffffffffffffffffffffffff166040518363ffffffff1660e01b8152600401610b1992919061232b565b60206040518083038186803b158015610b3157600080fd5b505afa158015610b45573d6000803e3d6000fd5b505050506040513d601f19601f82011682018060405250810190610b699190612354565b151514610bab576040517f08c379a0000000000000000000000000000000000000000000000000000000008152600401610ba2906123f3565b60405180910390fd5b600381600b0160006101000a81548160ff02191690836004811115610bd357610bd26119cb565b5b0217905550600460009054906101000a900473ffffffffffffffffffffffffffffffffffffffff1673ffffffffffffffffffffffffffffffffffffffff1663bf5fc9258260010160000160009054906101000a900473ffffffffffffffffffffffffffffffffffffffff168360010160010160009054906101000a900473ffffffffffffffffffffffffffffffffffffffff168460010160020160009054906101000a900473ffffffffffffffffffffffffffffffffffffffff1685600101600301546040518563ffffffff1660e01b8152600401610cb59493929190612413565b600060405180830381600087803b158015610ccf57600080fd5b505af1158015610ce3573d6000803e3d6000fd5b50505050600080610d0c83600101600601548460010160070154856001016005015460006115b5565b90508260010160080160009054906101000a900460ff1615610d57576000610d45846001016006015442866001016005015460016115b5565b90508082610d539190612458565b9250505b600460009054906101000a900473ffffffffffffffffffffffffffffffffffffffff1673ffffffffffffffffffffffffffffffffffffffff16638e3fbf0e8460010160000160009054906101000a900473ffffffffffffffffffffffffffffffffffffffff168484610dc99190612458565b6040518363ffffffff1660e01b8152600401610de692919061248c565b600060405180830381600087803b158015610e0057600080fd5b505af1158015610e14573d6000803e3d6000fd5b50505050600460009054906101000a900473ffffffffffffffffffffffffffffffffffffffff1673ffffffffffffffffffffffffffffffffffffffff166374e863ad8460010160010160009054906101000a900473ffffffffffffffffffffffffffffffffffffffff16848660010160040154610e919190611dc8565b6040518363ffffffff1660e01b8152600401610eae92919061248c565b600060405180830381600087803b158015610ec857600080fd5b505af1158015610edc573d6000803e3d6000fd5b5050505082600001543373ffffffffffffffffffffffffffffffffffffffff168460010160000160009054906101000a900473ffffffffffffffffffffffffffffffffffffffff1673ffffffffffffffffffffffffffffffffffffffff167f0e5ae24fc64cb4e8081d13905d7d4d420e4bd4dbdb78539c037758f9b1e0726486604051610f69919061252f565b60405180910390a450505050565b60006002600083815260200190815260200160002090503373ffffffffffffffffffffffffffffffffffffffff168160010160000160009054906101000a900473ffffffffffffffffffffffffffffffffffffffff1673ffffffffffffffffffffffffffffffffffffffff1614611023576040517f08c379a000000000000000000000000000000000000000000000000000000000815260040161101a90612597565b60405180910390fd5b60026004811115611037576110366119cb565b5b81600b0160009054906101000a900460ff16600481111561105b5761105a6119cb565b5b14806110ae57508060010160070154421180156110ad575060016004811115611087576110866119cb565b5b81600b0160009054906101000a900460ff1660048111156110ab576110aa6119cb565b5b145b5b6110ed576040517f08c379a00000000000000000000000000000000000000000000000000000000081526004016110e4906122ac565b60405180910390fd5b600061111182600101600601548360010160070154846001016005015460006115b5565b9050600482600b0160006101000a81548160ff0219169083600481111561113b5761113a6119cb565b5b0217905550828260010160010160009054906101000a900473ffffffffffffffffffffffffffffffffffffffff1673ffffffffffffffffffffffffffffffffffffffff163373ffffffffffffffffffffffffffffffffffffffff167f6f221e87f6a56a490bedcca236c704d9b9b3d5786d4917f07e70d08eae1a2049856040516111c5919061252f565b60405180910390a4600460009054906101000a900473ffffffffffffffffffffffffffffffffffffffff1673ffffffffffffffffffffffffffffffffffffffff16638245cb863383856001016004015461121f9190611dc8565b6040518363ffffffff1660e01b815260040161123c92919061248c565b600060405180830381600087803b15801561125657600080fd5b505af115801561126a573d6000803e3d6000fd5b50505050505050565b61127b61165b565b80600460006101000a81548173ffffffffffffffffffffffffffffffffffffffff021916908373ffffffffffffffffffffffffffffffffffffffff16021790555050565b6112c761165b565b6112d160006116d9565b565b60008060009054906101000a900473ffffffffffffffffffffffffffffffffffffffff16905090565b600260205280600052604060002060009150905080600001549080600101604051806101200160405290816000820160009054906101000a900473ffffffffffffffffffffffffffffffffffffffff1673ffffffffffffffffffffffffffffffffffffffff1673ffffffffffffffffffffffffffffffffffffffff1681526020016001820160009054906101000a900473ffffffffffffffffffffffffffffffffffffffff1673ffffffffffffffffffffffffffffffffffffffff1673ffffffffffffffffffffffffffffffffffffffff1681526020016002820160009054906101000a900473ffffffffffffffffffffffffffffffffffffffff1673ffffffffffffffffffffffffffffffffffffffff1673ffffffffffffffffffffffffffffffffffffffff16815260200160038201548152602001600482015481526020016005820154815260200160068201548152602001600782015481526020016008820160009054906101000a900460ff1615151515815250509080600a01549080600b0160009054906101000a900460ff16905084565b61149b61165b565b600073ffffffffffffffffffffffffffffffffffffffff168173ffffffffffffffffffffffffffffffffffffffff16141561150b576040517f08c379a000000000000000000000000000000000000000000000000000000000815260040161150290612629565b60405180910390fd5b611514816116d9565b50565b60015481565b61152561165b565b80600360006101000a81548173ffffffffffffffffffffffffffffffffffffffff021916908373ffffffffffffffffffffffffffffffffffffffff16021790555050565b600460009054906101000a900473ffffffffffffffffffffffffffffffffffffffff1681565b600360009054906101000a900473ffffffffffffffffffffffffffffffffffffffff1681565b6000806000905082156115d55785426115ce9190612458565b90506115e4565b85856115e19190612458565b90505b60006201518090506000816001836115fc9190612458565b846116079190611dc8565b6116119190612678565b9050808661161f91906126a9565b9350505050949350505050565b600060016103e560038461164091906126a9565b61164a9190612678565b6116549190611dc8565b9050919050565b61166361179d565b73ffffffffffffffffffffffffffffffffffffffff166116816112d3565b73ffffffffffffffffffffffffffffffffffffffff16146116d7576040517f08c379a00000000000000000000000000000000000000000000000000000000081526004016116ce9061274f565b60405180910390fd5b565b60008060009054906101000a900473ffffffffffffffffffffffffffffffffffffffff169050816000806101000a81548173ffffffffffffffffffffffffffffffffffffffff021916908373ffffffffffffffffffffffffffffffffffffffff1602179055508173ffffffffffffffffffffffffffffffffffffffff168173ffffffffffffffffffffffffffffffffffffffff167f8be0079c531659141344cd1fd0a4f28419497f9722a3daafe3b4186f6b6457e060405160405180910390a35050565b600033905090565b6000604051905090565b600080fd5b6000819050919050565b6117c7816117b4565b81146117d257600080fd5b50565b6000813590506117e4816117be565b92915050565b600060208284031215611800576117ff6117af565b5b600061180e848285016117d5565b91505092915050565b600073ffffffffffffffffffffffffffffffffffffffff82169050919050565b600061184282611817565b9050919050565b61185281611837565b811461185d57600080fd5b50565b60008135905061186f81611849565b92915050565b60006020828403121561188b5761188a6117af565b5b600061189984828501611860565b91505092915050565b6118ab81611837565b82525050565b60006020820190506118c660008301846118a2565b92915050565b6118d5816117b4565b82525050565b6118e481611837565b82525050565b6118f3816117b4565b82525050565b60008115159050919050565b61190e816118f9565b82525050565b6101208201600082015161192b60008501826118db565b50602082015161193e60208501826118db565b50604082015161195160408501826118db565b50606082015161196460608501826118ea565b50608082015161197760808501826118ea565b5060a082015161198a60a08501826118ea565b5060c082015161199d60c08501826118ea565b5060e08201516119b060e08501826118ea565b506101008201516119c5610100850182611905565b50505050565b7f4e487b7100000000000000000000000000000000000000000000000000000000600052602160045260246000fd5b60058110611a0b57611a0a6119cb565b5b50565b6000819050611a1c826119fa565b919050565b6000611a2c82611a0e565b9050919050565b611a3c81611a21565b82525050565b600061018082019050611a5860008301876118cc565b611a656020830186611914565b611a736101408301856118cc565b611a81610160830184611a33565b95945050505050565b6000602082019050611a9f60008301846118cc565b92915050565b6000611ab082611817565b9050919050565b611ac081611aa5565b82525050565b6000602082019050611adb6000830184611ab7565b92915050565b600081519050611af0816117be565b92915050565b600081519050611b0581611849565b92915050565b600080fd5b6000601f19601f8301169050919050565b7f4e487b7100000000000000000000000000000000000000000000000000000000600052604160045260246000fd5b611b5982611b10565b810181811067ffffffffffffffff82111715611b7857611b77611b21565b5b80604052505050565b6000611b8b6117a5565b9050611b978282611b50565b919050565b600060608284031215611bb257611bb1611b0b565b5b611bbc6060611b81565b90506000611bcc84828501611ae1565b6000830152506020611be084828501611ae1565b6020830152506040611bf484828501611ae1565b60408301525092915050565b611c09816118f9565b8114611c1457600080fd5b50565b600081519050611c2681611c00565b92915050565b60048110611c3957600080fd5b50565b600081519050611c4b81611c2c565b92915050565b60008060008060008060008060006101608a8c031215611c7457611c736117af565b5b6000611c828c828d01611ae1565b9950506020611c938c828d01611af6565b9850506040611ca48c828d01611af6565b9750506060611cb58c828d01611ae1565b9650506080611cc68c828d01611ae1565b95505060a0611cd78c828d01611ae1565b94505060c0611ce88c828d01611b9c565b935050610120611cfa8c828d01611c17565b925050610140611d0c8c828d01611c3c565b9150509295985092959850929598565b600082825260208201905092915050565b7f4c697374696e6720697320696e76616c69640000000000000000000000000000600082015250565b6000611d63601283611d1c565b9150611d6e82611d2d565b602082019050919050565b60006020820190508181036000830152611d9281611d56565b9050919050565b7f4e487b7100000000000000000000000000000000000000000000000000000000600052601160045260246000fd5b6000611dd3826117b4565b9150611dde836117b4565b9250827fffffffffffffffffffffffffffffffffffffffffffffffffffffffffffffffff03821115611e1357611e12611d99565b5b828201905092915050565b7f4e6f742074686520726967687420616d6f756e74206f6620746f6b656e000000600082015250565b6000611e54601d83611d1c565b9150611e5f82611e1e565b602082019050919050565b60006020820190508181036000830152611e8381611e47565b9050919050565b60048110611e9b57611e9a6119cb565b5b50565b6000819050611eac82611e8a565b919050565b6000611ebc82611e9e565b9050919050565b611ecc81611eb1565b82525050565b6000604082019050611ee760008301856118cc565b611ef46020830184611ec3565b9392505050565b60008160001c9050919050565b6000819050919050565b6000611f25611f2083611efb565b611f08565b9050919050565b600073ffffffffffffffffffffffffffffffffffffffff82169050919050565b6000611f5f611f5a83611efb565b611f2c565b9050919050565b600060ff82169050919050565b6000611f86611f8183611efb565b611f66565b9050919050565b61012082016000808301549050611fa381611f4c565b611fb060008601826118db565b5060018301549050611fc181611f4c565b611fce60208601826118db565b5060028301549050611fdf81611f4c565b611fec60408601826118db565b5060038301549050611ffd81611f12565b61200a60608601826118ea565b506004830154905061201b81611f12565b61202860808601826118ea565b506005830154905061203981611f12565b61204660a08601826118ea565b506006830154905061205781611f12565b61206460c08601826118ea565b506007830154905061207581611f12565b61208260e08601826118ea565b506008830154905061209381611f73565b6120a1610100860182611905565b5050505050565b600060ff82169050919050565b60006120c86120c383611efb565b6120a8565b9050919050565b6120d881611a21565b82525050565b610180820160008083015490506120f481611f12565b61210160008601826118ea565b50600183016121136020860182611f8d565b50600a830154905061212481611f12565b6121326101408601826118ea565b50600b8301549050612143816120b5565b6121516101608601826120cf565b5050505050565b60006101808201905061216e60008301846120de565b92915050565b600061217f826117b4565b91507fffffffffffffffffffffffffffffffffffffffffffffffffffffffffffffffff8214156121b2576121b1611d99565b5b600182019050919050565b60006060820190506121d260008301866118a2565b6121df60208301856118a2565b6121ec60408301846118cc565b949350505050565b7f4e6f7420616c6c6f77656420746f2072656e66756e6400000000000000000000600082015250565b600061222a601683611d1c565b9150612235826121f4565b602082019050919050565b600060208201905081810360008301526122598161221d565b9050919050565b7f52656e74616c20696e76616c6964000000000000000000000000000000000000600082015250565b6000612296600e83611d1c565b91506122a182612260565b602082019050919050565b600060208201905081810360008301526122c581612289565b9050919050565b6000819050919050565b60006122f16122ec6122e784611817565b6122cc565b611817565b9050919050565b6000612303826122d6565b9050919050565b6000612315826122f8565b9050919050565b6123258161230a565b82525050565b600060408201905061234060008301856118a2565b61234d602083018461231c565b9392505050565b60006020828403121561236a576123696117af565b5b600061237884828501611c17565b91505092915050565b7f5661756c7420636f6e7472616374206973206e6f7420617070726f766564207460008201527f6f207472616e736665722074686973206e667400000000000000000000000000602082015250565b60006123dd603383611d1c565b91506123e882612381565b604082019050919050565b6000602082019050818103600083015261240c816123d0565b9050919050565b600060808201905061242860008301876118a2565b61243560208301866118a2565b61244260408301856118a2565b61244f60608301846118cc565b95945050505050565b6000612463826117b4565b915061246e836117b4565b92508282101561248157612480611d99565b5b828203905092915050565b60006040820190506124a160008301856118a2565b6124ae60208301846118cc565b9392505050565b610180820160008083015490506124cb81611f12565b6124d860008601826118ea565b50600183016124ea6020860182611f8d565b50600a83015490506124fb81611f12565b6125096101408601826118ea565b50600b830154905061251a816120b5565b6125286101608601826120cf565b5050505050565b60006101808201905061254560008301846124b5565b92915050565b7f4e6f7420616c6c6f77656420746f206c69717569646174650000000000000000600082015250565b6000612581601883611d1c565b915061258c8261254b565b602082019050919050565b600060208201905081810360008301526125b081612574565b9050919050565b7f4f776e61626c653a206e6577206f776e657220697320746865207a65726f206160008201527f6464726573730000000000000000000000000000000000000000000000000000602082015250565b6000612613602683611d1c565b915061261e826125b7565b604082019050919050565b6000602082019050818103600083015261264281612606565b9050919050565b7f4e487b7100000000000000000000000000000000000000000000000000000000600052601260045260246000fd5b6000612683826117b4565b915061268e836117b4565b92508261269e5761269d612649565b5b828204905092915050565b60006126b4826117b4565b91506126bf836117b4565b9250817fffffffffffffffffffffffffffffffffffffffffffffffffffffffffffffffff04831182151516156126f8576126f7611d99565b5b828202905092915050565b7f4f776e61626c653a2063616c6c6572206973206e6f7420746865206f776e6572600082015250565b6000612739602083611d1c565b915061274482612703565b602082019050919050565b600060208201905081810360008301526127688161272c565b905091905056fea2646970667358221220816e7c87cf3dc23c351b13f67dace0e78a784ed11a5eb59cb084769dd4c98d6164736f6c63430008090033",
  "devdoc": {
    "kind": "dev",
    "methods": {
      "createRental(uint256)": {
        "details": "Accept a listing, send native tokens to the vault and receive the NFT from user."
      },
      "liquidateRental(uint256)": {
        "details": "This method can be used by the original owner if the renter didn't come back with the NFT.",
        "params": {
          "_rentalId": "Id of the rental"
        }
      },
      "owner()": {
        "details": "Returns the address of the current owner."
      },
      "refundRental(uint256)": {
        "details": "For the moment we block refund if this is not the original renter The NFT is stored in the Vault because if the original user stop the automatic send of the NFT, the renter could be blocked without any ways to refund the rental! (Pull over push)",
        "params": {
          "_rentalId": "Id of the rental"
        }
      },
      "renounceOwnership()": {
        "details": "Leaves the contract without owner. It will not be possible to call `onlyOwner` functions. Can only be called by the current owner. NOTE: Renouncing ownership will leave the contract without an owner, thereby disabling any functionality that is only available to the owner."
      },
      "transferOwnership(address)": {
        "details": "Transfers ownership of the contract to a new account (`newOwner`). Can only be called by the current owner."
      }
    },
    "version": 1
  },
  "userdoc": {
    "kind": "user",
    "methods": {},
    "version": 1
  },
  "storageLayout": {
    "storage": [
      {
        "astId": 7,
        "contract": "contracts/RentalManager.sol:RentalManager",
        "label": "_owner",
        "offset": 0,
        "slot": "0",
        "type": "t_address"
      },
      {
        "astId": 4472,
        "contract": "contracts/RentalManager.sol:RentalManager",
        "label": "totalNumRental",
        "offset": 0,
        "slot": "1",
        "type": "t_uint256"
      },
      {
        "astId": 4477,
        "contract": "contracts/RentalManager.sol:RentalManager",
        "label": "rentals",
        "offset": 0,
        "slot": "2",
        "type": "t_mapping(t_uint256,t_struct(Rental)4469_storage)"
      },
      {
        "astId": 4479,
        "contract": "contracts/RentalManager.sol:RentalManager",
        "label": "listingManager",
        "offset": 0,
        "slot": "3",
        "type": "t_address"
      },
      {
        "astId": 4481,
        "contract": "contracts/RentalManager.sol:RentalManager",
        "label": "vault",
        "offset": 0,
        "slot": "4",
        "type": "t_address_payable"
      }
    ],
    "types": {
      "t_address": {
        "encoding": "inplace",
        "label": "address",
        "numberOfBytes": "20"
      },
      "t_address_payable": {
        "encoding": "inplace",
        "label": "address payable",
        "numberOfBytes": "20"
      },
      "t_bool": {
        "encoding": "inplace",
        "label": "bool",
        "numberOfBytes": "1"
      },
      "t_enum(RentalStatus)4439": {
        "encoding": "inplace",
        "label": "enum RentalManager.RentalStatus",
        "numberOfBytes": "1"
      },
      "t_mapping(t_uint256,t_struct(Rental)4469_storage)": {
        "encoding": "mapping",
        "key": "t_uint256",
        "label": "mapping(uint256 => struct RentalManager.Rental)",
        "numberOfBytes": "32",
        "value": "t_struct(Rental)4469_storage"
      },
      "t_struct(Rental)4469_storage": {
        "encoding": "inplace",
        "label": "struct RentalManager.Rental",
        "members": [
          {
            "astId": 4460,
            "contract": "contracts/RentalManager.sol:RentalManager",
            "label": "rentalId",
            "offset": 0,
            "slot": "0",
            "type": "t_uint256"
          },
          {
            "astId": 4463,
            "contract": "contracts/RentalManager.sol:RentalManager",
            "label": "details",
            "offset": 0,
            "slot": "1",
            "type": "t_struct(RentalDetails)4458_storage"
          },
          {
            "astId": 4465,
            "contract": "contracts/RentalManager.sol:RentalManager",
            "label": "listingId",
            "offset": 0,
            "slot": "10",
            "type": "t_uint256"
          },
          {
            "astId": 4468,
            "contract": "contracts/RentalManager.sol:RentalManager",
            "label": "status",
            "offset": 0,
            "slot": "11",
            "type": "t_enum(RentalStatus)4439"
          }
        ],
        "numberOfBytes": "384"
      },
      "t_struct(RentalDetails)4458_storage": {
        "encoding": "inplace",
        "label": "struct RentalManager.RentalDetails",
        "members": [
          {
            "astId": 4441,
            "contract": "contracts/RentalManager.sol:RentalManager",
            "label": "initialOwner",
            "offset": 0,
            "slot": "0",
            "type": "t_address"
          },
          {
            "astId": 4443,
            "contract": "contracts/RentalManager.sol:RentalManager",
            "label": "renter",
            "offset": 0,
            "slot": "1",
            "type": "t_address"
          },
          {
            "astId": 4445,
            "contract": "contracts/RentalManager.sol:RentalManager",
            "label": "assetContract",
            "offset": 0,
            "slot": "2",
            "type": "t_address"
          },
          {
            "astId": 4447,
            "contract": "contracts/RentalManager.sol:RentalManager",
            "label": "tokenId",
            "offset": 0,
            "slot": "3",
            "type": "t_uint256"
          },
          {
            "astId": 4449,
            "contract": "contracts/RentalManager.sol:RentalManager",
            "label": "collateralAmount",
            "offset": 0,
            "slot": "4",
            "type": "t_uint256"
          },
          {
            "astId": 4451,
            "contract": "contracts/RentalManager.sol:RentalManager",
            "label": "pricePerDay",
            "offset": 0,
            "slot": "5",
            "type": "t_uint256"
          },
          {
            "astId": 4453,
            "contract": "contracts/RentalManager.sol:RentalManager",
            "label": "startingDate",
            "offset": 0,
            "slot": "6",
            "type": "t_uint256"
          },
          {
            "astId": 4455,
            "contract": "contracts/RentalManager.sol:RentalManager",
            "label": "endingDate",
            "offset": 0,
            "slot": "7",
            "type": "t_uint256"
          },
          {
            "astId": 4457,
            "contract": "contracts/RentalManager.sol:RentalManager",
            "label": "isProRated",
            "offset": 0,
            "slot": "8",
            "type": "t_bool"
          }
        ],
        "numberOfBytes": "288"
      },
      "t_uint256": {
        "encoding": "inplace",
        "label": "uint256",
        "numberOfBytes": "32"
      }
    }
  }
}